:020000040800F2
:10000000D811002045010008591100089D0C000876
:10001000950D00082D080008E525000800000000E7
:10002000000000000000000000000000811800082F
:10003000750900080000000019120008FD1D0008E5
:100040005F0100085F0100085F0100084915000812
:100050005F0100085F0100085F0100085F01000800
:100060005F0100085F0100085F0100085F010008F0
:100070005F0100085F0100085F0100085F010008E0
:100080005F0100085F0100085F0100085F010008D0
:100090005F0100085F0100085F0100085F010008C0
:1000A0005F0100085F0100085F0100085F010008B0
:1000B000611E000821200008C12000085F0100081F
:1000C0005F0100085F0100085F0100085F01000890
:1000D0005F0100089D220008C92200085F01000896
:1000E0005F0100085F0100085F0100085F01000870
:1000F0005F0100085F0100085F0100085F01000860
:100100005F0100085F010008952100085F010008F9
:100110005F0100085F0100085F0100085F0100083F
:100120005F0100085F0100085F0100085F0100082F
:10013000DFF80CD000F004FB00480047E540000861
:10014000D81100200648804706480047FEE7FEE732
:10015000FEE7FEE7FEE7FEE7FEE7FEE7FEE7FEE777
:10016000011E00083101000800487047184B0008C4
:10017000014610B509683C22B1FBF2F302FB1313F0
:10018000B1FBF2F11D480360B1FBF2F302FB131364
:10019000B1FBF2F118224360B1FBF2F302FB13133F
:1001A000B1FBF2F183600A1D0723B2FBF3F403FBFA
:1001B000142282618A0040F2B55102F66C32B2FB21
:1001C000F1F344334361B2FBF1F301FB13218908DE
:1001D000C1613B2903D3027D920700D0491C002254
:1001E000074C13460261E25C8A4203D8891A5B1C01
:1001F0000361F8E7491CC16010BD0000AC0D002090
:100200001C4B0008D2B201E000F8012B491EFBD2C2
:1002100070470022F6E710B513460A460446194611
:10022000FFF7F0FF204610BD10B5002200E0521C81
:10023000835C8C5CA34201D1002BF8D1D8B2E1B22F
:10024000401A10BD2DE9FE4F804681EA0300C00F21
:100250000C46009021F0004123F00045B8EB02006D
:10026000A94105D24046214690461C460B4602460F
:1002700023F00040104347D0270DC7F30A00C3F313
:100280000A510290401A019040286BDAC3F3130020
:1002900040F4801B0098924620B10023D2EB030A61
:1002A00063EB0B0B01985946C0F14002504600F039
:1002B00026F906460D4650465946019A00F02EF999
:1002C00010EB08006141002487EA115284EAE773C9
:1002D0001A4340D0009A62B3019A012A4FEA0752AA
:1002E00015DC001B61EB02014FF0004202EA0752ED
:1002F000CDE90042001C41F5801132462B4600F04A
:100300002EF903B0BDE8F08F40462146F9E7001B07
:1003100061EB0201001C41F5801300185B412018BD
:10032000A2F5001747EB030140EAD570B6196D41FD
:1003300011E06D084FEA360645EAC0754FEA0752EC
:10034000001B61EB0201001C41F5801149084FEAD6
:1003500030000019514132462B4603B0BDE8F04F42
:1003600000F0EEB80098012240000023D0EB02021A
:1003700063EBE073009821464FEAE074B8EB0000AD
:1003800061EB0401E9E783F000435BE781F00041A2
:1003900058E72DE9F04D81EA030404F0004B21F009
:1003A000004514464FF0000A23F0004150EA0502D0
:1003B00020D054EA01021DD0C5F30A570246C5F306
:1003C0001303C1F31300C1F30A5640F4801543F43C
:1003D0008013A7EB0608101BD64608F2FD3873EB16
:1003E000050002D308F1010801E092185B41B8F161
:1003F000000F03DA00200146BDE8F08D00204FF425
:100400008011064684460EE0171B73EB050705D3E3
:10041000121B63EB050306434CEA010C49084FEA43
:10042000300092185B4150EA0107EDD152EA030017
:1004300012D082EA040083EA0501084305D0101BAC
:10044000AB4106D20122002306E000224FF0004318
:1004500002E06FF0010253101AEB06004CEB08515A
:1004600010EB0A0041EB0B01BDE8F04D00F068B85D
:1004700030B50B46014600202022012409E021FA74
:1004800002F59D4205D303FA02F5491B04FA02F571
:100490002844151EA2F10102F1DC30BD2DE9F05F08
:1004A0000546002092469B468846064681464024E3
:1004B0001BE0284641464746224600F053F9534682
:1004C0005A46C01A914110D311461846224600F0F0
:1004D00016F82D1A67EB01084F462246012000212D
:1004E00000F00DF817EB00094E41201EA4F10104A5
:1004F000DFDC484631462A464346BDE8F09F202AC5
:1005000004DB203A00FA02F1002070479140C2F16A
:10051000200320FA03F3194390407047202A06DB9A
:10052000CB17203A41FA02F043EAE07306E041FAC1
:1005300002F3D040C2F120029140084319467047AF
:1005400010B5141E73F1000408DA401C41F10001DB
:1005500092185B411A4301D120F0010010BD2DE932
:10056000F04D92469B4611B1B1FA81F202E0B0FA29
:1005700080F220329046FFF7C2FF04460F4640EA61
:100580000A0041EA0B0153465A46084313D011466C
:1005900053EA010019D0C8F14002504600F0E2F8D9
:1005A00005460E46504659464246FFF7A8FF084307
:1005B00005D0012004E020463946BDE8F08D00203A
:1005C000054346EAE0762C4337430A986305E40A7C
:1005D000A0EB08000022FD0A44EA47540A3002D585
:1005E00000200146E9E7010510196941DDE90845E8
:1005F00000196941BDE8F04DA2E72DE9FE4F81EAFF
:10060000030404F0004421F0004100944FF0000B7B
:1006100023F0004350EA01045ED052EA03045BD0A9
:10062000C3F30A54C1F30A552C44A4F2F3340194E1
:10063000A0FB0254C1F3130141F48011C3F313036F
:1006400043F4801301FB024400FB034E840A970A23
:1006500044EA815447EA8357A4FB076802958D0A50
:1006600005FB07854FEA932C04FB0C542705029DDC
:100670004FEA065847EA1637B5EB08056EEB070C4C
:10068000870E920E47EA811742EA8312A7FB020106
:10069000B6EB0B0164EB00042B0D43EA0C335E1840
:1006A00044EB1C50DA465146E7FB0201C5F3130444
:1006B0004FEA0B3343EA14534FEA0432019C43EAF6
:1006C0000603A4F10C040294009CCDE900B4FFF7EA
:1006D00046FF03B0BDE8F08F00200146F9E7C1F303
:1006E0000A52C1F3130140F2FF3341F480119A42E0
:1006F00002DA00200146704740F233439A42A2F2E8
:10070000334202DC524200F02DB8FFF7F8BE000081
:1007100030B5041E71F1000404DB4FF00044404288
:1007200064EB0101141E73F1000405DB1C464FF05D
:100730000043524263EB0403994208BF904230BD2C
:10074000064C074D06E0E06840F0010394E807001E
:1007500098471034AC42F6D3FFF7EEFC304B00085C
:10076000504B0008202A04DB203A21FA02F0002135
:10077000704721FA02F3D040C2F1200291400843B1
:100780001946704770B58D1810F8014B14F003022C
:1007900001D110F8012B231106D110F8013B03E021
:1007A00010F8016B01F8016B521EF9D1ABB110F8D2
:1007B000012B04F00C048A1A0C2C03D0A2EB841237
:1007C0009B1C08E010F8014BA2EB0422F8E712F89A
:1007D000014B01F8014B5B1EF9D5A942D4D300208F
:1007E00070BD10B5012000F039FD002000F036FD8D
:1007F00010BD000008B5014600200090034800909D
:100800000098084400900098008808BD006C0040E3
:1008100008B500220092044A0092009A0244009215
:10082000009A116008BD0000006C004000BFFEE7A8
:1008300070B50346184600240BE011F8016B86EAF8
:100840002025054E36F8155085EA0025A8B2651C0E
:10085000ACB29442F1DB70BD7044000810B50446A0
:10086000012C01DB382C01DD012010BD621E054B7F
:1008700003EBC2029188621E53F8320000F060F967
:100880000020F2E7B000002001460020002281B1E4
:100890000B6873B1074B1B6813B9064B196007E06F
:1008A000044B1A6800E092689368002BFBD19160BA
:1008B0000120704718000020F0B591B006460025D1
:1008C00000242B48076800BF03E000204DF82500F6
:1008D0006D1C102DF9DB00E0761C307840B1FFF77D
:1008E00043FC00683178405C00F0BA000028F3D087
:1008F00001250096344620E000E0641C207840B1D9
:10090000FFF732FC00682178405C00F0BA00002854
:10091000F3D102E000202070641C207840B1FFF782
:1009200023FC00682178405C00F0BA000028F1D078
:10093000207810B14DF825406D1C207808B1102D9D
:10094000DADB00204DF825000CE0002D09DD3046F3
:100950003968FFF769FC20B9694628467A689047EC
:1009600002E0BF68002FF0D100BF11B0F0BD000061
:100970001800002070472DE9F041024600250026AE
:10098000002000230024002791F803C00CF00F057D
:1009900091F803C00CF0100CBCF1000F03D091F8DB
:1009A00002C04CEA050591F800C0BCF1000F31D03F
:1009B000146800202BE04FF0010C0CFA00F3B1F8A2
:1009C00000C00CEA03069E4220D183004FF00F0CBA
:1009D0000CFA03F7BC4305FA03FC4CEA040491F853
:1009E00003C0BCF1280F06D14FF0010C0CFA00FC3B
:1009F000C2F814C00AE091F803C0BCF1480F05D159
:100A00004FF0010C0CFA00FCC2F810C0401C082882
:100A1000D1D31460B1F800C0BCF1FF0F34DD5468CD
:100A200000202EE000F1080C4FF0010808FA0CF34A
:100A3000B1F800C00CEA03069E4221D183004FF0BA
:100A40000F0C0CFA03F7BC4305FA03FC4CEA040450
:100A500091F803C0BCF1280F05D100F1080C08FA89
:100A60000CF8C2F8148091F803C0BCF1480F07D10C
:100A700000F1080C4FF0010808FA0CF8C2F81080D9
:100A8000401C0828CED35460BDE8F081F0B50A467A
:100A9000002300240021002500F00046B6F1004F9D
:100AA00002D11D4EF16901E01B4E7168C0F3034590
:100AB00083B200F44016B6F5401F08D121F07061F2
:100AC000154E766826F07066134F7E6012E000F4D3
:100AD0008016B6F5801F06D1032606FA05F4A14359
:100AE00041F0706106E0460D360103FA06F6B143A7
:100AF00041F0706122B1460D360103FA06F631432A
:100B000000F00046B6F1004F02D1034EF16101E062
:100B1000014E7160F0BD000000000140024600205F
:100B200093680B400BB1012000E0002070470246A3
:100B30000020D3680B400BB1012000E0002070477B
:100B400041617047016170470AB1016100E0416194
:100B5000704700000121014A11707047AC0000206D
:100B60004179012901D1014A11707047AC00002080
:100B70000178014A51737047940000200178014ABE
:100B80001173704794000020FEB50546A878000652
:100B9000E97840EA0140297940EA0120697940EA90
:100BA0000106029602A8FFF7E3FA044620782179AD
:100BB000CDE90010277A0937FBB2227B277C7F1C06
:100BC000F9B2A78A07F26C77B8B200F063FDFEBDF8
:100BD0007FB5002500240020009001900290039032
:100BE0002B4802F089FA0546102D4FD300F060F82B
:100BF000274802F081FA054600BF06E0254908199A
:100C0000012102F0C3F9601CC4B2AC42F6D3002546
:100C1000204800783038C0B28DF800009DF8000000
:100C2000002833DD9DF8000009282FDC002407E0B0
:100C30001848005D3038C0B20DF80400601CC4B222
:100C4000102CF5DB00240EE0012000EB44001DF821
:100C500000001DF8141001EB810100EB41000E496A
:100C60000855601CC4B2072CEEDD642002F02AFA9D
:100C700008220949052000F0BBFD642002F022FA99
:100C8000022002F061F9012002F05EF97FBD000050
:100C900080030020A00300206A00002000BFFEE7C0
:100CA0004CF6CC400149086070470000003000401D
:100CB00010B500F013F810BD70B505460C4645F2AE
:100CC000555000F01FF8284600F010F8204600F0BC
:100CD00013F800F003F8FFF7E3FF70BD4AF6AA200F
:100CE0000149086070470000003000400149486039
:100CF00070470000003000400149886070470000E4
:100D0000003000400149086070470000003000409A
:100D10000146CA1701EB92729210A1EB820292B9BE
:100D2000642091FBF0F200FB121050B94FF4C87030
:100D300091FBF0F200FB121008B90120704700206F
:100D4000FCE70120FAE70020F8E7000010B50446B0
:100D500014B101200D4908700C48007888B10121B8
:100D60000B48FFF7DBFE60B90A2002F085F900208E
:100D70000649087001210648FFF7D0FE18B9012086
:100D800010BD0020FCE70020FAE700008E000020E4
:100D90000018014000BFFEE738B50024012140F2F1
:100DA000FD1000F04BFA0121A648FFF76FFE4FF44B
:100DB0004060ADF8000010208DF8030003208DF88E
:100DC00002006946A048FFF7D6FD4FF480619E48B7
:100DD000FFF7B6FE4FF400619B48FFF7B1FE4FF4FA
:100DE0008050ADF8000048208DF803006946964811
:100DF000FFF7C1FD4FF45070ADF8000010208DF8E2
:100E0000030069469148FFF7B6FD03208DF8020004
:100E10004FF40040ADF8000010208DF80300694643
:100E20008B48FFF7A8FD03208DF802000220ADF8E3
:100E3000000010208DF8030069468648FFF79BFDEF
:100E400003208DF802008002ADF8000010208DF81C
:100E5000030069467C48FFF78EFD03208DF80200F1
:100E60008020ADF8000010208DF803006946774817
:100E7000FFF781FD03208DF802001020ADF800007F
:100E800028208DF8030069467348FFF774FD03209E
:100E90008DF802000120ADF8000048208DF8030015
:100EA00069466C48FFF767FD03208DF8020000BF1C
:100EB0001FE06A4800EBC4008088ADF80000674876
:100EC00000EBC40080798DF8030003208DF8020048
:100ED000624951F834006946FFF74DFD5F4A02EB65
:100EE000C40291885D4A52F83400FFF729FE601C65
:100EF000C4B2202CDDDB00241FE0594800EBC40005
:100F00008088ADF80000564800EBC40080798DF869
:100F1000030003208DF80200514951F8340069465E
:100F2000FFF729FD4E4A02EBC40291884C4A52F861
:100F30003400FFF705FE601CC4B2202CDDDB00246A
:100F40001FE0484800EBC4008088ADF80000454829
:100F500000EBC40080798DF8030003208DF80200B7
:100F6000404951F834006946FFF705FD3D4A02EB60
:100F7000C40291883B4A52F83400FFF7E1FD601C3F
:100F8000C4B2162CDDDB1820ADF8000010208DF85F
:100F9000030069462D48FFF7EEFC03208DF80200A0
:100FA0004FF4E050ADF8000010208DF803006946C2
:100FB0002548FFF7E0FC03208DF802000120ADF882
:100FC000000010208DF8030069462348FFF7D3FC8A
:100FD00003208DF802002020ADF8000048208DF895
:100FE000030069461C48FFF7C6FC03208DF8020089
:100FF0004FF40050ADF8000048208DF8030069461A
:101000001948FFF7B8FC03208DF802004FF4804028
:10101000ADF8000028208DF8030069460E48FFF760
:10102000AAFC03208DF802002020ADF80000282043
:101030008DF8030069460C48FFF79DFC03208DF8EE
:10104000020038BD0002300000100140000C0140D9
:10105000002001400018014000140140B0000020B1
:10106000B0010020B0020020001C01402DE9F04139
:10107000064600244FF41675A04600277600082186
:101080003448FFF75FFD10213248FFF75BFD5CE05D
:10109000012001F0C3FF404608F10108A84254D3E3
:1010A000B44252D24FF00008641C04F0010040B971
:1010B00008212848FFF744FD10212648FFF740FD8E
:1010C00007E008212348FFF73DFD10212148FFF7E5
:1010D00039FD04F00100002837D1062F2CD2DFE8BB
:1010E00007F0030A1A1B292A4FF41675B4F57A7F04
:1010F00000D3012721E0C82D01D96D1E06E0642030
:10110000B4FBF0F100FB114000B96D1E3C2D01D87D
:101110003C25022711E010E03220B4FBF0F100FB87
:10112000114000B96D1CB5F5167F02D34FF416754A
:10113000042702E001E000E000BF00BFFFF7B8FDB8
:101140004CF25030844200D90327B442A0D3BDE80A
:10115000F0810000000C01407047000070B50021D4
:1011600000230F22C47804B3154C246804F4E0640F
:10117000C4F5E064210AC1F10403CA40447804FACA
:1011800003F184781440214309010E4C0678A155DF
:10119000047804F01F050124AC4005786D11AD0002
:1011A00005F1E025C5F8004109E0047804F01F05C9
:1011B0000124AC40044D0678761145F8264070BDF8
:1011C0000CED00E000E400E080E100E002490143B2
:1011D000024A1160704700000000FA050CED00E0C3
:1011E00010B50446012C01DB382C01DD012010BDB7
:1011F000621E054B03EBC2029188621E53F8320057
:10120000FFF7A0FC0020F2E7B000002001490862CF
:101210007047000000000E427047000029B1064AE6
:10122000D2690243044BDA6104E0034AD269824383
:10123000014BDA61704700000010024029B1064AF4
:1012400092690243044B9A6104E0034A9269824323
:10125000014B9A617047000000100240014908608C
:10126000704700004004424230B5002100220024B3
:1012700000232D4D6D6805F00C0121B1042905D026
:10128000082923D105E0294D056022E0284D05609D
:101290001FE0254D6D6805F47012234D6D6805F44F
:1012A0008034022505EB92421CB9224D554305605E
:1012B0000BE01D4D6D6805F400351DB11B4D554308
:1012C000056002E01A4D5543056002E0174D0560C8
:1012D00000BF00BF144D6D6805F0F0010909164DFF
:1012E0006B5C0568DD4045600F4D6D6805F4E0619D
:1012F000090A114D6B5C4568DD4085600A4D6D68DB
:1013000005F46051C90A0C4D6B5C4568DD40C56051
:10131000054D6D6805F44041890B084D6B5CC5684F
:10132000B5FBF3F5056130BD0010024000127A00F4
:101330000024F40000093D00640300207403002031
:1013400001490860704700003C0442420249096AB2
:101350000143014A116270470010024002490988A6
:101360008143014A118070470428004003480088E7
:1013700040F0100001490880704700000428004038
:10138000034800884FF6EF71084001490880704714
:101390000428004070B500260024002500F07CF8E9
:1013A00006463948B6FBF0F438480088A0423CD0E5
:1013B00036490C8040F2B27510E02846FFF7A8FCD1
:1013C00040B1B4F5B77F02D3A4F5B77404E0681C4C
:1013D00085B206E0A4F26D14681C85B2B4F5B67F40
:1013E000EBD800BF2A488580002516E02849888868
:1013F000FFF78EFC30B1012D04D11D2C01D31D3C13
:1014000009E00CE02348405DA04203D82148405D3C
:10141000241A00E003E0681C85B21C2CE6D200BF51
:10142000681C1B498871601CC8711748B6FBF0F135
:1014300000FB11644FF46160B4FBF0F0401E1449EE
:1014400008704FF46160B4FBF0F100FB11403C21E7
:10145000B0FBF1F01E380E4948704FF46160B4FBE8
:10146000F0F100FB11403C21B0FBF1F201FB120056
:10147000074988700B46DA799979988800F028F83E
:1014800003490872002070BD8051010078030020DC
:10149000A00D0020884A0008002103480188001F91
:1014A000008841EA004070471C28004001460020A7
:1014B000064A12880A40D0B2044A121F12880A4013
:1014C00012B108B1012000E000207047042800405C
:1014D000F0B503460C461546642093FBF0F0C6B207
:1014E000642093FBF0F700FB1730C1B2132E02DD2E
:1014F00001F16400C1B20846CF1701EB977701EB09
:10150000A707BAB2072092FBF0F700FB172082B2C0
:101510005719601EDFF82CC01CF80000384482B256
:10152000CF1701EB9777BF10A1EB87071FB9032CEB
:1015300001DA501E82B2072092FBF0F700FB172061
:10154000C0B2F0BD7C4A00080EB50120FFF7AEFF27
:1015500008B1FFF71FFF0220FFF7A8FFA0B102208C
:10156000FFF7FCFEFFF716FF0A4880780949497823
:10157000084A1278CDE9002102900648C3798279A1
:10158000818805A001F030F80520FFF7E7FE00F0A4
:1015900003F90EBDA00D0020416C61726D205469ED
:1015A0006D653A25642D25642D25642025643A2532
:1015B000643A25640A00000029B1064A12880243F1
:1015C000044B1A8004E0034A12888243014B1A80BC
:1015D00070470000002800401CB501214FF0C050AA
:1015E000FFF71CFE0120FFF711FE0420FFF702F9B0
:1015F00045F2500188422CD0FFF7F3F84FF44070C9
:10160000FFF7A4FE0120FFF79BFE00F0C5F800F0F5
:10161000CDF801210846FFF7CFFF00F0BDF8FFF736
:10162000A5FE134800F0A8F800F0B6F837202A21EC
:1016300011230E22CDE90010012140F2DF7000F0ED
:1016400029F8FFF79DFE45F250010420FFF7E0F86E
:1016500007E000F0ABF801210846FFF7ADFF00F00E
:101660009BF800F007F8FFF795FE00201CBD000076
:1016700048E8010008B503208DF8000000208DF82F
:1016800001008DF8020001208DF803006846FFF785
:1016900065FD08BD2DE9F05F06460F469046994668
:1016A000DDE90AAB002440F2B270864203DB40F66B
:1016B0003300864202DD0120BDE8F09F40F2B275A2
:1016C0000AE02846FFF724FB10B12048044401E05B
:1016D0001F480444681C85B2B542F2DB781EC7B2CD
:1016E000002510E01B48405D40F2A321484304EB75
:1016F000C0143046FFF70CFB18B1012D01D116487C
:101700000444681C85B2BD42ECDBA8F1010040F244
:10171000A321484304EBC014C9EB4910C0EB0920D6
:1017200004EB0014CAEB0A1004EB80045C440121B2
:101730004FF0C050FFF772FD0120FFF767FD204614
:1017400000F00CF800F028F80020B5E70085E20171
:101750008033E101884A00088051010000B502464B
:10176000FFF704FE100C03490880091D0A80FFF7EB
:1017700007FE00BD1828004000B50246FFF7F6FD41
:10178000C2F3034003490880091D0A80FFF7F8FDF2
:1017900000BD00000828004000BF0348008800F09A
:1017A00020000028F9D0704704280040074800882E
:1017B0004FF6F77108400549088000BF03480088CC
:1017C00000F008000028F9D070470000042800400D
:1017D00010B50446621E054B03EBC2029188621EDF
:1017E00053F83200FFF79AF910BD0000B000002056
:1017F0002DE9F04385B0074688461546FFF758FAAD
:10180000002414216846FEF704FDFFF745FE8146DB
:10181000002008E0C10029FA01F1CAB2811C0DF8CC
:101820000120411CC8B20328F4DD7E208DF80000A1
:101830008DF801708DF80650002406E018F80410A9
:10184000E01D0DF80010601CC4B2AC42F6DB0E22A5
:101850000DF101014FF6FF70FEF7EAFF0646F0B208
:101860008DF80F0030128DF810007E208DF81100D9
:1018700011226946022000F08FFE05B0BDE8F0831A
:101880007047000070B5002428E0082C03DBE1B2AB
:10189000164800F017FE1548005D0A2819D1601E91
:1018A0001249085C0D2814D10021104A601C115403
:1018B000154600E06D1CFEF757FC00682978405C77
:1018C00000F0BA000028F5D02846FEF7F5FF002406
:1018D00004E0022001F0D0FB601C84B20349081927
:1018E000022101F053FB0028CFD070BDA0030020DF
:1018F00010B500F001F810BD0CB50020019000906B
:101900003348006840F480303149086000BF3048F7
:10191000006800F4003000900198401C019000988D
:1019200018B90198B0F5A06FF1D12948006800F40A
:10193000003010B10120009001E0002000900098DC
:10194000012843D12348006840F010002149086075
:101950000846006820F0030008600846006840F070
:10196000020008601A484068194948600846406803
:1019700048600846406840F4806048600846406817
:1019800020F47C1048600846406840F4F810486035
:101990000846006840F08070086000BF0C4800688E
:1019A00000F000700028F9D00948406820F00300DA
:1019B000074948600846406840F00200486000BFA0
:1019C0000348406800F00C000828F9D10CBD000065
:1019D000001002400020024010B5FFF769F9C84826
:1019E000807B0B281BD2DFE800F0061A1A1B1A6C4A
:1019F000F1BDDBEFEE00C248007B68B1642001F06E
:101A000061FBBF4A107B516888470320BC4988733B
:101A10000020BC49087002E00020BB49C8706CE19E
:101A2000B74A107B11688847B54A107B116988470F
:101A300000283AD1B248007B01280FDBB048007B78
:101A400004280BDC40F2145001F03CFBAC4A107B44
:101A5000516888470520AA49887326E0A848007B7A
:101A600005280FDBA648007B10280BDC4FF42F70F5
:101A700001F028FBA24A107B516888470520A04945
:101A8000887312E09E48007B11280EDB9C48007B87
:101A900020280ADC4FF4FA7001F014FB984A107BFE
:101AA000516888470520964988739648007803282E
:101AB00006DB934A107B516888470520904988735C
:101AC0001BE14FF4FA7001F0FDFA00208C49087315
:101AD000FFF7EEF80A2001F0F5FA08228B49FF2003
:101AE000FFF786FE642001F0EDFA4FF4806188482C
:101AF000FFF728F84FF480518548FFF723F802F0EC
:101B0000D7FB46F29050FFF7B1FA012081490870E7
:101B100081027F48FFF714F84FF480517C48FFF7AB
:101B20000FF808217C48FFF70DF810217A48FFF7DD
:101B300009F880217848FFF705F802F0A9FB082290
:101B40007249FF20FFF754FE642001F0BBFA002029
:101B50007249087072490880724908700720684904
:101B6000887300BFFFF7A4F86E48007801280FD1F2
:101B700000206C4908706C49087068490870654914
:101B8000087040216448FEF7DDFF06205C49887339
:101B900062480078282802DB092059498873ACE0A4
:101BA000FFF786F86148007801280BD100205F49D3
:101BB00008705C4908705C49087058490870062034
:101BC0004F49887399E06CE025E0FFE7FFF770F874
:101BD00054480078012809D1534800780A2805DBC9
:101BE0000020504908700820454988734FF400616F
:101BF0004F48FEF793FF30B94B480078322802DB9C
:101C000009203F49887345480078282802DB0920CD
:101C10003B49887371E0FFF74BF840213E48FEF7DF
:101C20008FFF00203B49087080213B48FEF788FF6A
:101C3000FFF73EF800203F4908703F4908703F49D0
:101C400008804FF4C8703E49088002F0D9F964203A
:101C500001F038FA02F02CFB4FF4FA70FFF706FAA5
:101C60000020274908730A2088730120354908702D
:101C7000082226491120FFF7BBFD642001F022FA5B
:101C8000082222490920FFF7B3FD642001F01AFA67
:101C900008221E49FF20FFF7ABFD642001F012FA75
:101CA0002BE040211C48FEF74BFF4FF480412648B3
:101CB000FEF734FF2548007850B100202349087012
:101CC0000F4988731049C87020494870087013E0A4
:101CD0001E484078401C1D494870052001F0CCF991
:101CE0001A4840780A2807DB00200549887306490E
:101CF000C87016490870487000BF00BF10BD0000D2
:101D00009400002084000020900000205600002055
:101D1000001001404A000020000C01408500002016
:101D2000880000204E0000204900002052000020C2
:101D30000008014044000020410000204200002033
:101D40004600002086000020001C0140AC0000205E
:101D500010B51048407B20281ADB0E49497B2039FA
:101D6000C8B202F063FA322001F0ACF90949497BAC
:101D70002039C8B201F03CF900200649487301201F
:101D800005490870022001F0DFF8012001F0DCF8BD
:101D900010BD0000940000208600002010B50B4804
:101DA000C07810B102280FD10BE00948007B212830
:101DB00006DA0748007B002802DD02200349C870CC
:101DC00000BFFFF709FE00BF00BF10BD900000205C
:101DD00094000020042808D14FF0E021096941F067
:101DE00004014FF0E022116107E04FF0E0210969A2
:101DF00021F004014FF0E0221161704770470000AC
:101E000010B51348006840F0010011490860084609
:101E10004068104908400E494860084600680E496D
:101E200008400B4908600846006820F480200860DC
:101E30000846406820F4FE0048604FF41F008860A8
:101E4000FFF756FD4FF000600449086010BD000028
:101E5000001002400000FFF8FFFFF6FE08ED00E072
:101E600010B50121880700F0ACF900287ED00121CF
:101E7000880700F097F944480088322806DB0120E3
:101E80004249087000204049088002E000203E4995
:101E900008803F480088322806DB01203D49087051
:101EA00000203B49088002E00020394908803A4878
:101EB0000088322806DB01203849087000203649A6
:101EC000088002E000203449088035480078401C32
:101ED0003349087033480088B0F5FA7F04DB314895
:101EE0000088001F2F4908802F480078401C2E4989
:101EF00008702E480078012813D108460078052183
:101F000090FBF1F201FB120058B940212848FEF77E
:101F10000EFEC0F10100C4B2224640212448FEF763
:101F200013FE2448007801282CD123480078401C57
:101F300021490870087800EBD0714910A0EB4101ED
:101F4000D1B91E490978B9B14FF400511C48FEF7C8
:101F5000EEFDC0F10100C4B222464FF40051184812
:101F6000FEF7F2FD15480078401E00E00AE0134934
:101F700008700020104908701048007810B900203F
:101F80000C49087010BD00004200002044000020F1
:101F90004C0000204E000020500000205200002085
:101FA00049000020460000204B0000204A0000208D
:101FB000000C014053000020540000205500002078
:101FC000001C01407FB505460C4601210846FFF77D
:101FD00025F9ADF80850ADF804400020ADF80A002E
:101FE000ADF8060001A94FF0804000F005F901228C
:101FF0001146900700F0F6F81C208DF80000002034
:102000008DF8010003208DF8020001208DF80300F7
:102010006846FFF7A3F80121880700F0C6F87FBDE6
:1020200010B501210A4800F0CCF880B10121084820
:1020300000F0B8F801200749087007480078401CF4
:102040000549087005480078401C0449087010BD17
:102050000004004040000020840000208500002093
:102060007FB505460C4601210220FFF7D7F8ADF8F1
:102070000850ADF804400020ADF80A00ADF80600A5
:1020800001A90E4800F0B8F8012211460B4800F0F3
:10209000A9F81D208DF8000000208DF80100032014
:1020A0008DF8020001208DF803006846FFF756F80E
:1020B0000121024800F079F87FBD000000040040D3
:1020C00010B50121154800F07CF830B30121134808
:1020D00000F068F84FF480411148FEF71FFD20B969
:1020E00010480088401C0F4908804FF400610E48DA
:1020F000FEF714FD012805D10C480088401C0B494F
:1021000008800AE04FF400610748FEF707FD20B998
:1021100007480088401C0649088010BD00080040A0
:10212000001C014042000020000801404C0000203B
:10213000500000207FB505460C4601210420FFF722
:102140006DF8ADF80850ADF804400020ADF80A0075
:10215000ADF8060001A90E4800F04EF80122114624
:102160000B4800F03FF81E208DF8000000208DF88D
:10217000010003208DF8020001208DF8030068465D
:10218000FEF7ECFF0121024800F00FF87FBD0000D0
:102190000008004010B50121014800F012F810BD00
:1021A000000C0040CA430282704721B1028842F00D
:1021B0000102028004E002884FF6FE731A4002809A
:1021C000704730B50246002000230024158A05EA36
:1021D0000103958905EA010413B10CB1012000E067
:1021E000002030BD1AB183890B43838102E08389CB
:1021F0008B43838170470000002202881D4B984268
:102200000ED01D4B98420BD0B0F1804F08D01B4B25
:10221000984205D01A4B984202D01A4B984204D1EA
:102220004FF68F731A404B881A43174B984207D0CA
:10223000164B984204D04FF6FF431A40CB881A43FE
:1022400002808B8883850B8803850A4B98420BD0CC
:10225000094B984208D00E4B984205D00D4B98423E
:1022600002D00D4B984201D10B7A03860123838261
:1022700070470000002C0140003401400004004081
:1022800000080040000C0040001000400014004016
:1022900000400140004401400048014010B540F2B8
:1022A0002551084800F048F858B12021054800F0B1
:1022B00021F8044800F0FCF8C4B20221204600F0E6
:1022C0007FFE10BD0038014010B540F2255108488E
:1022D00000F032F858B12021054800F00BF804480E
:1022E00000F0E6F8C4B20121204600F069FE10BDFE
:1022F0000044004001F40072B2F5007F00D100BF3D
:10230000CA430280704721B1828942F4005282811F
:1023100004E082894DF6FF731A40828170470246BD
:102320000020B1F5007F00D100BF13880B400BB136
:10233000012000E00020704770B502460024002311
:102340000025002040F66A16B14200D100BFC1F35B
:10235000421501F01F03012606FA03F3012D02D1F5
:102360009689334006E0022D02D1168A334001E0FF
:10237000968A33400C12012606FA04F4168834407B
:1023800013B10CB1012000E0002070BDF0B5034690
:10239000002400260025002040F66A17B94200D12B
:1023A00000BF1846C1F3421401F01F06012707FAC7
:1023B00006F5012C01D10C3004E0022C01D11030C3
:1023C00000E014301AB107682F43076002E0076885
:1023D000AF430760F0BD00002DE9F04786B0054629
:1023E0000E460024A24600BFA1460027B08900B1D6
:1023F00000BF2F462C8A4CF6FF700440F08804433F
:102400002C82AC894EF6F3100440B0883189084321
:10241000718908430443AC81AC8A4FF6FF40044005
:10242000B0890443AC8201A8FEF71EFF1F48874213
:1024300002D1DDF810A001E0DDF80CA0A88900F4BD
:10244000004040B10AEBCA0000EB0A1031684900B5
:10245000B0FBF1F807E00AEBCA0000EB0A103168A4
:102460008900B0FBF1F86420B8FBF0F0040120090A
:10247000642101FB1089A88900F4004040B132209A
:1024800000EBC900B0FBF1F000F00700044308E0E6
:10249000322000EB09106421B0FBF1F000F00F00D6
:1024A00004432C8106B0BDE8F087000000380140ED
:1024B00001468888C0F308007047C1F30802828093
:1024C000704700002DE9F04104460F460E22611CC2
:1024D0004FF6FF70FEF7ACF9064620787E2853D100
:1024E000607C7E2850D16078032826D005DC58B166
:1024F00001280DD0022846D11AE004282CD08428C7
:1025000039D085283FD13AE02046FEF73DFB3AE03E
:1025100040211E48FEF716FB642000F0D3FD402149
:102520001A48FEF70DFB04F10D00FEF727FB2AE029
:1025300004F10D00FEF71CFB25E0002509E0022058
:1025400000F09AFD05221249012000F025F8681CD0
:10255000C5B2012DF3DD16E0002509E0022000F0F0
:102560008BFD05220B49012000F016F8681CC5B24E
:10257000012DF3DD07E0A01CFEF7F2FA03E0A01C3A
:10258000FEF7E8FA00BF00BFBDE8F081000C014093
:102590005E000020640000202DE9F04104460D4655
:1025A00016460027B846012C02D1DFF8308003E040
:1025B000022C01D1DFF828800CE038467F1C295C12
:1025C0004046FFF77AFF00BF40214046FFF7A7FED5
:1025D0000028F9D0B742F0DDBDE8F08100440040AA
:1025E0000038014000BFFEE70FB4054B10B503A94A
:1025F000044A029800F0DAF810BC5DF814FB000001
:10260000153100087C03002002E008C8121F08C131
:10261000002AFAD170477047002001E001C1121F63
:10262000002AFBD1704700002DE9FF5F82B0002136
:10263000DDE90430020DDDF840B0034318D044F664
:102640001050A2F2FF3242431514119801281FD0F6
:10265000A5EB0B00401C5FEA000A4FF000064E4F4E
:10266000DFF83891B046504615D5CAF1000413E0A2
:10267000119801244AA3012801D16FEA0B010298A5
:10268000119AC0E90031C0E9024206B0BDE8F09FEE
:10269000CBF10000DFE704460021404A491842EB35
:1026A0000450CDE9001012E0E00707D032463B4667
:1026B00040464946FDF7A1FF8046894632463B46E3
:1026C00010461946FDF799FF06460F466410002C88
:1026D000EAD1DDE90401DDE90023BAF1000F06DAF1
:1026E000FDF78BFF42464B46FDF787FF05E0FDF700
:1026F00050FE42464B46FDF74CFE04460E46002275
:10270000284BFEF705F803D84FF0FF30014607E0ED
:102710000022254B20463146FDF794FDFDF7DFFFF3
:10272000102409E0002C0ADB0A220023FDF7B6FE84
:10273000039B30321A55641E50EA0102F2D1641C28
:10274000039AC4F111031444119A012A03D00122FF
:1027500008430DD10AE0084304D000204FF0110BCC
:10276000119072E7A3EB0B056D1E0DE05B4504DDD8
:102770004FF0000205F1010504E003DA4FF000021A
:10278000A5F10105002AECD002981199C0E90231A7
:10279000C0E9004579E70000000014400000F03F68
:1027A000300000000000F0430000E03F2DE9FF4F43
:1027B00095B09B468946064600250FE2252877D12D
:1027C00000242746F84A0121059400E0044316F846
:1027D000013F203B01FA03F01042F7D130782A285C
:1027E00011D06FF02F033078A0F13002092A16D8EB
:1027F000059A44F0020402EB820203EB4202104409
:10280000761C0590EFE759F8042B0592002A03DAAD
:10281000504244F40054059044F00204761C307891
:102820002E2816D116F8010F44F004042A280DD0E2
:102830006FF02F023078A0F13003092B09D807EB95
:10284000870302EB4303C718761CF3E759F8047BB0
:10285000761C30786C280FD006DC4C2817D06828FE
:102860000DD06A2814D104E0742810D07A280FD132
:102870000DE044F400140AE044F4801401E044F450
:1028800040147278824202D104F58014761C761CC2
:10289000307866280BD013DC582877D009DC002864
:1028A00075D04528F6D04628F4D047281AD19DE1A6
:1028B00018E0632835D0642879D0652812D195E1D5
:1028C000702873D008DC6728F1D069286FD06E2893
:1028D0000DD06F2806D1B5E073282CD0752875D09F
:1028E000782874D05A46179990476D1C75E1C4F347
:1028F0000250022809D003280DD0D9F8001004286E
:102900000DD00D6009F1040967E1D9F80010EA174C
:10291000C1E90052F6E7D9F800100D80F2E70D701A
:10292000F0E719F8041B8DF8001000208DF8010065
:10293000EA46012003E059F804AB4FF0FF3061078D
:102940004FF0000102D40DE008F101018846B942C0
:102950000FDA8045F8DB1AF808100029F4D108E0F6
:1029600008F1010188468142FADB1AF808100029B3
:10297000F6D105985B46A0EB080721463846179A22
:1029800000F094FA284400EB080507E04DE029E147
:102990000DE01AF8010B5A4617999047B8F1010853
:1029A000F7D25B4621463846179A13E142E00A22E5
:1029B0000092C4F302524FF0000A022A08D059F8DC
:1029C00004CB032A4FEAEC710AD00DE029E02AE09B
:1029D00009F1070121F00702F2E802C1914609E07E
:1029E0000FFA8CFC4FEAEC71042A03D14FFA8CFCED
:1029F0004FEAEC71002907DA0A460021DCF1000CED
:102A000061EB02012D2202E0220504D52B228DF874
:102A10000420012203E0E20701D02022F7E79046DC
:102A200059E00A2102E010220DE010214FF0000AC7
:102A300000910BE010224FF0000A44F00404082734
:102A4000009203E008224FF0000A0092C4F3025201
:102A5000022A05D059F804CB0021032A08D009E046
:102A600009F1070121F00702F2E802C1914605E0F1
:102A70001FFA8CFC042A01D10CF0FF0C4FF0000867
:102A8000220728D5702806D0009B83F0100353EA54
:102A90000A0305D00EE040228DF80420012208E050
:102AA0005CEA010206D030228DF804208DF8050082
:102AB00002229046009B83F0080353EA0A030AD1DE
:102AC0005CEA010201D1620705D530228DF80420AD
:102AD0004FF001087F1E582804D034A003900EA8A0
:102AE00002900DE036A0F9E753466046009AFDF7E4
:102AF000D5FC84460398825C0298401E02900270C6
:102B00005CEA0100F0D1029806A9081A00F1200A37
:102B1000600702D524F4803400E00127574502DD28
:102B2000A7EB0A0000E0002000EB0A0100900598E6
:102B30004144401A0590E00306D45B462146179AAB
:102B4000059800F0B3F90544002706E001A85A46AD
:102B5000C05D179990476D1C7F1C4745F6DBE0036D
:102B60000CD55B462146179A059800F09FF905445D
:102B700004E030205A46179990476D1C0099481E72
:102B800000900029F5DC08E0029802995A46007886
:102B9000491C0291179990476D1CBAF10001AAF1E6
:102BA000010AF1DC65E1000009280100303132330F
:102BB0003435363738396162636465660000000079
:102BC0003031323334353637383941424344454663
:102BD0000000000000F058F90544761C3078002809
:102BE0007FF4ECAD19B02846BDE8F08F620700D441
:102BF000062709F1070222F0070CFCE80223E14650
:102C000003F000485FEA080C02D00FF2702C0DE0D0
:102C10005FEA045C02D50FF2682C07E05FEAC47C2F
:102C200002D00FF2602C01E0AFF2700C4FF0FF38D1
:102C300023F00043CDF850C065280CD006DC4528B1
:102C400009D046281DD047283DD13DE0662818D040
:102C500067287ED138E00021112F01DB112000E030
:102C6000781CCDE9000106A90EA8FFF7DDFCDDE91F
:102C70000F010E9A03910021009207F1010A0491BD
:102C80004DE04FF000400097CDE9011006A90EA8D5
:102C9000FFF7CAFCDDE90F0203920E9B1199002297
:102CA000DDF80CA00093049211B9791C00EB010A25
:102CB000B7EB0A0004D4C0F1FF3007F1010A049019
:102CC000AAEB0700019044E0012F00DA0127002160
:102CD000112F01DD112000E03846CDE9000106A9E1
:102CE0000EA8FFF7A1FCDDE90F010E9A0391002168
:102CF00004910092BA4621070CD40399514500DA99
:102D00008A46BAF1010F05DD009AAAF10101515C72
:102D1000302908D0B84202DA10F1040F06DA012196
:102D2000CDE9011015E0AAF10101E9E7002805DC71
:102D3000049901440491AAEB000102E0411C5145B1
:102D400000DD8A460499401A401C01904FF0004073
:102D50000290200704D40198504501DBCDF804808F
:102D600000208DF84F0002980DF14F07B0F1004F91
:102D700025D02B200E9002984FF0020800280CDA84
:102D8000404202902D200E9007E00A210298FDF7A4
:102D90006FFB3031029007F8011DB8F10001A8F176
:102DA0000108F2DC02980028EFD1791E0E98087015
:102DB000307800F0200040F0450007F8020D12A81E
:102DC000C01B00F107081498007800B1012000EB47
:102DD0000A01019801EBE07105984144401A401E38
:102DE0000590E00306D45B462146179A059800F04B
:102DF0005DF805441498007818B15A461799904721
:102E00006D1CE00324D55B462146179A059800F017
:102E10004DF805441CE00498002807DBDDE90301B8
:102E2000884203DD0098405C179901E01799302033
:102E30005A469047049805F10105401C04900198FA
:102E4000401E019004D12E205A46179990476D1CC0
:102E5000BAF10001AAF1010ADDDC05E017F8010B67
:102E60005A46179990476D1CB8F10001A8F1010866
:102E7000F4DC5B462146179A0598ABE62D0000006E
:102E80002B000000200000002DE9F0410446002541
:102E90001E461746880404D405E039462020B04772
:102EA0006D1C641EF9D52846BDE8F0812DE9F0417E
:102EB000044600251E469046C80301D5302700E091
:102EC0002027880404D505E041463846B0476D1CEC
:102ED000641EF9D52846BDE8F0810146C8688860BF
:102EE0000020704770B504460D46204600F004F9F6
:102EF00028B12946204600F0F5F8002070BD0520D5
:102F0000FCE7034609B90E20704712B1501E10406D
:102F100008B10920F8E71960501E988000209860D9
:102F2000D86000BFF0E770B504460D46204600F0BB
:102F3000E3F8A188884205D82946204600F0E1F848
:102F4000002070BD0420FCE700B50346022B04D12D
:102F50000C48FFF7C2FF02460CE0012B04D10A48DF
:102F6000FFF7BBFF024605E0032B03D10548FFF73F
:102F7000B4FF024600BF0AB1104600BD00BF0020EA
:102F8000FBE70000900300208003002070B504469A
:102F90000D460CB90E2070BD022D04D12146064805
:102FA000FFF7A0FFF7E7012D04D121460348FFF703
:102FB00099FFF0E70E20EEE7900300208003002049
:102FC00070B506460C46022C05D131460648FFF77F
:102FD000AAFF054606E0012C04D131460348FFF75D
:102FE000A2FF0546284670BD900300208003002004
:102FF00010B50446012C01DB382C01DD002010BD8A
:10300000621E054B03EBC2029188621E53F8320028
:10301000FDF796FD0120F2E7B002002008B500217F
:10302000009102E00099491C009100998142F9D376
:1030300008BD000010B56FF00400FEF7CBFE0A4893
:1030400000680A49B0FBF1F00949087008460078A9
:1030500000EB4001C1EBC0104FF6FF7101EAC00068
:103060000449088010BD00002000002000127A00F2
:1030700060030020620300200146114A12884A437F
:103080004FF0E0235A6100229A611A46126942F019
:1030900001021A6100BF4FF0E022106900F0010246
:1030A0001AB100F48032002AF5D04FF0E022126904
:1030B00022F001024FF0E0231A6100229A6170476A
:1030C00062030020002107E042F2107100BF0A1ED7
:1030D000A1F1010399B2FAD1021EA0F1010398B245
:1030E000F2D17047826883881A4003689A5C0A703C
:1030F0008268521C8260704701468A68C868801ADC
:103100007047C26883881A4003689954C268521C89
:10311000C260704770B504460D46E1B20548FFF73E
:10312000CCF900BF40210348FFF7F9F80028F9D097
:10313000204670BD0038014003B58DB000200C90D2
:103140000E98001D0E900D98401E0D900E98006870
:10315000FBA10B90FDF768F808BB00200C9019E06C
:10316000FDF7A6FDFAA00C99FFF73EFAFE480068AD
:103170000B90DDE90B1088474FF47A70FFF7A2FF40
:10318000F94840680B90DDE90B1088470C98401C0B
:10319000C0B20C900C982028E2DD00F0B7BE0E986B
:1031A0000068F2A10B90FDF73FF800BB0E98406855
:1031B0000A9001F043F901460B90EFA0FFF714FAD3
:1031C0000E9840680A9001F039F9C0B20B9001F0F6
:1031D0002DF84FF4FA70FFF74FFF0E9840680A90F1
:1031E00001F02CF9C0B20B90FFF702FFD5E70E9863
:1031F0000068E7A10B90FDF717F8C8B900200B9005
:1032000012E0FDF755FDDCA00B99FFF7EDF90B98E7
:1032100001F00CF86420FFF755FF0B98FFF7E8FE6C
:103220000B98401CC0B20B900B981628E9DDB4E750
:103230000E980068DAA10B90FCF7F6FF98B90E988B
:1032400040680A9001F0FAF801460B90D7A0FFF70A
:10325000CBF90E9840680A9001F0F0F8C0B20B90DC
:10326000FFF7C6FE99E70E980068D6A10B90FCF711
:10327000DBFF68B90E9840680A9001F0DFF8C0B231
:103280000B90B94800680A90DDE90A10884784E786
:103290000E980068CCA10B90FCF7C6FF68B90E9899
:1032A00040680A9001F0CAF8C0B20B90AE4840687E
:1032B0000A90DDE90A1088476FE70E980068C4A1FC
:1032C0000B90FCF7B1FF50B94FF48061C448FDF793
:1032D00039FC4FF40061C248FDF732FC5DE70E98FF
:1032E0000068C0A10B90FCF79FFF18B9C0A0FFF7C2
:1032F0007BF952E70E980068C2A10B90FCF794FF8F
:1033000088B90E9840680A9001F098F801460B9031
:10331000BFA0FFF769F90E9840680B9001F08EF896
:103320009149087339E70E980068BDA10B90FCF72E
:103330007BFF38BBBDA0FFF757F90E9840680A9095
:1033400001F07CF8C0B20B90874800690A90DDE973
:103350000A10884718B9B9A0FFF746F91DE70E987B
:1033600040680A9001F06AF8C0B20B907E4800698C
:103370000A90DDE90A108847012888D1B4A0FFF738
:1033800033F90AE70E980068B6A10B90FCF74CFFE2
:1033900020BBB8A0FFF728F900200B9019E0FDF73B
:1033A00087FC4FF48041B848FDF7B8FB18B9B7A0C7
:1033B000FFF71AF909E04FF48041B348FDF7AEFB7F
:1033C000012802D1B7A0FFF70FF90B98401C80B27B
:1033D0000B900B98B0F5FA7FE1DDDEE60E98006801
:1033E000B6A10B90FCF720FF10BBB8A0FFF7FCF8CC
:1033F00000200B9017E0FDF75BFC2021B848FDF79B
:103400008DFB18B9B7A0FFF7EFF808E02021B4480A
:10341000FDF784FB012802D1B8A0FFF7E5F80B986F
:10342000401C80B20B900B98B0F5FA7FE3DDB4E658
:103430000E980068B7A10B90FCF7F6FE20BBB9A070
:10344000FFF7D2F800200B9019E0FDF731FC4FF4A4
:103450000061B948FDF762FB18B9B8A0FFF7C4F8DE
:1034600009E04FF40061B448FDF758FB012802D190
:10347000B8A0FFF7B9F80B98401C80B20B900B98DE
:10348000B0F5FA7FE1DD88E60E980068B7A10B90F1
:10349000FCF7CAFEF0BB0E9840680A9000F0CEFF21
:1034A000C0B20B90304800680A90DDE90A108847E6
:1034B00034E0FDF7FDFB0E9840680A9000F0BEFF77
:1034C000C0B20B90284800690A90DDE90A108847CD
:1034D00080B90E9840680A9000F0B0FFC0B20B901F
:1034E000214840680A90DDE90A10884753A0FFF799
:1034F0007BF813E00E9840680A9000F09FFFC0B27E
:103500000B90194800690A90DDE90A1088470128E4
:1035100004D100E003E09AA0FFF766F8C9E70E982F
:1035200000689BA10B90FCF77FFE38B90E984068AD
:103530000A9000F083FF01460B902FE13CE1000070
:10354000434845434B5F414C4C5F4D4F544F000047
:103550003E206F70656E206D6F746F206E756D20EC
:1035600025640D0A00000000940000204F50454ED5
:103570005F4C4F434B0000003E206F70656E206C27
:103580006F636B206E756D2025640D0A00000000CE
:10359000434845434B5F414C4C5F4C4F434B00000D
:1035A000434C4F434B5F4C4F434B00003E20636CFA
:1035B0006F7365206C6F636B206E756D2025640DD5
:1035C0000A00000052554E00434C4F534500000086
:1035D0006D6F746F725F7475726E5F6F66660000F8
:1035E0000010014068656C6C6F5F776F726C6400EF
:1035F0003E2068656C6C6F2C776F726C64210D0ACD
:1036000000000000544553545F4E554D000000002B
:103610003E2074657374206E756D2025640D0A005C
:10362000464545544241434B000000003E2046457C
:1036300045544241434B0D0A000000003E2067659F
:103640007420746865207369676E616C0D0A0000F0
:103650003E2068617665206E6F207369676E616CCD
:103660000D0A0000434845434B5F53454E534F52AC
:103670005F4100003E2073656E736F7220412074BD
:10368000657374210D0A0000001C01403E20736523
:103690006E736F72204120657175616C20300D0A68
:1036A000000000003E2073656E736F72204120653C
:1036B0007175616C20310D0A0000000043484543DC
:1036C0004B5F53454E534F525F4200003E2073659F
:1036D0006E736F7220422074657374210D0A0000AE
:1036E000001401403E2073656E736F7220422065A6
:1036F0007175616C20300D0A000000003E2073657A
:103700006E736F72204220657175616C20310D0AF5
:1037100000000000434845434B5F53454E534F5212
:103720005F4300003E2073656E736F722043207408
:10373000657374210D0A0000000801403E20736586
:103740006E736F72204320657175616C20300D0AB5
:10375000000000003E2073656E736F722043206589
:103760007175616C20310D0A00000000434845432B
:103770004B5F4D4F544F5F5349474E414C00000043
:103780003E206E6F207369676E616C0D0A00000049
:1037900052554E5F4C45465400000000F8A0FEF71D
:1037A00023FF00F075FD0E9840680A9000F046FE79
:1037B0000B90FDF75BFCA9E30E980068F4A10B9059
:1037C000FCF732FDA0B90E9840680A9000F036FE72
:1037D00001460B90F1A0FEF707FF00F069FD0E987F
:1037E00040680A9000F02AFE0B90FDF73FFC8DE345
:1037F0000E980068EEA10B90FCF716FD10B900F0D2
:10380000FFFB83E30E980068ECA10B90FCF70CFD26
:1038100058B98021ED48FDF795F9C820FFF752FC13
:103820008021EA48FDF78CF970E30E980068E8A162
:103830000B90FCF7F9FC58B9E84840780B90E74842
:1038400000780A900146E6A00B9AFEF7CDFE5DE3F4
:103850000E980068EDA10B90FCF7E6FC88B9EDA08E
:10386000FEF7C2FE00BFEE48006800F4E060ED49DC
:103870000843001DEA490860BFF34F8F00BF00BF37
:10388000FEE70E980068E8A10B90FCF7CDFC40B96C
:10389000E8A0FEF7A9FE0522EA490120FEF77CFE1A
:1038A00034E30E980068E8A10B90FCF7BDFC40B92A
:1038B000E8A0FEF799FE0522EA490120FEF76CFE1A
:1038C00024E30E980068E8A10B90FCF7ADFCD8B992
:1038D000E7A0FEF789FE0E9840680B9000F0AEFD61
:1038E000E749E84A12788854E6480078401CE549E0
:1038F0000870E3480978405C02460B90E148017883
:10390000E1A0FEF771FE01E30E980068E4A10B90C0
:10391000FCF78AFC002877D1E3A0FEF765FE1421AE
:1039200007A8FCF776FCE34903C9CDE904010C982C
:10393000401CC0B20C90D2490C98085C0246029020
:10394000D1A00C99FEF750FE7E208DF81C000E9839
:103950004068029000F072FDC0B28DF81D00FDF7C6
:103960009BFD0390002002900CE00298C100039898
:10397000C840C1B207AA0298801C11540298401C8A
:10398000C0B2029002980328EFDD08208DF82200D3
:1039900000200C9009E004A90C98095CC01D07AA3E
:1039A00011540C98401CC0B20C900C980828F2D30B
:1039B0000E988068029000F041FDC0B28DF8290099
:1039C0000D220DF11D014FF6FF70FCF731FF06903F
:1039D0000698C0B28DF82A00069800128DF82B00C8
:1039E0009DF82B0002909DF82A0001900146B2A09C
:1039F000029AFEF7F9FD00208DF82C007E208DF84C
:103A00002D00002002900CE00FE007A90298085C4E
:103A100001460190B7A0FEF7E7FD0298401CC0B236
:103A2000029002981128F0DD70E20E980068B3A1B0
:103A30000B90FCF7F9FB18B9B5A0FEF7D5FD65E2D0
:103A40000E980068B8A10B90FCF7EEFBF8B9BBA08C
:103A5000FEF7CAFD00200B9015E01021BD48FDF7D0
:103A60005DF8012803D1BCA0FEF7BEFD07E01021E0
:103A7000B848FDF753F810B9BCA0FEF7B5FD0B9898
:103A8000401CC0B20B900B986428E6DD3EE20E9815
:103A90000068BBA10B90FCF7C7FBE0BB00200B90BC
:103AA000142106A8FCF7B5FBBAA103C9CDE90301AF
:103AB000FDF7F2FC0290002001900CE00198C1009B
:103AC0000298C840C1B206AA0198801C11540198FE
:103AD000401CC0B2019001980328EFDD7E208DF8D4
:103AE000180009208DF8190012208DF81E00002002
:103AF0000B9009E003A90B98095CC01D06AA11549C
:103B00000B98401CC0B20B900B981228F2D30E22D7
:103B10000DF1190100E023E04FF6FF70FCF788FE7D
:103B200005900598C0B28DF82700059800128DF811
:103B300028007E208DF82900002001900CE006A9C5
:103B40000198085C0246009094A00199FEF74CFD94
:103B50000198401CC0B2019001981128EFDDD5E119
:103B60000E98006894A10B90FCF75EFB38B91B48D7
:103B7000807801460B9092A0FEF736FDC6E12BE15E
:103B80003E2072756E206C6566742025640D0A00F7
:103B900052554E5F52494748540000003E2072750E
:103BA0006E2072696768742025640D0A00000000A9
:103BB00052554E5F4241434B00000000434845438D
:103BC0004B5F4C4F434B5F4F50454E00000C014044
:103BD0004745545F54494D4500000000A00D0020AA
:103BE0003E2063616C656E6461722E686F75722031
:103BF0003D2025640A63616C656E6461722E6D6997
:103C00006E203D2025640D0A0000000052455354EB
:103C1000415254003E20726573746172740D0A0043
:103C20000CED00E00000FA0547554E5F4F50454E41
:103C3000000000003E2067756E206F70656E0D0AF3
:103C4000000000005E00002047554E5F434C4F537C
:103C5000450000003E2067756E20636C6F73650D34
:103C60000A00000064000020415252415900000047
:103C70003E20617272617920746573740D0A0000D0
:103C80007B000020150000203E20675F617272619A
:103C9000795F4D4C5B25645D203D2025640D0A0055
:103CA0004745545F435243003E206765742063726A
:103CB000630D0A00684400083E207265706F7274DC
:103CC0005F646174615B31345D203D203078253064
:103CD00032780A2020202020207265706F72745F75
:103CE000646174615B31355D203D20307825303270
:103CF000780D0A00202530327820000073656E644C
:103D00005F72657475726E5F636F646500000000BA
:103D10003E2073656E642072657475726E20636FE9
:103D200064650D0A00000000434845434B5F52455F
:103D3000445F5349474E414C000000003E20434839
:103D400045434B5F5245445F5349474E414C0D0A32
:103D500000000000001401403E207369676E616C32
:103D600020657175616C20310D0A00003E20736979
:103D7000676E616C20657175616C20300D0A000002
:103D800053454E445F46494E4953485F434F44456F
:103D90000000000001020304050607083E207265CA
:103DA000706F72745F646174615B25645D203D2097
:103DB00025640D0A000000004745545F5345430049
:103DC0003E2063616C656E6461722E736563203D95
:103DD0002025640D0A0000000E9800684CA10B908D
:103DE000FCF722FA28BB51A0FEF7FEFB01200B9046
:103DF0001CE0FCF75DFF564800680A90DDE90A10F8
:103E00008847534800690A90DDE90A10884748B995
:103E10004F4840680A90DDE90A1088470B98401C1B
:103E2000C0B20B900B98202800DD00E0E1E700BF56
:103E30006CE00E98006847A10B90FCF7F5F990BB79
:103E40004BA0FEF7D1FB0E9840680A9000F0F6FAFE
:103E5000C0B20B903E4800680A90DDE90A1088471E
:103E600022E0FCF725FF0E9840680A9000F0E6FA81
:103E7000C0B20B90364800690A90DDE90A10884705
:103E800090B94FF4FA70FFF71DF90E9840680A9048
:103E900000F0D4FAC0B20B902D4840680A90DDE9DA
:103EA0000A10884701E001E0DBE72FE00E98006888
:103EB00032A10B90FCF7B8F9A0B912E0FCF7F8FEBC
:103EC00020213248FCF72AFE10B931A0FEF78CFB06
:103ED00020212E48FCF722FE012802D12FA0FEF758
:103EE00083FBEBE70E9800682FA10B90FCF79CF981
:103EF00060B10E9800682FA10B90FCF795F928B1DE
:103F00000E9800682EA10B90FCF78EF90FB000BD43
:103F1000544553545F414C4C5F4D4F544F5F4F4E8F
:103F2000455F42595F4F4E45000000003E207465DA
:103F3000737420616C6C20746865206665657462BA
:103F400061636B207369676E616C0D0A000000008D
:103F500094000020544553545F5349474E414C5FF1
:103F60004D4F544F5F4F4E455F42595F4F4E450096
:103F70003E20746573740D0A0000000054455354CC
:103F80005F53454E534F525F420000000014014002
:103F90003E20657175616C20300D0A003E20657110
:103FA00075616C20310D0A0053454E445F48415203
:103FB0004400000053454E445F4F5554000000003C
:103FC00053454E445F4F55545F46494E4953480050
:103FD00070B50446012C01DB202C01DD002070BDF2
:103FE000621E064B03EBC2029188621E53F8320038
:103FF000FCF794FD05462846F1E70000B0010020DB
:1040000010B500244FF480611A48FCF79BFD4FF473
:1040100080511848FCF796FD00F03AF90020164947
:10402000088000BF1FE0641CFCF742FE4FF41670CE
:10403000FEF7F4FF08211148FCF784FD10210F481A
:10404000FCF780FD4FF41670FEF7E8FF08210B48DF
:10405000FCF776FD10210948FCF772FD4CF2503058
:10406000844200D303E0044800881428DBDD00BF4D
:10407000012010BD0010014042000020000C014052
:1040800010B5FDF787F914480078062813DC1248AC
:10409000007802280FDB4FF480711048FCF750FDC8
:1040A0004FF400710D48FCF74BFD4FF400410C48F4
:1040B000FCF746FD0EE04FF480710848FCF742FD26
:1040C0004FF400710548FCF73DFD4FF400410448F2
:1040D000FCF738FD10BD0000A00D0020000C0140D1
:1040E000002001403048FCF7CFFBFEF7A3FF4FF460
:1040F000A060FDF76BF84FF4E13000F0E9F84FF401
:10410000E13000F049F9FCF747FE41F61F414FF45A
:104110007A70FDF757FF41F61F414AF6C870FDF768
:104120009FFF41F61F410520FEF704F800F0A8F8B4
:1041300080211E48FCF704FD4FF400511C48FCF799
:10414000FFFCFDF749FAFFF75BFF1AA0FEF74CFAF8
:104150004FF480610620FCF7AFFD012422E0012C22
:1041600010D100246420FEF7ADFF08221649092073
:10417000FDF73EFB6420FEF7A5FF0822124911203F
:10418000FDF736FBFCF794FDFDF77CFBFCF720FD0B
:10419000FDF7DEFDFDF702FEFFF772FF00F016F8F7
:1041A00000F05AF8DBE7000008000020000C014096
:1041B000001C01403E2073797374656D2073746137
:1041C0007274210D0A0000005600002010B5012075
:1041D000FCF7BCFD134908700846007800B3084698
:1041E000007801281AD100200F49087011E0FCF76F
:1041F0005FFD0D48007800F019F8C820FEF73CFF7D
:1042000009480078FEF7F4FE07480078401C06498C
:104210000870054800781628E9DD00E000BF00BFFF
:1042200010BD0000720000207300002010B504468D
:10423000012C01DB382C01DD002010BD621E054B76
:1042400003EBC2029188621E53F83200FCF77AFC3D
:104250000120F2E7B002002010B50748007850B105
:104260000020054908706420FEF72CFF082203494E
:10427000FF20FDF7BDFA10BD4000002056000020D1
:1042800010B502210148FCF75DFC10BD001801408B
:1042900010B501210448FCF753FC4FF400610348BA
:1042A000FCF74EFC10BD000000140140001001405E
:1042B00010B501210448FCF745FC4FF400610348A8
:1042C000FCF740FC10BD000000140140001001404C
:1042D00010B586B00446012144F20400FCF7AEFF9D
:1042E0004FF40070ADF8140003208DF8160018206C
:1042F0008DF8170005A92248FCF73DFB4FF48060BC
:10430000ADF8140004208DF8170005A91C48FCF72F
:1043100032FB25208DF8000003208DF801008DF878
:10432000020001208DF803006846FCF717FF019496
:104330000020ADF80800ADF80A00ADF80C00ADF8AB
:1043400010000C20ADF80E0001A90E48FEF744F84D
:10435000012240F225510B48FEF718F801210948C7
:10436000FDF7D1FF4FF4806207490848FEF7C9FD09
:104370004FF4806206490748FEF7C3FD06B010BD42
:104380000008014000380140A005002090030020F3
:10439000A00900208003002010B586B0044601214A
:1043A0000420FCF74BFF01214804FCF737FF0420F1
:1043B000ADF8140003208DF8160018208DF81700B2
:1043C00005A91C48FCF7D7FA0820ADF81400042012
:1043D0008DF8170005A91748FCF7CDFA26208DF8AF
:1043E000000003208DF801008DF8020001208DF8F7
:1043F00003006846FCF7B2FE01940020ADF8080007
:10440000ADF80A00ADF80C00ADF810000C20ADF8C6
:104410000E0001A90848FDF7DFFF012240F22551F7
:104420000548FDF7B3FF01210348FDF76CFF06B017
:1044300010BD0000000801400044004070B5044673
:10444000002574B106E02078303805EB850100EBDB
:104450004105641CFBF788FE00682178405C202839
:10446000F1D0284670BD00000102030405060000DB
:1044700000002110422063308440A550C660E770E0
:10448000088129914AA16BB18CC1ADD1CEE1EFF188
:104490003112100273325222B5529442F772D66230
:1044A000399318837BB35AA3BDD39CC3FFF3DEE3D8
:1044B0006224433420040114E664C774A444855480
:1044C0006AA54BB528850995EEE5CFF5ACC58DD528
:1044D0005336722611163006D776F6669556B446D0
:1044E0005BB77AA719973887DFF7FEE79DD7BCC778
:1044F000C448E5588668A778400861180228233820
:10450000CCC9EDD98EE9AFF9488969990AA92BB9C7
:10451000F55AD44AB77A966A711A500A333A122A6F
:10452000FDDBDCCBBFFB9EEB799B588B3BBB1AAB17
:10453000A66C877CE44CC55C222C033C600C411CBF
:10454000AEED8FFDECCDCDDD2AAD0BBD688D499D67
:10455000977EB66ED55EF44E133E322E511E700E0F
:104560009FFFBEEFDDDFFCCF1BBF3AAF599F788FB7
:104570008891A981CAB1EBA10CD12DC14EF16FE197
:104580008010A100C230E3200450254046706760CF
:10459000B9839893FBA3DAB33DC31CD37FE35EF3E7
:1045A000B1029012F322D23235421452776256721F
:1045B000EAB5CBA5A89589856EF54FE52CD50DC537
:1045C000E234C324A014810466744764245405446F
:1045D000DBA7FAB79987B8975FE77EF71DC73CD787
:1045E000D326F2369106B0165766767615463456BF
:1045F0004CD96DC90EF92FE9C899E9898AB9ABA9D7
:104600004458654806782768C018E1088238A3280E
:104610007DCB5CDB3FEB1EFBF98BD89BBBAB9ABB26
:10462000754A545A376A167AF10AD01AB32A923A5E
:104630002EFD0FED6CDD4DCDAABD8BADE89DC98D76
:10464000267C076C645C454CA23C832CE01CC10CAE
:104650001FEF3EFF5DCF7CDF9BAFBABFD98FF89FC6
:10466000176E367E554E745E932EB23ED10EF01EFE
:1046700000000000963007772C610EEEBA510999C0
:1046800019C46D078FF46A7035A563E9A395649E1C
:104690003288DB0EA4B8DC791EE9D5E088D9D29740
:1046A0002B4CB609BD7CB17E072DB8E7911DBF909C
:1046B0006410B71DF220B06A4871B9F3DE41BE84C0
:1046C0007DD4DA1AEBE4DD6D51B5D4F4C785D3831C
:1046D00056986C13C0A86B647AF962FDECC9658AC0
:1046E0004F5C0114D96C0663633D0FFAF50D088D1C
:1046F000C8206E3B5E10694CE44160D5727167A2C0
:10470000D1E4033C47D4044BFD850DD26BB50AA51B
:10471000FAA8B5356C98B242D6C9BBDB40F9BCAC3F
:10472000E36CD832755CDF45CF0DD6DC593DD1AB9B
:10473000AC30D9263A00DE518051D7C81661D0BFBF
:10474000B5F4B42123C4B3569995BACF0FA5BDB81B
:104750009EB802280888055FB2D90CC624E90BB1BF
:10476000877C6F2F114C6858AB1D61C13D2D66B61B
:104770009041DC760671DB01BC20D2982A10D5EF7F
:104780008985B1711FB5B606A5E4BF9F33D4B8E8DB
:10479000A2C9077834F9000F8EA8099618980EE17F
:1047A000BB0D6A7F2D3D6D08976C6491015C63E6DB
:1047B000F4516B6B62616C1CD83065854E0062F2FF
:1047C000ED95066C7BA5011BC1F4088257C40FF55B
:1047D000C6D9B06550E9B712EAB8BE8B7C88B9FC7F
:1047E000DF1DDD62492DDA15F37CD38C654CD4FBDB
:1047F0005861B24DCE51B53A7400BCA3E230BBD47F
:1048000041A5DF4AD795D83D6DC4D1A4FBF4D6D3DA
:104810006AE96943FCD96E34468867ADD0B860DA7E
:10482000732D0444E51D03335F4C0AAAC97C0DDDDA
:104830003C710550AA41022710100BBE86200CC9FE
:1048400025B56857B3856F2009D466B99FE461CE5A
:104850000EF9DE5E98C9D9292298D0B0B4A8D7C77E
:10486000173DB359810DB42E3B5CBDB7AD6CBAC0DA
:104870002083B8EDB6B3BF9A0CE2B6039AD2B174F6
:104880003947D5EAAF77D29D1526DB048316DC7352
:10489000120B63E3843B64943E6A6D0DA85A6A7AF6
:1048A0000BCF0EE49DFF099327AE000AB19E077D52
:1048B00044930FF0D2A3088768F2011EFEC2066976
:1048C0005D5762F7CB67658071366C19E7066B6ED2
:1048D000761BD4FEE02BD3895A7ADA10CC4ADD67F6
:1048E0006FDFB9F9F9EFBE8E43BEB717D58EB06052
:1048F000E8A3D6D67E93D1A1C4C2D83852F2DF4FF6
:10490000F167BBD16757BCA6DD06B53F4B36B24851
:10491000DA2B0DD84C1B0AAFF64A0336607A0441F5
:10492000C3EF60DF55DF67A8EF8E6E3179BE694651
:104930008CB361CB1A8366BCA0D26F2536E2685275
:1049400095770CCC03470BBBB91602222F260555D1
:10495000BE3BBAC5280BBDB2925AB42B046AB35CF5
:10496000A7FFD7C231CFD0B58B9ED92C1DAEDE5B51
:10497000B0C2649B26F263EC9CA36A750A936D0235
:10498000A906099C3F360EEB856707721357000591
:10499000824ABF95147AB8E2AE2BB17B381BB60CB5
:1049A0009B8ED2920DBED5E5B7EFDC7C21DFDB0B11
:1049B000D4D2D38642E2D4F1F8B3DD686E83DA1F35
:1049C000CD16BE815B26B9F6E177B06F7747B71891
:1049D000E65A0888706A0FFFCA3B06665C0B011135
:1049E000FF9E658F69AE62F8D3FF6B6145CF6C1691
:1049F00078E20AA0EED20DD75483044EC2B3033935
:104A0000612667A7F71660D04D476949DB776E3E90
:104A10004A6AD1AEDC5AD6D9660BDF40F03BD837B4
:104A200053AEBCA9C59EBBDE7FCFB247E9FFB53010
:104A30001CF2BDBD8AC2BACA3093B353A6A3B42434
:104A40000536D0BA9306D7CD2957DE54BF67D92390
:104A50002E7A66B3B84A61C4021B685D942B6F2A34
:104A600037BE0BB4A18E0CC31BDF055A8DEF022D90
:104A70001F1C1F1E1F1E1F1F1E1F1E1F00030306BD
:104A800001040602050003051F1C1F1E1F1E1F1F19
:104A90001E1F1E1F004040404040404040404141DA
:104AA0004141414040404040404040404040404003
:104AB000404040404005020202020202020202029D
:104AC000020202020220202020202020202020029A
:104AD000020202020202909090909090101010102A
:104AE00010101010101010101010101010101010C6
:104AF000020202020202888888888888080808085A
:104B00000808080808080808080808080808080825
:104B10000202020240000000954A00081F1D1F1EED
:104B20001F1E1F1F1E1F1E1F4D4F544F0000000051
:104B3000504B00080000002080030000840700089C
:104B4000D04C000880030020580E000018260008F2
:104B5000120001120104E00A284B00083931000854
:104B600000016004A24A040BF009010203040607D5
:104B7000080924900500BC02013332012A12052BDA
:104B8000100904E40400FF1404E5060319130001EE
:104B9000218243F4018A400D0000E11100085D0804
:104BA0000008D117905007D13F00082D429C3007D4
:104BB0000801401000100822400850051C01400860
:104BC0000822020850051001400110430004105251
:104BD0000418520238520110613853000208420191
:104BE00050528058616052200861786148522048D4
:104BF00061905280103118520C78520C98820C98A7
:104C00005204B06188130020805218D052182052EC
:104C100018785218605218B022142815932220B820
:104C2000410852201022081811E0400400010458E5
:104C3000520210528008331004404304000853020B
:104C400000285130528010716042016052806052E1
:104C500040385208086118530008085204102168AF
:104C6000820C98530040084220B05210B061883145
:104C7000A05214285214485214308214B8316825B6
:104C8000D8338010405601285680605300100852D7
:104C9000200846805035D85618E8862090392021C3
:104CA00038520830524028520408520808614852CD
:104CB000101055B03130521C28521C205214705A1A
:104CC00014589D3C036D40037C04020406680300F5
:0400000508000131BD
:00000001FF
