:020000040800F2
:10000000C81300204501000841110008850C0008B4
:100010007D0D00082D080008F924000800000000EC
:100020000000000000000000000000006D18000843
:10003000750900080000000005120008B11E000844
:100040005F0100085F0100085F0100083515000826
:100050005F0100085F0100085F0100085F01000800
:100060005F0100085F0100085F0100085F010008F0
:100070005F0100085F0100085F0100085F010008E0
:100080005F0100085F0100085F0100085F010008D0
:100090005F0100085F0100085F0100085F010008C0
:1000A0005F0100085F0100085F0100085F010008B0
:1000B000151F0008C91F00085D2000085F01000827
:1000C0005F0100085F0100085F0100085F01000890
:1000D0005F010008ED210008112200085F010008FF
:1000E0005F0100085F0100085F0100085F01000870
:1000F0005F0100085F0100085F0100085F01000860
:100100005F0100085F0100085F0100085F0100084F
:100110005F0100085F0100085F0100085F0100083F
:100120005F0100085F0100085F0100085F0100082F
:10013000DFF80CD000F004FB00480047C13900088C
:10014000C81300200648804706480047FEE7FEE740
:10015000FEE7FEE7FEE7FEE7FEE7FEE7FEE7FEE777
:10016000B51E00083101000800487047144400081B
:10017000014610B509683C22B1FBF2F302FB1313F0
:10018000B1FBF2F11D480360B1FBF2F302FB131364
:10019000B1FBF2F118224360B1FBF2F302FB13133F
:1001A000B1FBF2F183600A1D0723B2FBF3F403FBFA
:1001B000142282618A0040F2B55102F66C32B2FB21
:1001C000F1F344334361B2FBF1F301FB13218908DE
:1001D000C1613B2903D3027D920700D0491C002254
:1001E000074C13460261E25C8A4203D8891A5B1C01
:1001F0000361F8E7491CC16010BD00009C0F00209E
:1002000018440008D2B201E000F8012B491EFBD2CD
:1002100070470022F6E710B513460A460446194611
:10022000FFF7F0FF204610BD10B5002200E0521C81
:10023000835C8C5CA34201D1002BF8D1D8B2E1B22F
:10024000401A10BD2DE9FE4F804681EA0300C00F21
:100250000C46009021F0004123F00045B8EB02006D
:10026000A94105D24046214690461C460B4602460F
:1002700023F00040104347D0270DC7F30A00C3F313
:100280000A510290401A019040286BDAC3F3130020
:1002900040F4801B0098924620B10023D2EB030A61
:1002A00063EB0B0B01985946C0F14002504600F039
:1002B00026F906460D4650465946019A00F02EF999
:1002C00010EB08006141002487EA115284EAE773C9
:1002D0001A4340D0009A62B3019A012A4FEA0752AA
:1002E00015DC001B61EB02014FF0004202EA0752ED
:1002F000CDE90042001C41F5801132462B4600F04A
:100300002EF903B0BDE8F08F40462146F9E7001B07
:1003100061EB0201001C41F5801300185B412018BD
:10032000A2F5001747EB030140EAD570B6196D41FD
:1003300011E06D084FEA360645EAC0754FEA0752EC
:10034000001B61EB0201001C41F5801149084FEAD6
:1003500030000019514132462B4603B0BDE8F04F42
:1003600000F0EEB80098012240000023D0EB02021A
:1003700063EBE073009821464FEAE074B8EB0000AD
:1003800061EB0401E9E783F000435BE781F00041A2
:1003900058E72DE9F04D81EA030404F0004B21F009
:1003A000004514464FF0000A23F0004150EA0502D0
:1003B00020D054EA01021DD0C5F30A570246C5F306
:1003C0001303C1F31300C1F30A5640F4801543F43C
:1003D0008013A7EB0608101BD64608F2FD3873EB16
:1003E000050002D308F1010801E092185B41B8F161
:1003F000000F03DA00200146BDE8F08D00204FF425
:100400008011064684460EE0171B73EB050705D3E3
:10041000121B63EB050306434CEA010C49084FEA43
:10042000300092185B4150EA0107EDD152EA030017
:1004300012D082EA040083EA0501084305D0101BAC
:10044000AB4106D20122002306E000224FF0004318
:1004500002E06FF0010253101AEB06004CEB08515A
:1004600010EB0A0041EB0B01BDE8F04D00F068B85D
:1004700030B50B46014600202022012409E021FA74
:1004800002F59D4205D303FA02F5491B04FA02F571
:100490002844151EA2F10102F1DC30BD2DE9F05F08
:1004A0000546002092469B468846064681464024E3
:1004B0001BE0284641464746224600F053F9534682
:1004C0005A46C01A914110D311461846224600F0F0
:1004D00016F82D1A67EB01084F462246012000212D
:1004E00000F00DF817EB00094E41201EA4F10104A5
:1004F000DFDC484631462A464346BDE8F09F202AC5
:1005000004DB203A00FA02F1002070479140C2F16A
:10051000200320FA03F3194390407047202A06DB9A
:10052000CB17203A41FA02F043EAE07306E041FAC1
:1005300002F3D040C2F120029140084319467047AF
:1005400010B5141E73F1000408DA401C41F10001DB
:1005500092185B411A4301D120F0010010BD2DE932
:10056000F04D92469B4611B1B1FA81F202E0B0FA29
:1005700080F220329046FFF7C2FF04460F4640EA61
:100580000A0041EA0B0153465A46084313D011466C
:1005900053EA010019D0C8F14002504600F0E2F8D9
:1005A00005460E46504659464246FFF7A8FF084307
:1005B00005D0012004E020463946BDE8F08D00203A
:1005C000054346EAE0762C4337430A986305E40A7C
:1005D000A0EB08000022FD0A44EA47540A3002D585
:1005E00000200146E9E7010510196941DDE90845E8
:1005F00000196941BDE8F04DA2E72DE9FE4F81EAFF
:10060000030404F0004421F0004100944FF0000B7B
:1006100023F0004350EA01045ED052EA03045BD0A9
:10062000C3F30A54C1F30A552C44A4F2F3340194E1
:10063000A0FB0254C1F3130141F48011C3F313036F
:1006400043F4801301FB024400FB034E840A970A23
:1006500044EA815447EA8357A4FB076802958D0A50
:1006600005FB07854FEA932C04FB0C542705029DDC
:100670004FEA065847EA1637B5EB08056EEB070C4C
:10068000870E920E47EA811742EA8312A7FB020106
:10069000B6EB0B0164EB00042B0D43EA0C335E1840
:1006A00044EB1C50DA465146E7FB0201C5F3130444
:1006B0004FEA0B3343EA14534FEA0432019C43EAF6
:1006C0000603A4F10C040294009CCDE900B4FFF7EA
:1006D00046FF03B0BDE8F08F00200146F9E7C1F303
:1006E0000A52C1F3130140F2FF3341F480119A42E0
:1006F00002DA00200146704740F233439A42A2F2E8
:10070000334202DC524200F02DB8FFF7F8BE000081
:1007100030B5041E71F1000404DB4FF00044404288
:1007200064EB0101141E73F1000405DB1C464FF05D
:100730000043524263EB0403994208BF904230BD2C
:10074000064C074D06E0E06840F0010394E807001E
:1007500098471034AC42F6D3FFF7EEFC2C44000867
:100760004C440008202A04DB203A21FA02F0002140
:10077000704721FA02F3D040C2F1200291400843B1
:100780001946704770B58D1810F8014B14F003022C
:1007900001D110F8012B231106D110F8013B03E021
:1007A00010F8016B01F8016B521EF9D1ABB110F8D2
:1007B000012B04F00C048A1A0C2C03D0A2EB841237
:1007C0009B1C08E010F8014BA2EB0422F8E712F89A
:1007D000014B01F8014B5B1EF9D5A942D4D300208F
:1007E00070BD10B5012000F02FFD002000F02CFDA1
:1007F00010BD000008B5014600200090034800909D
:100800000098084400900098008808BD006C0040E3
:1008100008B500220092044A0092009A0244009215
:10082000009A116008BD0000006C004000BFFEE7A8
:1008300070B50346184600240BE011F8016B86EAF8
:100840002025054E36F8155085EA0025A8B2651C0E
:10085000ACB29442F1DB70BD6C3D000810B50446AB
:10086000012C01DB382C01DD012010BD621E054B7F
:1008700003EBC2029188621E53F8320000F057F970
:100880000020F2E7A000002001460020002281B1F4
:100890000B6873B1074B1B6813B9064B196007E06F
:1008A000044B1A6800E092689368002BFBD19160BA
:1008B0000120704714000020F0B591B006460025D5
:1008C00000242B48076800BF03E000204DF82500F6
:1008D0006D1C102DF9DB00E0761C307840B1FFF77D
:1008E00043FC00683178405C00F0BA000028F3D087
:1008F00001250096344620E000E0641C207840B1D9
:10090000FFF732FC00682178405C00F0BA00002854
:10091000F3D102E000202070641C207840B1FFF782
:1009200023FC00682178405C00F0BA000028F1D078
:10093000207810B14DF825406D1C207808B1102D9D
:10094000DADB00204DF825000CE0002D09DD3046F3
:100950003968FFF769FC20B9694628467A689047EC
:1009600002E0BF68002FF0D100BF11B0F0BD000061
:100970001400002070472DE9F041024600250026B2
:10098000002000230024002791F803C00CF00F057D
:1009900091F803C00CF0100CBCF1000F03D091F8DB
:1009A00002C04CEA050591F800C0BCF1000F31D03F
:1009B000146800202BE04FF0010C0CFA00F3B1F8A2
:1009C00000C00CEA03069E4220D183004FF00F0CBA
:1009D0000CFA03F7BC4305FA03FC4CEA040491F853
:1009E00003C0BCF1280F06D14FF0010C0CFA00FC3B
:1009F000C2F814C00AE091F803C0BCF1480F05D159
:100A00004FF0010C0CFA00FCC2F810C0401C082882
:100A1000D1D31460B1F800C0BCF1FF0F34DD5468CD
:100A200000202EE000F1080C4FF0010808FA0CF34A
:100A3000B1F800C00CEA03069E4221D183004FF0BA
:100A40000F0C0CFA03F7BC4305FA03FC4CEA040450
:100A500091F803C0BCF1280F05D100F1080C08FA89
:100A60000CF8C2F8148091F803C0BCF1480F07D10C
:100A700000F1080C4FF0010808FA0CF8C2F81080D9
:100A8000401C0828CED35460BDE8F081F0B50A467A
:100A9000002300240021002500F00046B6F1004F9D
:100AA00002D11D4EF16901E01B4E7168C0F3034590
:100AB00083B200F44016B6F5401F08D121F07061F2
:100AC000154E766826F07066134F7E6012E000F4D3
:100AD0008016B6F5801F06D1032606FA05F4A14359
:100AE00041F0706106E0460D360103FA06F6B143A7
:100AF00041F0706122B1460D360103FA06F631432A
:100B000000F00046B6F1004F02D1034EF16101E062
:100B1000014E7160F0BD000000000140024600205F
:100B200093680B400BB1012000E000207047416149
:100B300070470161704700000121014A1170704740
:100B40009C0000204179012901D1014A11707047B0
:100B50009C0000200178002911DD0178084A094B2A
:100B60001B78D1540021017006490978491C054AB7
:100B7000117011460978072901D1002111707047C1
:100B80007100002079000020FEB50546A878000617
:100B9000E97840EA0140297940EA0120697940EA90
:100BA0000106029602A8FFF7E3FA044620782179AD
:100BB000CDE90010277A0937FBB2227B277C7F1C06
:100BC000F9B2A78A07F26C77B8B200F059FDFEBD02
:100BD0007FB5002500240020009001900290039032
:100BE000254802F0EDF90546102D43D300F054F8E6
:100BF000214802F0E5F9054600BF06E01F49081943
:100C0000012102F027F9601CC4B2AC42F6D30025E2
:100C10001A4800783038C0B28DF800009DF8000006
:100C2000002827DD9DF80000092823DC002407E0C8
:100C30001248005D3038C0B20DF80400601CC4B228
:100C4000102CF5DB00240EE0012000EB44001DF821
:100C500000001DF8141001EB810100EB4100084970
:100C60000855601CC4B2072CEEDD0822044905209B
:100C700000F0B4FD7FBD0000700300209003002051
:100C80005800002000BFFEE74CF6CC400149086048
:100C9000704700000030004010B500F013F810BDA0
:100CA00070B505460C4645F2555000F01FF8284631
:100CB00000F010F8204600F013F800F003F8FFF7FA
:100CC000E3FF70BD4AF6AA200149086070470000A2
:100CD000003000400149486070470000003000408B
:100CE00001498860704700000030004001490860F9
:100CF00070470000003000400146CA1701EB9272B5
:100D00009210A1EB820292B9642091FBF0F200FBF9
:100D1000121050B94FF4C87091FBF0F200FB1210A2
:100D200008B9012070470020FCE70120FAE7002005
:100D3000F8E7000010B5044614B101200D49087011
:100D40000C48007888B101210B48FFF7E7FE60B935
:100D50000A2002F0F5F80020064908700121064833
:100D6000FFF7DCFE18B9012010BD0020FCE70020D1
:100D7000FAE700007E0000200018014000BFFEE7F7
:100D800038B50024012140F2FD1000F04DFA012198
:100D9000A648FFF77BFE4FF44060ADF8000010203E
:100DA0008DF8030003208DF802006946A048FFF784
:100DB000E2FD4FF480619E48FFF7B9FE4FF40061F9
:100DC0009B48FFF7B4FE4FF48050ADF80000482078
:100DD0008DF8030069469648FFF7CDFD4FF450703B
:100DE000ADF8000010208DF8030069469148FFF728
:100DF000C2FD03208DF802004FF40040ADF8000062
:100E000010208DF8030069468B48FFF7B4FD0320DE
:100E10008DF802000220ADF8000010208DF80300CC
:100E200069468648FFF7A7FD03208DF8020080027F
:100E3000ADF8000010208DF8030069467C48FFF7EC
:100E40009AFD03208DF802008020ADF800001020EC
:100E50008DF8030069467748FFF78DFD03208DF874
:100E600002001020ADF8000028208DF8030069462C
:100E70007348FFF780FD03208DF802000120ADF8D4
:100E8000000048208DF8030069466C48FFF773FDA9
:100E900003208DF8020000BF1FE06A4800EBC40089
:100EA0008088ADF80000674800EBC40080798DF8B9
:100EB000030003208DF80200624951F834006946AE
:100EC000FFF759FD5F4A02EBC40291885D4A52F870
:100ED0003400FFF72CFE601CC4B2202CDDDB0024A4
:100EE0001FE0594800EBC4008088ADF80000564868
:100EF00000EBC40080798DF8030003208DF8020018
:100F0000514951F834006946FFF735FD4E4A02EB6E
:100F1000C40291884C4A52F83400FFF708FE601C66
:100F2000C4B2202CDDDB00241FE0484800EBC400E5
:100F30008088ADF80000454800EBC40080798DF84A
:100F4000030003208DF80200404951F8340069463F
:100F5000FFF711FD3D4A02EBC40291883B4A52F86B
:100F60003400FFF7E4FD601CC4B2162CDDDB182052
:100F7000ADF8000010208DF8030069462D48FFF7FA
:100F8000FAFC03208DF802004FF4E050ADF80000A9
:100F900010208DF8030069462548FFF7ECFC03207C
:100FA0008DF802000120ADF8000010208DF803003C
:100FB00069462348FFF7DFFC03208DF8020020205C
:100FC000ADF8000048208DF8030069461C48FFF783
:100FD000D2FC03208DF802004FF40050ADF8000061
:100FE00048208DF8030069461948FFF7C4FC032028
:100FF0008DF802004FF48040ADF8000028208DF8F5
:10100000030069460E48FFF7B6FC03208DF8020086
:101010002020ADF8000028208DF8030069460C4818
:10102000FFF7A9FC03208DF8020038BD0002300054
:1010300000100140000C0140002001400018014058
:1010400000140140A0000020A0010020A002002008
:10105000001C01402DE9F041064600244FF41675AE
:10106000A0460027760008213348FFF762FD1021D3
:101070003148FFF75EFD5BE0012001F033FF4046A1
:1010800008F10108A84253D3B44251D24FF00008EE
:10109000641C04F0010040B908212748FFF747FD10
:1010A00010212548FFF743FD07E008212248FFF7FC
:1010B00040FD10212048FFF73CFD04F0010000280E
:1010C00036D1062F2CD2DFE807F0030A1A1B292A93
:1010D0004FF41675B4F57A7F00D3012721E0C82DAF
:1010E00001D96D1E06E06420B4FBF0F100FB114055
:1010F00000B96D1E282D01D82825022711E010E027
:101100003220B4FBF0F100FB114000B96D1CB5F5C5
:10111000167F02D34FF41675042702E001E000E0C9
:1011200000BF00BFFFF7B8FD0448844200D9032781
:10113000B442A1D3BDE8F081000C0140F8240100C5
:101140007047000070B5002100230F22C47804B35B
:10115000154C246804F4E064C4F5E064210AC1F18C
:101160000403CA40447804FA03F18478144021430C
:1011700009010E4C0678A155047804F01F050124DE
:10118000AC4005786D11AD0005F1E025C5F80041D2
:1011900009E0047804F01F050124AC40044D0678F2
:1011A000761145F8264070BD0CED00E000E400E04B
:1011B00080E100E002490143024A116070470000EB
:1011C0000000FA050CED00E00020704710B5044661
:1011D000012C01DB382C01DD012010BD621E054B06
:1011E00003EBC2029188621E53F83200FFF7A1FCA4
:1011F0000020F2E7A00000200149086270470000CB
:1012000000000E427047000029B1064AD26902432D
:10121000044BDA6104E0034AD2698243014BDA618C
:10122000704700000010024029B1064A926902434B
:10123000044B9A6104E0034A92698243014B9A612C
:10124000704700000010024001490860704700002C
:101250004004424230B500210022002400232D4DDD
:101260006D6805F00C0121B1042905D0082923D1AE
:1012700005E0294D056022E0284D05601FE0254D61
:101280006D6805F47012234D6D6805F480340225F5
:1012900005EB92421CB9224D554305600BE01D4DF4
:1012A0006D6805F400351DB11B4D5543056002E026
:1012B0001A4D5543056002E0174D056000BF00BFA1
:1012C000144D6D6805F0F0010909164D6B5C056859
:1012D000DD4045600F4D6D6805F4E061090A114D70
:1012E0006B5C4568DD4085600A4D6D6805F46051B2
:1012F000C90A0C4D6B5C4568DD40C560054D6D68E5
:1013000005F44041890B084D6B5CC568B5FBF3F5EE
:10131000056130BD0010024000127A000024F40084
:1013200000093D00540300206403002001490860C7
:10133000704700003C0442420249096A0143014AE5
:101340001162704700100240024909888143014A36
:1013500011807047042800400348008840F01000C6
:1013600001490880704700000428004003480088B5
:101370004FF6EF710840014908807047042800408B
:1013800070B500260024002500F07CF80646394898
:10139000B6FBF0F438480088A0423CD036490C80B7
:1013A00040F2B27510E02846FFF7A6FC40B1B4F554
:1013B000B77F02D3A4F5B77404E0681C85B206E0D9
:1013C000A4F26D14681C85B2B4F5B67FEBD800BFEB
:1013D0002A488580002516E028498888FFF78CFC7C
:1013E00030B1012D04D11D2C01D31D3C09E00CE0CE
:1013F0002348405DA04203D82148405D241A00E004
:1014000003E0681C85B21C2CE6D200BF681C1B4997
:101410008871601CC8711748B6FBF0F100FB1164BD
:101420004FF46160B4FBF0F0401E144908704FF4B3
:101430006160B4FBF0F100FB11403C21B0FBF1F026
:101440001E380E4948704FF46160B4FBF0F100FBA8
:1014500011403C21B0FBF1F201FB120007498870FA
:101460000B46DA799979988800F028F803490872D0
:10147000002070BD8051010068030020900F002003
:1014800084430008002103480188001F008841EAC6
:10149000004070471C28004001460020064A128880
:1014A0000A40D0B2044A121F12880A4012B108B191
:1014B000012000E00020704704280040F0B50346FA
:1014C0000C461546642093FBF0F0C6B2642093FBF3
:1014D000F0F700FB1730C1B2132E02DD01F16400FA
:1014E000C1B20846CF1701EB977701EBA707BAB255
:1014F000072092FBF0F700FB172082B25719601EFD
:10150000DFF82CC01CF80000384482B2CF1701EB82
:101510009777BF10A1EB87071FB9032C01DA501E84
:1015200082B2072092FBF0F700FB1720C0B2F0BD9B
:10153000784300080EB50120FFF7AEFF08B1FFF7B2
:101540001FFF0220FFF7A8FFA0B10220FFF7FCFE5B
:10155000FFF716FF0A48807809494978084A127847
:10156000CDE9002102900648C3798279818805A0DF
:1015700000F0C4FF0520FFF7E7FE00F003F90EBD01
:10158000900F0020416C61726D2054696D653A25A1
:10159000642D25642D25642025643A25643A25644C
:1015A0000A00000029B1064A12880243044B1A803F
:1015B00004E0034A12888243014B1A8070470000FE
:1015C000002800401CB501214FF0C050FFF71CFE61
:1015D0000120FFF711FE0420FFF70CF945F250013E
:1015E00088422CD0FFF7FDF84FF44070FFF7A4FEBF
:1015F0000120FFF79BFE00F0C5F800F0CDF80121B7
:101600000846FFF7CFFF00F0BDF8FFF7A5FE13482F
:1016100000F0A8F800F0B6F837202A2111230E2296
:10162000CDE90010012140F2DF7000F029F8FFF74A
:101630009DFE45F250010420FFF7EAF807E000F0B4
:10164000ABF801210846FFF7ADFF00F09BF800F072
:1016500007F8FFF795FE00201CBD000048E80100D8
:1016600008B503208DF8000000208DF801008DF8EA
:10167000020001208DF803006846FFF763FD08BDF6
:101680002DE9F05F06460F4690469946DDE90AAB24
:10169000002440F2B270864203DB40F633008642FB
:1016A00002DD0120BDE8F09F40F2B2750AE0284655
:1016B000FFF722FB10B12048044401E01F48044416
:1016C000681C85B2B542F2DB781EC7B2002510E077
:1016D0001B48405D40F2A321484304EBC014304650
:1016E000FFF70AFB18B1012D01D116480444681C0C
:1016F00085B2BD42ECDBA8F1010040F2A3214843D2
:1017000004EBC014C9EB4910C0EB092004EB001432
:10171000CAEB0A1004EB80045C4401214FF0C05076
:10172000FFF772FD0120FFF767FD204600F00CF87F
:1017300000F028F80020B5E70085E2018033E101E0
:10174000844300088051010000B50246FFF704FE03
:10175000100C03490880091D0A80FFF707FE00BD31
:101760001828004000B50246FFF7F6FDC2F303401B
:1017700003490880091D0A80FFF7F8FD00BD00003D
:101780000828004000BF0348008800F0200000281F
:10179000F9D0704704280040074800884FF6F771D9
:1017A00008400549088000BF0348008800F0080091
:1017B0000028F9D0704700000428004010B5044606
:1017C000621E054B03EBC2029188621E53F8320081
:1017D000FFF7A4F910BD0000A00000202DE9F043A0
:1017E00085B0074688461546FFF756FA00241421AF
:1017F0006846FEF70EFDFFF745FE8146002008E033
:10180000C10029FA01F1CAB2811C0DF80120411C66
:10181000C8B20328F4DD7E208DF800008DF8017039
:101820008DF80650002406E018F80410E01D0DF8AD
:101830000010601CC4B2AC42F6DB0E220DF10101B7
:101840004FF6FF70FEF7F4FF0646F0B28DF80F007A
:1018500030128DF810007E208DF81100112269469B
:10186000022000F023FE05B0BDE8F08370470000C1
:1018700070B5002428E0082C03DBE1B2164800F024
:10188000B7FD1548005D0A2819D1601E1249085C91
:101890000D2814D10021104A601C1154154600E097
:1018A0006D1CFEF761FC00682978405C00F0BA000E
:1018B0000028F5D02846FEF7FFFF002404E00220B0
:1018C00001F03EFB601C84B203490819022101F0BB
:1018D000C1FA0028CFD070BD9003002010B500F0F1
:1018E00001F810BD0CB5002001900090334800684D
:1018F00040F480303149086000BF3048006800F48F
:10190000003000900198401C0190009818B901988F
:10191000B0F5A06FF1D12948006800F4003010B193
:101920000120009001E0002000900098012843D1A0
:101930002348006840F0100021490860084600680C
:1019400020F0030008600846006840F002000860CC
:101950001A48406819494860084640684860084687
:10196000406840F4806048600846406820F47C107D
:1019700048600846406840F4F8104860084600682F
:1019800040F08070086000BF0C48006800F00070F4
:101990000028F9D00948406820F003000749486052
:1019A0000846406840F00200486000BF03484068B5
:1019B00000F00C000828F9D10CBD00000010024016
:1019C000002002401CB509A103C9CDE90001094965
:1019D0006846FEF729FC30B9FFF7F6FB08B900208E
:1019E0001CBDFF20FCE70120FAE700005343414EF5
:1019F000204F4E006A00002010B50748007B48B118
:101A0000054A107B1168884710B90348007B10BD58
:101A1000FF20FCE70020FAE78400002010B5FFF764
:101A20003BF900248A48407B092813D2DFE800F004
:101A30000512121312649DC0E9008548007B30B185
:101A400003208349487300208249087002E0002087
:101A50008149C870F9E07E4A107B116888477C4A4A
:101A6000107B1169884700283AD17948007B01280A
:101A70000FDB7748007B04280BDC40F6C41001F034
:101A800085FA734A107B516888470520704948736E
:101A900026E06F48007B05280FDB6D48007B10288F
:101AA0000BDC40F2DC5001F071FA694A107B51689E
:101AB000884705206649487312E06548007B112875
:101AC0000EDB6348007B20280ADC4FF4FA7001F03B
:101AD0005DFA5F4A107B5168884705205C4948736E
:101AE0005C480078032806DB594A107B5168884718
:101AF000052057494873A8E04FF4FA7001F046FA00
:101B0000FFF7CAF84FF480615448FFF712F84FF41A
:101B100080515248FFF70DF802F01CF85048007849
:101B2000012806D149F27040FFF794FA00204C4991
:101B30000870642001F02AFAFFF7AEF880214948C6
:101B4000FEF7F7FF20214848FEF7E8FF01280BD1F8
:101B5000642001F0F5F920214348FEF7DFFF01285A
:101B600002D106203A4948736FE0FFF795F801204B
:101B70003B49087020213C48FEF7D0FFB8B94FF42C
:101B80007A7001F003FAFFF787F820213648FEF754
:101B9000C5FF012803D105202D49487307E0202106
:101BA0003148FEF7BBFF10B90720294948734CE0C4
:101BB000FFF772F801202A49087080212948FEF7B2
:101BC000B6FFFFF769F80020284908702849087017
:101BD000284908804FF4C8702749088001F07AFE30
:101BE00000201B490873082048730120234908700E
:101BF000082223490920FFF7F1FD642001F0C6F90E
:101C000023E04FF480411F48FEF788FF1E4800780C
:101C100040B100201C4908700D4948731A494870AA
:101C2000087011E018484078401C1749487005209A
:101C300001F086F9144840780A2805DB00200449A1
:101C4000487311490870487000BF00BF10BD000004
:101C5000840000207B000020800000200010014054
:101C60007D000020000C01400014014040000020D5
:101C70003D0000203E000020420000207C000020AB
:101C800044000020001C01409C00002010B51B48AF
:101C9000407B20B1082821D00A282CD110E0174819
:101CA000007B48B11549097B2039C8B201F012FF09
:101CB0000A201249487302E000201149C8701AE056
:101CC0004FF47A7001F03CF90C49097B2039C8B215
:101CD00001F0F2F80820094948730CE00120094995
:101CE000087009480021016081808171002003494A
:101CF0000873487300BF00BF10BD000084000020BF
:101D0000800000207C0000206A00002008B5002030
:101D100000905A48C07830B101283ED002283FD008
:101D2000082839D13FE0FFF74DFE20B9082053497C
:101D3000C870887008E0FFF745FEFF2804D108202E
:101D40004E49C870042088704D48007B212808DA6D
:101D50004B48007B002804DD08204849C8704870C3
:101D60001AE0FFF749FE212804DB08204349C87028
:101D7000087011E0FFF740FEFF280DD14048007BBE
:101D8000212803DB04203D49087002E004203B4980
:101D9000487008203949C8706DE0FFF777FF6AE0A6
:101DA000FFF73CFE67E000203449C87008464078E1
:101DB00004280CD100200090012269468120FFF701
:101DC0000DFD00202D4948702D4908730AE02B486D
:101DD0004078082806D10120009002202749C870C9
:101DE000002048702548007804280CD1002000907D
:101DF000012269468220FFF7F1FC00201F4948704C
:101E00001F4908730FE01D48007808280BD10120F6
:101E10000090012269468220FFF7E0FC012017496B
:101E2000C870002008701548807804280FD1002061
:101E30000090012269468320FFF7D0FC00200F4963
:101E400088701048002101608180817112E00B4888
:101E5000807808280ED10120009001226946832055
:101E6000FFF7BCFC0020054988700648002101608E
:101E70008180817100BF00BF08BD0000800000208C
:101E8000840000206A000020042808D14FF0E021DF
:101E9000096941F004014FF0E022116107E04FF0C1
:101EA000E021096921F004014FF0E022116170473F
:101EB0007047000010B51348006840F00100114958
:101EC000086008464068104908400E4948600846C6
:101ED00000680E4908400B4908600846006820F475
:101EE000802008600846406820F4FE0048604FF4F7
:101EF0001F008860FFF7F2FC4FF0006004490860A3
:101F000010BD0000001002400000FFF8FFFFF6FEC9
:101F100008ED00E010B50121880700F0FAF8E8B1FB
:101F20000121880700F0E6F80D480088322806DB1A
:101F300001200C49087000200949088002E00020B7
:101F40000749088001F006FD07480088B0F5967F34
:101F500004DB05480088001F0349088010BD00000D
:101F60003E00002040000020420000207FB50546D2
:101F70000C4601210846FFF747F9ADF80850ADF8C7
:101F800004400020ADF80A00ADF8060001A94FF0AA
:101F9000804000F0D9F801221146900700F0CAF8FD
:101FA0001C208DF8000000208DF8010003208DF822
:101FB000020001208DF803006846FFF7C3F80121F5
:101FC000880700F09AF87FBD10B50121084800F09D
:101FD000A0F858B10121064800F08CF8012005490D
:101FE000087005480078401C0349087010BD0000C7
:101FF000000400403C0000207B0000207FB5054627
:102000000C4601210220FFF7FFF8ADF80850ADF8AB
:1020100004400020ADF80A00ADF8060001A90E4802
:1020200000F092F8012211460B4800F083F81D20C1
:102030008DF8000000208DF8010003208DF80200CB
:1020400001208DF803006846FFF77CF80121024863
:1020500000F053F87FBD00000004004010B50121DE
:10206000094800F056F870B10121074800F042F825
:102070004FF480410548FEF751FD20B9044800881F
:10208000401C0349088010BD00080040001C0140AE
:102090003E0000207FB505460C4601210420FFF7D5
:1020A000B3F8ADF80850ADF804400020ADF80A00D0
:1020B000ADF8060001A90E4800F046F801221146CD
:1020C0000B4800F037F81E208DF8000000208DF836
:1020D000010003208DF8020001208DF803006846FE
:1020E000FFF730F80121024800F007F87FBD00003B
:1020F00000080040CA430282704721B1028842F0C2
:102100000102028004E002884FF6FE731A4002804A
:10211000704730B50246002000230024158A05EAE6
:102120000103958905EA010413B10CB1012000E017
:10213000002030BD1AB183890B43838102E083897B
:102140008B43838170470000002202881D4B984218
:102150000ED01D4B98420BD0B0F1804F08D01B4BD6
:10216000984205D01A4B984202D01A4B984204D19B
:102170004FF68F731A404B881A43174B984207D07B
:10218000164B984204D04FF6FF431A40CB881A43AF
:1021900002808B8883850B8803850A4B98420BD07D
:1021A000094B984208D00E4B984205D00D4B9842EF
:1021B00002D00D4B984201D10B7A03860123838212
:1021C00070470000002C0140003401400004004032
:1021D00000080040000C00400010004000140040C7
:1021E00000400140004401400048014010B540F269
:1021F0002551064800F037F838B1044800F0EEF8F1
:10220000C4B20221204600F03FFE10BD003801405C
:1022100010B540F22551064800F025F838B10448C1
:1022200000F0DCF8C4B20121204600F02DFE10BD04
:102230000044004021B1828942F40052828104E0CE
:1022400082894DF6FF731A40828170470246002052
:10225000B1F5007F00D100BF13880B400BB1012006
:1022600000E00020704770B50246002400230025DE
:10227000002040F66A16B14200D100BFC1F34215FA
:1022800001F01F03012606FA03F3012D02D19689FE
:10229000334006E0022D02D1168A334001E0968ACF
:1022A00033400C12012606FA04F41688344013B1A8
:1022B0000CB1012000E0002070BDF0B50346002401
:1022C00000260025002040F66A17B94200D100BF61
:1022D0001846C1F3421401F01F06012707FA06F55C
:1022E000012C01D10C3004E0022C01D1103000E0AF
:1022F00014301AB107682F43076002E00768AF4344
:102300000760F0BD2DE9F04786B005460E46002473
:10231000A24600BFA1460027B08900B100BF2F46EA
:102320002C8A4CF6FF700440F08804432C82AC8960
:102330004EF6F3100440B088318908437189084390
:102340000443AC81AC8A4FF6FF400440B08904439B
:10235000AC8201A8FEF77EFF1F48874202D1DDF85C
:1023600010A001E0DDF80CA0A88900F4004040B105
:102370000AEBCA0000EB0A1031684900B0FBF1F823
:1023800007E00AEBCA0000EB0A1031688900B0FBD5
:10239000F1F86420B8FBF0F004012009642101FB8E
:1023A0001089A88900F4004040B1322000EBC90038
:1023B000B0FBF1F000F00700044308E0322000EB2E
:1023C00009106421B0FBF1F000F00F0004432C81F0
:1023D00006B0BDE8F087000000380140014688885B
:1023E000C0F308007047C1F3080282807047000004
:1023F0002DE9F04104460F460E22611C4FF6FF7096
:10240000FEF716FA064620787E2847D1607C7E28A3
:1024100044D16078032820D005DC58B1012812D0BF
:1024200002283AD114E0042823D084282DD085280E
:1024300033D12EE02046FEF7A7FB08221849802062
:10244000FFF7CCF929E004F10D00FEF783FB24E04F
:1024500004F10D00FEF77EFB1FE0002506E00522DB
:102460001049012000F022F8681CC5B2032DF6DDEA
:1024700013E0002506E005220B49012000F016F8C4
:10248000681CC5B2032DF6DD07E0A01CFEF75AFB61
:1024900003E0A01CFEF750FB00BF00BFBDE8F081C9
:1024A000600000204C000020520000202DE9F04187
:1024B00004460D4616460027B846012C02D1DFF827
:1024C000308003E0022C01D1DFF828800CE0384690
:1024D0007F1C295C4046FFF786FF00BF4021404635
:1024E000FFF7B4FE0028F9D0B742F0DDBDE8F08177
:1024F000004400400038014000BFFEE70FB4054B28
:1025000010B503A9044A029800F0DAF810BC5DF88F
:1025100014FB0000DD2F00086C03002002E008C857
:10252000121F08C1002AFAD170477047002001E04D
:1025300001C1121F002AFBD1704700002DE9FF5F87
:1025400082B00021DDE90430020DDDF840B0034324
:1025500018D044F61050A2F2FF32424315141198DD
:1025600001281FD0A5EB0B00401C5FEA000A4FF0CA
:1025700000064E4FDFF83891B046504615D5CAF1E7
:10258000000413E0119801244AA3012801D16FEA45
:102590000B010298119AC0E90031C0E9024206B06D
:1025A000BDE8F09FCBF10000DFE704460021404A80
:1025B000491842EB0450CDE9001012E0E00707D0C3
:1025C00032463B4640464946FEF717F88046894664
:1025D00032463B4610461946FEF70FF806460F46B0
:1025E0006410002CEAD1DDE90401DDE90023BAF131
:1025F000000F06DAFEF701F842464B46FDF7FDFFF5
:1026000005E0FDF7C6FE42464B46FDF7C2FE044616
:102610000E460022284BFEF77BF803D84FF0FF3020
:10262000014607E00022254B20463146FDF70AFE11
:10263000FEF755F8102409E0002C0ADB0A220023DB
:10264000FDF72CFF039B30321A55641E50EA01023D
:10265000F2D1641C039AC4F111031444119A012AA3
:1026600003D0012208430DD10AE0084304D0002022
:102670004FF0110B119072E7A3EB0B056D1E0DE0EF
:102680005B4504DD4FF0000205F1010504E003DACB
:102690004FF00002A5F10105002AECD00298119933
:1026A000C0E90231C0E9004579E7000000001440AC
:1026B0000000F03F300000000000F0430000E03F69
:1026C0002DE9FF4F95B09B468946064600250FE24F
:1026D000252877D100242746F84A0121059400E0F7
:1026E000044316F8013F203B01FA03F01042F7D1F2
:1026F00030782A2811D06FF02F033078A0F1300203
:10270000092A16D8059A44F0020402EB820203EB70
:1027100042021044761C0590EFE759F8042B05920D
:10272000002A03DA504244F40054059044F00204B5
:10273000761C30782E2816D116F8010F44F00404C8
:102740002A280DD06FF02F023078A0F13003092B2A
:1027500009D807EB870302EB4303C718761CF3E79E
:1027600059F8047B761C30786C280FD006DC4C2896
:1027700017D068280DD06A2814D104E0742810D02E
:102780007A280FD10DE044F400140AE044F48014D8
:1027900001E044F440147278824202D104F58014BE
:1027A000761C761C307866280BD013DC582877D03E
:1027B00009DC002875D04528F6D04628F4D04728F3
:1027C0001AD19DE118E0632835D0642879D06528B6
:1027D00012D195E1702873D008DC6728F1D0692800
:1027E0006FD06E280DD06F2806D1B5E073282CD09D
:1027F000752875D0782874D05A46179990476D1C63
:1028000075E1C4F30250022809D003280DD0D9F88D
:10281000001004280DD00D6009F1040967E1D9F812
:102820000010EA17C1E90052F6E7D9F800100D8050
:10283000F2E70D70F0E719F8041B8DF80010002086
:102840008DF80100EA46012003E059F804AB4FF08F
:10285000FF3061074FF0000102D40DE008F10101E3
:102860008846B9420FDA8045F8DB1AF808100029CB
:10287000F4D108E008F1010188468142FADB1AF838
:1028800008100029F6D105985B46A0EB0807214601
:102890003846179A00F094FA284400EB080507E040
:1028A0004DE029E10DE01AF8010B5A4617999047BF
:1028B000B8F10108F7D25B4621463846179A13E172
:1028C00042E00A220092C4F302524FF0000A022AA8
:1028D00008D059F804CB032A4FEAEC710AD00DE076
:1028E00029E02AE009F1070121F00702F2E802C11C
:1028F000914609E00FFA8CFC4FEAEC71042A03D1EF
:102900004FFA8CFC4FEAEC71002907DA0A460021E5
:10291000DCF1000C61EB02012D2202E0220504D55E
:102920002B228DF80420012203E0E20701D02022AF
:10293000F7E7904659E00A2102E010220DE010214D
:102940004FF0000A00910BE010224FF0000A44F013
:1029500004040827009203E008224FF0000A0092C6
:10296000C4F30252022A05D059F804CB0021032AED
:1029700008D009E009F1070121F00702F2E802C1DD
:10298000914605E01FFA8CFC042A01D10CF0FF0CE3
:102990004FF00008220728D5702806D0009B83F04E
:1029A000100353EA0A0305D00EE040228DF80420FC
:1029B000012208E05CEA010206D030228DF80420F2
:1029C0008DF8050002229046009B83F0080353EA2D
:1029D0000A030AD15CEA010201D1620705D530225F
:1029E0008DF804204FF001087F1E582804D034A031
:1029F00003900EA802900DE036A0F9E7534660461A
:102A0000009AFDF74BFD84460398825C0298401EB5
:102A1000029002705CEA0100F0D1029806A9081A3F
:102A200000F1200A600702D524F4803400E0012779
:102A3000574502DDA7EB0A0000E0002000EB0A0189
:102A4000009005984144401A0590E00306D45B4687
:102A50002146179A059800F0B3F90544002706E0CF
:102A600001A85A46C05D179990476D1C7F1C4745C9
:102A7000F6DBE0030CD55B462146179A059800F07B
:102A80009FF9054404E030205A46179990476D1C81
:102A90000099481E00900029F5DC08E00298029990
:102AA0005A460078491C0291179990476D1CBAF15B
:102AB0000001AAF1010AF1DC65E10000092801002A
:102AC00030313233343536373839616263646566A4
:102AD0000000000030313233343536373839414266
:102AE000434445460000000000F058F90544761CB8
:102AF000307800287FF4ECAD19B02846BDE8F08F9F
:102B0000620700D4062709F1070222F0070CFCE84F
:102B10000223E14603F000485FEA080C02D00FF2FE
:102B2000702C0DE05FEA045C02D50FF2682C07E020
:102B30005FEAC47C02D00FF2602C01E0AFF2700CAF
:102B40004FF0FF3823F00043CDF850C065280CD07B
:102B500006DC452809D046281DD047283DD13DE058
:102B6000662818D067287ED138E00021112F01DBBC
:102B7000112000E0781CCDE9000106A90EA8FFF79E
:102B8000DDFCDDE90F010E9A03910021009207F1AF
:102B9000010A04914DE04FF000400097CDE901108B
:102BA00006A90EA8FFF7CAFCDDE90F0203920E9BEF
:102BB00011990022DDF80CA00093049211B9791C40
:102BC00000EB010AB7EB0A0004D4C0F1FF3007F1B3
:102BD000010A0490AAEB0700019044E0012F00DAFB
:102BE00001270021112F01DD112000E03846CDE939
:102BF000000106A90EA8FFF7A1FCDDE90F010E9A5E
:102C00000391002104910092BA4621070CD4039944
:102C1000514500DA8A46BAF1010F05DD009AAAF1A2
:102C20000101515C302908D0B84202DA10F1040FDA
:102C300006DA0121CDE9011015E0AAF10101E9E769
:102C4000002805DC049901440491AAEB000102E08C
:102C5000411C514500DD8A460499401A401C0190F0
:102C60004FF000400290200704D40198504501DB4A
:102C7000CDF8048000208DF84F0002980DF14F0729
:102C8000B0F1004F25D02B200E9002984FF0020893
:102C900000280CDA404202902D200E9007E00A2115
:102CA0000298FDF7E5FB3031029007F8011DB8F1FD
:102CB0000001A8F10108F2DC02980028EFD1791E8A
:102CC0000E980870307800F0200040F0450007F8BA
:102CD000020D12A8C01B00F107081498007800B17B
:102CE000012000EB0A01019801EBE07105984144D5
:102CF000401A401E0590E00306D45B462146179A11
:102D0000059800F05DF805441498007818B15A460B
:102D1000179990476D1CE00324D55B462146179A0E
:102D2000059800F04DF805441CE00498002807DBE6
:102D3000DDE90301884203DD0098405C179901E05A
:102D4000179930205A469047049805F10105401C18
:102D500004900198401E019004D12E205A461799E4
:102D600090476D1CBAF10001AAF1010ADDDC05E013
:102D700017F8010B5A46179990476D1CB8F10001DE
:102D8000A8F10108F4DC5B462146179A0598ABE6EA
:102D90002D0000002B000000200000002DE9F04174
:102DA000044600251E461746880404D405E039462B
:102DB0002020B0476D1C641EF9D52846BDE8F0817F
:102DC0002DE9F041044600251E469046C80301D572
:102DD000302700E02027880404D505E04146384626
:102DE000B0476D1C641EF9D52846BDE8F08170B56A
:102DF00004460D46204600F0E3F828B12946204657
:102E000000F0D4F8002070BD0520FCE7034609B9A6
:102E10000E20704712B1501E104008B10920F8E78B
:102E20001960501E988000209860D86000BFF0E7BD
:102E300070B504460D46204600F0C2F8A1888842CD
:102E400005D82946204600F0C0F8002070BD0420B7
:102E5000FCE7000070B504460D460CB90E2070BDAD
:102E6000022D04D121460648FFF7C1FFF7E7012DE7
:102E700004D121460348FFF7BAFFF0E70E20EEE742
:102E8000800300207003002070B506460C46022C1B
:102E900005D131460648FFF7CBFF054606E0012C79
:102EA00004D131460348FFF7C3FF0546284670BDED
:102EB000800300207003002010B50446012C01DBC4
:102EC000382C01DD002010BD621E054B03EBC20251
:102ED0009188621E53F83200FDF729FE00BFF2E729
:102EE000A002002008B50021009102E00099491CD1
:102EF000009100998142F9D308BD000010B56FF030
:102F00000400FEF7C1FF0A4800680A49B0FBF1F06F
:102F1000094908700846007800EB4001C1EBC01079
:102F20004FF6FF7101EAC0000449088010BD00009F
:102F30001C00002000127A005003002052030020E1
:102F40000146114A12884A434FF0E0235A61002299
:102F50009A611A46126942F001021A6100BF4FF0ED
:102F6000E022106900F001021AB100F48032002A58
:102F7000F5D04FF0E022126922F001024FF0E02379
:102F80001A6100229A61704752030020002107E075
:102F900042F2107100BF0A1EA1F1010399B2FAD1E9
:102FA000021EA0F1010398B2F2D1704782688388B3
:102FB0001A4003689A5C0A708268521C82607047EB
:102FC00001468A68C868801A7047C26883881A40B8
:102FD00003689954C268521CC260704770B50446B9
:102FE0000D46E1B20548FFF7FEF900BF4021034856
:102FF000FFF72CF90028F9D0204670BD00380140B9
:103000002DE9F04387B080460C460025241DA8F129
:103010000108FBA12068FDF707F9C0B900BF13E064
:10302000FDF73AFE2946FAA0FFF768FAFE48016864
:10303000284688474FF47A70FFF7A8FFFA4841689E
:1030400028468847681CC5B2202DE9DDE9E3F7A1D1
:103050002068FDF7E9F8D0B9606800F041FE064647
:103060003146F5A0FFF74AFA606800F039FEC6B2B3
:10307000304600F02FFD4FF4FA70FFF761FF6068F3
:1030800000F02EFEC6B23046FFF716FFC9E3F0A1EE
:103090002068FDF7C9F8A8B9002610E0FDF7FCFD8F
:1030A0003146E5A0FFF72AFA304600F013FD642010
:1030B000FFF76CFF3046FFF7FFFE701CC6B2162EFE
:1030C000ECDDAEE3E6A12068FDF7AEF878B9606804
:1030D00000F006FE06463146E4A0FFF70FFA6068EE
:1030E00000F0FEFDC6B23046FFF7E6FE99E3E5A12B
:1030F0002068FDF799F840B9606800F0F1FDC6B2AC
:10310000C9480168304688478BE3DFA12068FDF796
:103110008BF840B9606800F0E3FDC6B2C248416870
:10312000304688477DE3DAA12068FDF77DF850B985
:103130004FF48061DA48FDF7FCFC4FF40061D84899
:10314000FDF7F5FC6DE3D7A12068FDF76DF818B920
:10315000D7A0FFF7D3F964E3DAA12068FDF764F89C
:1031600068B9606800F0BCFD06463146D8A0FFF79C
:10317000C5F9606800F0B4FDAB49087351E3D8A10C
:103180002068FDF751F8E8B9D8A0FFF7B7F96068F3
:1031900000F0A6FDC6B2A44801693046884718B9B8
:1031A000D6A0FFF7ABF93CE3606800F099FDC6B22A
:1031B0009D48016930468847012897D1D4A0FFF780
:1031C0009DF92EE3D7A12068FDF72EF800BBD9A00A
:1031D000FFF794F9002617E0FDF75EFD4FF48041FC
:1031E000D948FDF79BFC18B9D8A0FFF787F909E08B
:1031F0004FF48041D448FDF791FC012802D1D9A0B9
:10320000FFF77CF9701C86B2B6F5FA7FE4DD08E3BF
:10321000DAA12068FDF708F8F0B9DCA0FFF76EF935
:10322000002615E0FDF738FD2021DD48FDF776FC8E
:1032300018B9DCA0FFF762F908E02021D848FDF7B3
:103240006DFC012802D1DDA0FFF758F9701C86B291
:10325000B6F5FA7FE6DDE4E2DEA12068FCF7E4FFE4
:1032600018B9E0A0FFF74AF9DBE2E3A12068FCF718
:10327000DBFF68BB606800F033FDC6B26A480168D6
:103280003046884723E0FDF707FD606800F028FD21
:10329000C6B2654801693046884758B9606800F091
:1032A0001FFDC6B2604841683046884793A0FFF7CB
:1032B00025F90CE0606800F013FDC6B25A480169B8
:1032C00030468847012802D1D0A0FFF717F9DAE786
:1032D000D2A12068FCF7A8FF80B9606800F000FD6B
:1032E00006463146D0A0FFF709F900F023FC6068DC
:1032F00000F0F6FC0646FDF7ADFE92E2CEA1206896
:10330000FCF792FF80B9606800F0EAFC064631469F
:10331000CCA0FFF7F3F800F01DFC606800F0E0FCC3
:103320000646FDF797FE7CE2CBA12068FCF77CFF08
:1033300010B900F0CFFA74E2CAA12068FCF774FF5C
:1033400058B98021CB48FDF7F4FBC820FFF71EFEDB
:103350008021C848FDF7EBFB63E2C7A12068FCF7BA
:1033600063FF30B9C74842780178C7A0FFF7C6F8B5
:1033700057E2D0A12068FCF757FF88B9CFA0FFF72C
:10338000BDF800BFD048006800F4E060CF490843B2
:10339000001DCD490860BFF34F8F00BF00BFFEE79F
:1033A000CBA12068FCF740FF40B9CCA0FFF7A6F8FE
:1033B0000522CE490120FFF779F832E2CCA120683E
:1033C000FCF732FF40B9CDA0FFF798F80522CF49AE
:1033D0000120FFF76BF824E2CDA12068FCF724FF61
:1033E00060B9CDA0FFF78AF8606800F079FCCE499B
:1033F000CE4A12788854CD48007899E1A4E10000C3
:10340000434845434B5F414C4C5F4D4F544F000088
:103410003E206F70656E206D6F746F206E756D202D
:1034200025640D0A00000000840000204F50454E26
:103430005F4C4F434B0000003E206F70656E206C68
:103440006F636B206E756D2025640D0A000000000F
:10345000434845434B5F414C4C5F4C4F434B00004E
:10346000434C4F434B5F4C4F434B00003E20636C3B
:103470006F7365206C6F636B206E756D2025640D16
:103480000A00000052554E00434C4F5345000000C7
:103490006D6F746F725F7475726E5F6F6666000039
:1034A0000010014068656C6C6F5F776F726C640030
:1034B0003E2068656C6C6F2C776F726C64210D0A0E
:1034C00000000000544553545F4E554D000000006D
:1034D0003E2074657374206E756D2025640D0A009E
:1034E000464545544241434B000000003E204645BE
:1034F00045544241434B0D0A000000003E206765E1
:103500007420746865207369676E616C0D0A000031
:103510003E2068617665206E6F207369676E616C0E
:103520000D0A0000434845434B5F53454E534F52ED
:103530005F4100003E2073656E736F7220412074FE
:10354000657374210D0A0000001C01403E20736564
:103550006E736F72204120657175616C20300D0AA9
:10356000000000003E2073656E736F72204120657D
:103570007175616C20310D0A00000000434845431D
:103580004B5F53454E534F525F4200003E207365E0
:103590006E736F7220422074657374210D0A0000EF
:1035A000001401403E2073656E736F7220422065E7
:1035B0007175616C20300D0A000000003E207365BB
:1035C0006E736F72204220657175616C20310D0A37
:1035D00000000000434845434B5F53454E534F5254
:1035E0005F4300003E2073656E736F72204320744A
:1035F000657374210D0A0000434845434B5F4D4FEE
:10360000544F5F5349474E414C0000003E206E6FBF
:10361000207369676E616C0D0A00000052554E5FA1
:103620004C454654000000003E2072756E206C65CB
:1036300066742025640D0A0052554E5F5249474872
:10364000540000003E2072756E2072696768742015
:1036500025640D0A0000000052554E5F4241434B65
:1036600000000000434845434B5F4C4F434B5F4FC6
:1036700050454E00000C01404745545F54494D45AC
:1036800000000000900F00203E2063616C656E64B6
:1036900061722E686F7572203D2025640A63616C2B
:1036A000656E6461722E6D696E203D2025640D0A81
:1036B0000000000052455354415254003E207265B0
:1036C00073746172740D0A000CED00E00000FA05DD
:1036D00047554E5F4F50454E000000003E20677535
:1036E0006E206F70656E0D0A000000004C00002017
:1036F00047554E5F434C4F53450000003E206775D1
:103700006E20636C6F73650D0A000000520000208C
:1037100041525241590000003E206172726179208D
:10372000746573740D0A0000710000201100002000
:10373000401C3D4908703D480978425C3A48017890
:103740003BA0FEF7DBFE6CE03FA12068FCF76CFDC0
:10375000002866D13EA0FEF7D1FE142102A8FCF796
:1037600058FD3E4903C9CDE90001681CC5B22F4888
:10377000425D29462EA0FEF7C1FE7E208DF808008E
:10378000606800F0ADFAC0B28DF80900FDF77AFE6E
:103790008146002008E0C10029FA01F1CAB202AB5B
:1037A000811C5A54411CC8B20328F4DD08208DF84E
:1037B0000E00002506E01DF80510E81D02AA1154B0
:1037C000681CC5B2082DF6D3A06800F089FAC0B213
:1037D0008DF815000D220DF109014FF6FF70FDF770
:1037E00027F80646F0B28DF8160030128DF8170053
:1037F0009DF817209DF8161019A0FEF77FFE0020F7
:103800008DF818007E208DF81900002706E002A828
:10381000C15D22A0FEF772FE781CC7B2112FF6DD43
:1038200000BF07B0BDE8F083110000207100002048
:103830003E20675F61727261795F4D4C5B25645D0C
:10384000203D2025640D0A004745545F4352430044
:103850003E20676574206372630D0A00643D0008B2
:103860003E207265706F72745F646174615B3134A5
:103870005D203D203078253032780A20202020201D
:10388000207265706F72745F646174615B31355D65
:10389000203D203078253032780D0A002025303246
:1038A0007820000070B50446012C01DB202C01DDDE
:1038B000002070BD621E064B03EBC2029188621E9F
:1038C00053F83200FDF72AF905462846F1E70000D3
:1038D000A001002010B54FF480611A48FDF729F9C6
:1038E0004FF480511748FDF724F900F023F922E046
:1038F0006420FFF74BFB19E0FDF7CEF91248008872
:10390000FFF7F0FA08211148FDF713F910210F48CD
:10391000FDF70FF90C480088FFF7E4FA08210B487F
:10392000FDF705F910210948FDF701F9084800786D
:103930000128E1D110BD064800780128D8D100BF88
:10394000F8E700000010014042000020000C014098
:103950004000002010B5FDF713FD1648007806283A
:1039600013DC4FF480711448FDF7E1F84FF4007157
:103970001148FDF7DCF840210F48FDF7D8F84FF467
:1039800000410E48FDF7D3F812E04FF480710A4869
:10399000FDF7CFF84FF400710748FDF7CAF8402152
:1039A0000548FDF7C6F84FF400410448FDF7C1F89B
:1039B00010BD0000900F0020000C014000200140CD
:1039C0002448FCF761FFFFF799FA4FF4A060FDF778
:1039D000F1FB4FF4E13000F0CDF84FF4E13000F0AE
:1039E0002DF9FDF7CDF941F61F410520FEF752FBF9
:1039F00041F61F414FF47A70FEF7B8FA41F61F41C5
:103A00004AF6C870FEF7FAFA00F08CF880211248E6
:103A1000FDF78DF8FDF7D6FD10A0FEF76FFD4FF412
:103A200080610620FDF73CF912E0FDF735F9FDF75E
:103A30001FFFFDF7CDF8FEF769F900F01BF800F065
:103A40005FF84FF400510A48FDF771F800F05EF995
:103A5000EBE7000004000020000C01403E207379D9
:103A60007374656D207374617274210D0A00000017
:103A7000001C014010B50120FDF75CF913490870E6
:103A80000846007800B30846007801281AD10020C3
:103A90000F49087011E0FDF7FFF80D48007800F0BD
:103AA00019F8C820FFF74CFA09480078FFF704FA24
:103AB00007480078401C0649087005480078162819
:103AC000E9DD00E000BF00BF10BD0000680000207D
:103AD0006900002010B50446012C01DB382C01DD03
:103AE000002010BD621E054B03EBC2029188621ECE
:103AF00053F83200FDF71DF800BFF2E7A0020020E6
:103B000010B50648007838B1002004490870082232
:103B10000349FF20FDF762FE10BD00003C000020BD
:103B20004400002010B502210148FDF702F810BD45
:103B30000018014010B501210448FCF7FAFF4FF4CA
:103B400000610348FCF7F5FF10BD000000140140C0
:103B50000010014010B501210448FCF7E8FF4FF4C4
:103B600000610348FCF7E3FF10BD000000140140B2
:103B70000010014010B586B00446012144F2040053
:103B8000FDF752FB4FF40070ADF8140003208DF8E0
:103B9000160018208DF8170005A92248FCF7EBFE47
:103BA0004FF48060ADF8140004208DF8170005A9CB
:103BB0001C48FCF7E0FE25208DF8000003208DF85E
:103BC00001008DF8020001208DF803006846FDF722
:103BD000B9FA01940020ADF80800ADF80A00ADF87C
:103BE0000C00ADF810000C20ADF80E0001A90E4835
:103BF000FEF788FB012240F225510B48FEF75DFBE2
:103C000001210948FEF716FB4FF480620749084876
:103C1000FFF7FCF84FF4806206490748FFF7F6F813
:103C200006B010BD00080140003801409007002098
:103C300080030020900B00207003002010B586B098
:103C4000044601210420FDF7EFFA01214804FDF7A5
:103C5000DBFA0420ADF8140003208DF816001820BC
:103C60008DF8170005A91C48FCF785FE0820ADF863
:103C7000140004208DF8170005A91748FCF77BFEF7
:103C800026208DF8000003208DF801008DF8020039
:103C900001208DF803006846FDF754FA01940020D6
:103CA000ADF80800ADF80A00ADF80C00ADF8100052
:103CB0000C20ADF80E0001A90848FEF723FB0122F5
:103CC00040F225510548FEF7F8FA01210348FEF7B6
:103CD000B1FA06B010BD00000008014000440040E9
:103CE00070B50446002574B106E02078303805EB45
:103CF000850100EB4105641CFCF736FA0068217869
:103D0000405C2028F1D0284670BD000011481249BF
:103D10000978405C002810DD1048007801280CD19B
:103D20000C480D490978405C0D4908730020094989
:103D3000094A127888540949087007480078401CDD
:103D40000549087008460078072801DB0020087044
:103D50007047000071000020100000207C0000204F
:103D60008400002001020304050600000000211069
:103D7000422063308440A550C660E77008812991D5
:103D80004AA16BB18CC1ADD1CEE1EFF1311210027D
:103D900073325222B5529442F772D6623993188325
:103DA0007BB35AA3BDD39CC3FFF3DEE36224433449
:103DB00020040114E664C774A44485546AA54BB575
:103DC00028850995EEE5CFF5ACC58DD5533672261D
:103DD00011163006D776F6669556B4465BB77AA7C5
:103DE00019973887DFF7FEE79DD7BCC7C448E55869
:103DF0008668A7784008611802282338CCC9EDD915
:103E00008EE9AFF9488969990AA92BB9F55AD44ABC
:103E1000B77A966A711A500A333A122AFDDBDCCB64
:103E2000BFFB9EEB799B588B3BBB1AABA66C877C88
:103E3000E44CC55C222C033C600C411CAEED8FFDB4
:103E4000ECCDCDDD2AAD0BBD688D499D977EB66E5C
:103E5000D55EF44E133E322E511E700E9FFFBEEF04
:103E6000DDDFFCCF1BBF3AAF599F788F8891A981C6
:103E7000CAB1EBA10CD12DC14EF16FE18010A100B0
:103E8000C230E3200450254046706760B9839893A0
:103E9000FBA3DAB33DC31CD37FE35EF3B102901200
:103EA000F322D2323542145277625672EAB5CBA56C
:103EB000A89589856EF54FE52CD50DC5E234C32450
:103EC000A01481046674476424540544DBA7FAB740
:103ED0009987B8975FE77EF71DC73CD7D326F236A0
:103EE0009106B01657667676154634564CD96DC98C
:103EF0000EF92FE9C899E9898AB9ABA944586548F0
:103F000006782768C018E1088238A3287DCB5CDBDF
:103F10003FEB1EFBF98BD89BBBAB9ABB754A545A3F
:103F2000376A167AF10AD01AB32A923A2EFD0FEDAB
:103F30006CDD4DCDAABD8BADE89DC98D267C076C8F
:103F4000645C454CA23C832CE01CC10C1FEF3EFF7F
:103F50005DCF7CDF9BAFBABFD98FF89F176E367EDF
:103F6000554E745E932EB23ED10EF01E000000003E
:103F7000963007772C610EEEBA51099919C46D0776
:103F80008FF46A7035A563E9A395649E3288DB0ED1
:103F9000A4B8DC791EE9D5E088D9D2972B4CB609B4
:103FA000BD7CB17E072DB8E7911DBF906410B71D91
:103FB000F220B06A4871B9F3DE41BE847DD4DA1ACA
:103FC000EBE4DD6D51B5D4F4C785D38356986C13FB
:103FD000C0A86B647AF962FDECC9658A4F5C011474
:103FE000D96C0663633D0FFAF50D088DC8206E3B52
:103FF0005E10694CE44160D5727167A2D1E4033C64
:1040000047D4044BFD850DD26BB50AA5FAA8B5358A
:104010006C98B242D6C9BBDB40F9BCACE36CD83279
:10402000755CDF45CF0DD6DC593DD1ABAC30D92620
:104030003A00DE518051D7C81661D0BFB5F4B42123
:1040400023C4B3569995BACF0FA5BDB89EB8022820
:104050000888055FB2D90CC624E90BB1877C6F2FA5
:10406000114C6858AB1D61C13D2D66B69041DC76A0
:104070000671DB01BC20D2982A10D5EF8985B17179
:104080001FB5B606A5E4BF9F33D4B8E8A2C9077828
:1040900034F9000F8EA8099618980EE1BB0D6A7FBF
:1040A0002D3D6D08976C6491015C63E6F4516B6B78
:1040B00062616C1CD83065854E0062F2ED95066C2D
:1040C0007BA5011BC1F4088257C40FF5C6D9B065A2
:1040D00050E9B712EAB8BE8B7C88B9FCDF1DDD62FF
:1040E000492DDA15F37CD38C654CD4FB5861B24D65
:1040F000CE51B53A7400BCA3E230BBD441A5DF4A2F
:10410000D795D83D6DC4D1A4FBF4D6D36AE96943F1
:10411000FCD96E34468867ADD0B860DA732D04449C
:10412000E51D03335F4C0AAAC97C0DDD3C710550C7
:10413000AA41022710100BBE86200CC925B568576E
:10414000B3856F2009D466B99FE461CE0EF9DE5EB7
:1041500098C9D9292298D0B0B4A8D7C7173DB35968
:10416000810DB42E3B5CBDB7AD6CBAC02083B8EDF9
:10417000B6B3BF9A0CE2B6039AD2B1743947D5EA06
:10418000AF77D29D1526DB048316DC73120B63E335
:10419000843B64943E6A6D0DA85A6A7A0BCF0EE494
:1041A0009DFF099327AE000AB19E077D44930FF04F
:1041B000D2A3088768F2011EFEC206695D5762F746
:1041C000CB67658071366C19E7066B6E761BD4FE83
:1041D000E02BD3895A7ADA10CC4ADD676FDFB9F960
:1041E000F9EFBE8E43BEB717D58EB060E8A3D6D622
:1041F0007E93D1A1C4C2D83852F2DF4FF167BBD150
:104200006757BCA6DD06B53F4B36B248DA2B0DD852
:104210004C1B0AAFF64A0336607A0441C3EF60DFF5
:1042200055DF67A8EF8E6E3179BE69468CB361CBDE
:104230001A8366BCA0D26F2536E2685295770CCC03
:1042400003470BBBB91602222F260555BE3BBAC544
:10425000280BBDB2925AB42B046AB35CA7FFD7C235
:1042600031CFD0B58B9ED92C1DAEDE5BB0C2649B26
:1042700026F263EC9CA36A750A936D02A906099C59
:104280003F360EEB8567077213570005824ABF95CC
:10429000147AB8E2AE2BB17B381BB60C9B8ED2924F
:1042A0000DBED5E5B7EFDC7C21DFDB0BD4D2D386A6
:1042B00042E2D4F1F8B3DD686E83DA1FCD16BE8119
:1042C0005B26B9F6E177B06F7747B718E65A0888EA
:1042D000706A0FFFCA3B06665C0B0111FF9E658F7B
:1042E00069AE62F8D3FF6B6145CF6C1678E20AA025
:1042F000EED20DD75483044EC2B30339612667A7AB
:10430000F71660D04D476949DB776E3E4A6AD1AEF9
:10431000DC5AD6D9660BDF40F03BD83753AEBCA988
:10432000C59EBBDE7FCFB247E9FFB5301CF2BDBDF5
:104330008AC2BACA3093B353A6A3B4240536D0BAFE
:104340009306D7CD2957DE54BF67D9232E7A66B39B
:10435000B84A61C4021B685D942B6F2A37BE0BB448
:10436000A18E0CC31BDF055A8DEF022D1F1C1F1ED3
:104370001F1E1F1F1E1F1E1F00030306010406022F
:10438000050003051F1C1F1E1F1E1F1F1E1F1E1FB3
:104390000040404040404040404041414141414058
:1043A000404040404040404040404040404040400D
:1043B000400502020202020202020202020202029C
:1043C00002202020202020202020200202020202A1
:1043D00002029090909090901010101010101010F9
:1043E0001010101010101010101010100202020205
:1043F0000202888888888888080808080808080849
:104400000808080808080808080808080202020244
:1044100040000000914300081F1D1F1E1F1E1F1F8C
:104420001E1F1E1F4D4F544F000000004C4400083B
:10443000000000207003000084070008C845000841
:1044400070030020581000002C250008120001E025
:104450000A244400080130000800016004A24A0454
:104460000BF0090102030406070809242004009048
:10447000011C12051D100904E40400FF1404E506E4
:10448000A21338211C011038111C33010167400BA5
:10449000CD1100085D080008BD17845007A538003D
:1044A00008D53A9030070801401000100822400853
:1044B00050051C0140080822020850051001400167
:1044C000104300041052041852023852011061388F
:1044D0005300020842015052805861605220086126
:1044E00078614852204861905280103118520C78FF
:1044F000520C98820C985204B061881300208052AC
:1045000018D05218205218785218605218B022143D
:104510002815872220B8410852201022081811E0DF
:1045200040040001045852021092801811404304C4
:10453000000853020028513052801071604201601F
:1045400052806052403852080861185300080852DF
:104550000410371004006198530040084220B05204
:1045600010B0618831A052142852144852143052AD
:10457000145052146825D8338010405601285680B4
:10458000605300100852200846805035D85618E86D
:104590008620903920213852083052402852040891
:1045A000520808614852101055B03130521C285240
:1045B0001C205214705A145899F86D34037C04026C
:0845C0000406000300000000E6
:0400000508000131BD
:00000001FF
