:020000040800F2
:1000000088160020116C00086569000867690008FF
:10001000696900086B6900086D690008000000004C
:100020000000000000000000000000004750000831
:100030006F690008000000000150000871690008A5
:10004000576C00085B6C00085F6C0008636C00086C
:10005000676C00086B6C00086F6C0008736C00081C
:10006000776C00087B6C00087F6C0008836C0008CC
:10007000876C00088B6C00087F6900088F6C000893
:10008000856900088B690008936C0008976C00086C
:100090009B6C00089F6C0008A36C0008A76C00080C
:1000A000AB6C0008AF6C0008B36C0008B76C0008BC
:1000B000BB6C0008BF6C0008C36C0008C76C00086C
:1000C000CB6C0008CF6C0008D36C0008D76C00081C
:1000D000DB6C000891690008A7690008DF6C000864
:1000E000E36C0008E76C0008EB6C0008EF6C00089C
:1000F000F36C0008F76C0008FB6C0008FF6C00084C
:10010000036D0008076D00080B6D00080F6D0008F7
:10011000136D0008176D00081B6D00081F6D0008A7
:10012000236D0008276D00082B6D00082F6D000857
:100130002DE9F04F0FF2A41CA1B0DCE90089CDE954
:1001400000892A9DDFF8DC9B049100248DF8435040
:100150000D944FF0FF38824616461F460FE0B34617
:100160002C461BF8011B0498D0470028049000F08F
:10017000A2800D98401C641E0D90F2D17619307843
:10018000252808D1002100220791089209910A929E
:100190000B910C920DE06A464146304600F0F9FFA3
:1001A000050001D10D98A1E0D9D50125E6E741F080
:1001B000010116F8010F2028F9D023280CD02B2894
:1001C00004D02D2805D0302809D076E041F0020176
:1001D000EFE741F00401ECE741F00801E9E741F005
:1001E0001001E6E70F9209E00F98484505DA00EBA9
:1001F000800402EB4402303A0F92761C3278A2F16E
:1002000030000A28F0D330782E2818BFCDF8388077
:1002100022D116F8010F2A2807D138683860761CD9
:1002200050F8042B38600E9216E02D280CBF761C77
:10023000002000220E920AE040B90E9A4A4505DAE3
:1002400002EB820403EB4403303B0E93761C3378BD
:10025000A3F130020A2AEFD3ADF8401021A0317883
:1002600000F0A2FF08B116F8010B8DF842009DF8CE
:100270004200682804D1307868280AD1622105E05C
:100280006C2804BF30786C2803D171218DF842109E
:10029000761C12A806903A4616F8013B02A9504671
:1002A00000F064F838B912AA02A9504600F0C8F963
:1002B00000287FF564AF404618E02A2892D13A68BA
:1002C0003A6052F8040B3A6000280F9003D5404280
:1002D0000F9041F00401761C95E70000000000003B
:1002E00000000000686A6C747A4C000021B0BDE820
:1002F000F08F622820D0682811D06A2803D06C289B
:1003000027D0712825D10868C01D20F0070008609B
:10031000D0E9002308300860194610467047002ACB
:100320000A680A60106803D0121D0A6000B217E064
:10033000121D0A6080B217E0002A0A680A6010687D
:1003400003D0121D0A6040B20AE0121D0A60C0B25A
:100350000AE0002A0A680A60106803D0121D0A60C9
:10036000C1177047121D0A60002170477CB50D4609
:1003700011461C462E69B4F1250200F04F811C3A4B
:1003800000F08480121F022A40F280800E3A00F0B2
:100390000981521F59D0093A78D0921E16D0521EA8
:1003A00035D0521E022A71D9121F30D0521F00F0D0
:1003B0009880521E49D0521E00F0E280D21E00F0FA
:1003C000FF80921E41D0D21E3FD02DE195F83A40D9
:1003D0006C2C09D06869421C6A610A680A6052F88C
:1003E000043B0A60335429E10A680A6052F8043B6E
:1003F0000A600093002201924FF0FF332B636A469C
:10040000294600F098F9002840F1188103E195F899
:100410003A000122FFF76DFFC5E90001002904D56C
:100420006869411C69612D220DE0288F810704D580
:100430006869411C69612B2205E0C00721D5686904
:10044000411C6961202232541BE095F83A000022D9
:10045000FFF74FFFC5E9000195F83800010710D5F7
:10046000D5E90023002B08BF002A0AD044F0200061
:10047000782806D1686930213154401C421C6A61D9
:100480003454214668693044E86087E00868C01D3C
:1004900020F007000860D0E9002308300860C5E9B3
:1004A0000023D5E90001C80F04D06869411C6961C7
:1004B0002D220DE0288F810704D56869411C6961F0
:1004C0002B2205E0C00704D56869411C6961202220
:1004D000325468693044E8602146284600F036FA14
:1004E000ACE005F13A02507820B14FF0FF340FF63E
:1004F000043074E01078622808D0682824D06A2874
:1005000012D06C282ED071280ED02BE00A680A6019
:1005100052F8040B0A6020B94FF0FF340FF6EC20BC
:100520005DE0E96A017089E00A680A6052F8040B2C
:100530000A6020B94FF0FF340FF6D0204FE0EA6A8E
:10054000D317C0E9002379E00A680A6052F8040B67
:100550000A6020B94FF0FF340FF6B0203FE0E96A9F
:1005600001806BE00A680A6052F8040B0A6020B947
:100570004FF0FF340FF6942031E0E96A01605DE04E
:100580000A680A6052F8040B0A60002120F0000299
:1005900021F0FF33C5E90023EE607821284600F002
:1005A0002DF94BE06C2285F83A200B680B6053F86C
:1005B000042B0B6052BB4FF0FF340FF684200EE08B
:1005C00095F83A206C2AF0D00868086050F8044B7F
:1005D0000860EC603CB94FF0FF340FF6482000F0A3
:1005E0000BFE201A76BD2E6B002E04D5204600F09F
:1005F00023FE044608E032460021204600F026FE95
:10060000002814BF041B3446AC6117E0294600F0F3
:1006100092F8002812D54FF0FF3076BD6869411C72
:1006200069612522325409E06969481C6861252204
:100630007254210002D0431C6B613454002076BDFB
:100640002DE9F0410E4605469046726B7069316A9D
:10065000B46A121AB069521A716A121AF069521AFF
:10066000121A96F83800141B41070DD4002C0BDD2C
:100670002746B0682021A8470028B06057D0F06A0C
:10068000401C7F1EF062F4D1736942463146284611
:1006900000F098FC00284AD1376A002F0ADDB068C4
:1006A0003021A8470028B06041D0F06A401C7F1E6E
:1006B000F062F4D1B369F2683146284600F082FC5A
:1006C000A8BB776A002F09DDB0683021A847B06069
:1006D00068B3F06A401C7F1EF062F5D1F068B16922
:1006E000F36942183146284600F06CFCF8B9B76A45
:1006F000002F09DDB0683021A847B060B8B1F06ABA
:10070000401C7F1EF062F5D196F8380041070BD5EA
:10071000002C09DDB0682021A847B06038B1F06A2C
:10072000401C641EF062F5D10020BDE8F0814FF05E
:10073000FF30BDE8F0812DE9F8470D46A3B02F6BDF
:10074000002F0646904648BF6FF000470FF60C1486
:1007500000F0A8FDD4E90023696B4018CDE901231E
:10076000812828BF4FF0FF3042D20024002F33DD14
:10077000D8F8001001AA684600F00DFD8146B9F1D5
:10078000000F38D4D8F8000010B9B9F1010932D4FB
:100790004F4521DB6869484481280AD300216963F9
:1007A00003AA29463046FFF74BFF040014D400206B
:1007B000686103ABD5F814A04A46694603EB0A000A
:1007C00000F084FDCA44C5F814A058F8040B0028B2
:1007D00018BFA7EB0907C9D14CB903AA294630466F
:1007E000FFF72EFF044614B90020686168632046B5
:1007F00024B0BDE8F0874FF0FF34F8E72DE9FC4363
:1008000007466F293E6908BF082405D041F0200043
:10081000782814BF0A2410243C25D7E90023642932
:1008200018BF69299046994605D1002B03D5D8F108
:10083000000869EB4909B9F1000F08BFB8F1000FD2
:100840001FD1386BE8B9082C4CD197F83800010754
:1008500048D530203B2586F83B0043E000280ED5E4
:1008600097F8380000F01400102808D17B6B7969E4
:10087000386A5B1A1B1A9A1A002AC8BF3A62BDE886
:10088000F3838DF80010404649462246E31700F0F6
:1008900029FD3032D0B26D1E3A28019504DB9DF857
:1008A0000000A0F151018A1872554046494622467F
:1008B000E31700F017FD80465FEA010908BFB8F1B1
:1008C000000F03D0F86871198842DCD3082C09D1D5
:1008D00097F83800010705D5705D302802D06D1EED
:1008E00030207055C5F13C02BA617119F960386B5E
:1008F0008242B3DA821A3A624FF6EF70398F0140C2
:100900003987BDE8F3832DE9D04306460F461446E8
:100910004FF00008DFF8109412E0E00707D54246D8
:100920004B463046394600F0F5FD06460F46404638
:10093000494642464B4600F0EDFD6410804689462C
:10094000002CEAD130463946BDE8D0832DE9F84F76
:1009500005468A464AF020048EB0D5E90089612C0C
:1009600002AE09D0286B002848BF062003D408BF78
:10097000672C01D101202863D5E900014A005215F6
:10098000521C0DD10B030BD0AAF1610103201A29CF
:10099000A86102D20FF2CC6110E00FF2CC610DE041
:1009A0004A005215521C0ED10B030CD1AAF1610161
:1009B00003201A29A86116D30FF2B461E868032254
:1009C00000F084FCC0E1CDE90C01DDE90C2323F04B
:1009D0000043B3F5801F0DD20027002B08BF002A6B
:1009E000019703D111E00FF28461E7E701AA00F05B
:1009F0006FFE0AE0CD48CE4900EB1350DDE90C2331
:100A000001900B40CB4910461943C5E90001612C08
:100A10000DD1E86830210170821CBAF1610FEA60E3
:100A20000CBF7821582141706869801C6861D5E944
:100A30000001CDE90C01DDE90C2333F0004104BFD6
:100A40000028002300F04881612C40F0A080286B32
:100A5000494600284CBF4FF0210B00F1010B4046E6
:100A600000220023DDE90C8900F06AFE01990BF1F8
:100A7000010738BF89F00049091F002F01918DF847
:100A800008200DF1090040F33581A949009106467F
:100A9000404649460022002300F06AFE80F029818A
:100AA0004800400D00F11C0211D0002A0FDD40F279
:100AB000FF739A4205DBA04909F000400143002082
:100AC00011E0009B194041EA025140460BE028F03A
:100AD000000039F0004108BF00280FBF49461C2222
:100AE000494600F05DFE8046894600F0F7FEFF1F94
:100AF000002F044609DD00F00FFF02460B4640467A
:100B0000494600F01BFF80468946F01D072104E09E
:100B100004F00F0200F8012D2411002C01DD491E04
:100B2000F6D5491E5CBF002200F8012DF9D5DCE0A6
:100B30000020194602AA0A4400E05B1E12F801498F
:100B4000491E8442F9D00F2804D10DF10900425CFE
:100B5000521C4254002904D50198001D02AE5B1CB2
:100B60000190581E0CD43118AAF13A040A78303298
:100B7000D7B23A2FA8BFA218401E01F80129F5D517
:100B8000286B002840F1A780591E2963A3E0019932
:100B90006A4A47F29750414391FBF2F2019229F0E1
:100BA0000046D2F1070204DD40463146FFF7ABFEB6
:100BB0000AE0524200206249FFF7A5FE02460B46BA
:100BC0004046314600F02CFF8046662C286B06BF5D
:100BD000019F0A3706273F18142FC8BF142730205B
:100BE0008DF8080089460DF1090000E03046002F1D
:100BF00034DD06464046494601F036F801460A46CD
:100C000006F1080304200A26B2FBF6F606EB860E70
:100C1000A2EB4E02303203F8012C0A22B6FBF2F2AC
:100C200002EB820EA6EB4E063036401E03F8026D34
:100C3000E9D1083F002F03F10806D7DD084601F08F
:100C400027F802460B464046494600F077FE002250
:100C50003C4B00F05FFC80468946CBE70DF1090173
:100C6000401A0DF1090604E00199491E401E019148
:100C7000761C31783029F7D0662C02D10199491CB5
:100C800003E0652C0CBF012100212B6BCB1898428F
:100C9000B8BF431E002B1ED4834204DAF05C352813
:100CA000A8BF392000DA30201946721E02EB010875
:100CB00000E05B1E18F80199491E8145F9D03928DA
:100CC00002D1705C401C7054002904D50198401C6E
:100CD00016465B1C0190019800B200901BB2324690
:100CE0005146284600F034F82EE0C61D002F3FF78D
:100CF000CFAE30460DF10901401A03465845C8BF32
:100D00005B46002B0DF109063FF53AAF8342BFF673
:100D10000FAF0DF10900C15C07297FF709AF0F2064
:100D200007E70000CBCCCC0C0000244002FCFFFF06
:100D3000FFFF0F800000E03F0000F07FA086010071
:100D40000000F03F84D797410FB0BDE8F08F00005E
:100D50002DE9F84783B006468A461746984600F0C4
:100D60001CFAB8F1000F406A356B90F8009002DC75
:100D70004FF00108BFA74AF02000BDF930406628B7
:100D800008BF641C15D0672840F0848014F1040F5C
:100D9000C0F28680AC4280F2838096F83800641CF2
:100DA000010702D4A845B8BF454620B22D1A48BF56
:100DB00000250FFA84FAF068B169BAF1000F25DC5A
:100DC0004A1C30234354002D03DC96F838000107F9
:100DD00003D5F06800F80290521C15EB0A0FB8BF5B
:100DE0006C4220B2441941424445B8BFA046B261AA
:100DF00071620FFA88F5F561F068B3692A463946E1
:100E0000184400F063FA641BB462C4E022B2904557
:100E1000084417DA4246394600F058FAB0694044AF
:100E2000B061AAEB0801002D716203DC96F838105E
:100E30000A0705D5F16801F80090F069401CF061DF
:100E4000B562A8E0394600F041FAB069002D50447F
:100E5000A8EB040803DC96F838100A0703D5F168FC
:100E600001F80090401CB0610FFA88F08542F368E9
:100E7000B069B8BFA8460FFA88F207EB0A01184418
:100E800000F024FAB1690FFA88F00144B161281A20
:100E9000706280E0BAF1610F14D14FF0700A16E071
:100EA000A84504DA96F838100A0758BF45466D1E63
:100EB00048BF0025BAF1670F14BF4FF0450A4FF045
:100EC000650A04E0BAF1410F08BF4FF0500AB1695A
:100ED000F368481CB061002D17F8012B5A5403DC4D
:100EE00096F838100A071BD5F168431CB36101F866
:100EF0000090002D14DDA8F101080FFA88F03946A2
:100F00008542F768B8BFA8460FFA88F2F81800F0D3
:100F1000DDF9B0690FFA88F108446D1AB0617562A5
:100F2000F068B1690844002C80F800A003D42B229B
:100F30004270811C03E02D2141706442811C00201D
:100F40006A460AE023460A2493FBF4F404EB840582
:100F5000A3EB450302F8013B401C24B2002CF1DC5A
:100F6000012806DC4AF02002652A04BF302201F87D
:100F7000012B48B9302001F8010B07E0401E1DF895
:100F80000030303301F8013B0028F7DCF268B0692B
:100F90001044091AF16196F8380000F01400102886
:100FA0000DD17269B169706A8A18F1698218B06AE4
:100FB0008A188218706B8242BCBF821A326204B0F7
:100FC000BDE8F087F8B505460E4617461C460020DA
:100FD00074B117F8011BB068A847B06030B1F06A6F
:100FE000401CF0620020641EF3D1F2BD4FF0FF30D0
:100FF000F2BD00007072696E74665F733A20256EF0
:1010000020646973616C6C6F776564007072696EDF
:1010100074663A2062616420256E20617267756D86
:10102000656E74007072696E74665F733A206261F7
:101030006420257320617267756D656E7400000011
:101040007072696E74665F733A2062616420256C09
:101050007320617267756D656E740000000000009A
:10106000000000006E616E004E414E00696E660029
:10107000494E46003000F0B40246106895681318D7
:10108000506803EB5004C0071DD54D441BE013F816
:10109000017B05F8017B491EF9D1A0B1B60813F810
:1010A000011B06F00306032E08BF13F8016B01EBCA
:1010B00006214942801C294405D011F8016B05F82E
:1010C000016B401EF9D1A3420ED013F8016B16F04C
:1010D000030104BF13F8011BC91C30090F28DAD122
:1010E00013F8010B0F30D6E7F0BC02F10C0070478B
:1010F000613807E005E0A0F161011A2901D2012061
:10110000704741381A288041C00F7047A0F1210173
:101110000F290AD3A0F13A02062A06D9A0F15B01F1
:10112000062902D37B380428EDE7012070471C48CC
:10113000704770B45368D418042B09DA41B10578AC
:1011400004F8015B10F8016B16B15B1C491EF3E754
:10115000536070BC704738B514461D4661B1FFF747
:10116000E8FF61686A6B204690476FF00102811AC0
:1011700002D0491E01D001E003E005E000216160DA
:1011800032BD6FF0010032BD4FF0FF3032BDDA6B7F
:101190001047034BDFE7024BF9E7024870470000B6
:1011A000C802002090020020C9B202788A421AB117
:1011B0001CBF10F8012FF9E718BF0020704730B4AA
:1011C000002513E050F8042BD30744BFA9F1010315
:1011D0009A18091F042942F8045BFAD213468C07B7
:1011E00044BF15809B1CC90748BF1D7050F8041BE5
:1011F0000029E7D130BC704780B500B906A0054989
:101200000B681BB122220021984701E000F04DFD40
:10121000222002BD84120020636F6E7374726169B4
:101220006E742068616E646C65723A20626164203D
:101230006D6573736167650000F1010310F8011BB0
:1012400011B110F8011BFBE7C01A7047C9B2830740
:1012500006D0521E22D310F8013B9942F7D11FE06D
:10126000083A13D302F1040241EA012141EA0141A3
:1012700050F8043B121F21BF4B40A3F1013C2CEA64
:10128000030C1CF0803FF3D0C9B2001F083210F8E5
:10129000013B521E28BF91EA030FF8D818BF012066
:1012A000401E704780B5FFF742FF006C02BDB1F5EC
:1012B000807F02D34FF0FF307047017001207047EC
:1012C0000078401E8041C043C00F70474AB1000003
:1012D00011F8013B521E00F8013B1CBF11F8013B05
:1012E000F8E77047BBBBE1B1B2F5803F80F07E808C
:1012F000022A1ED98C46B1FBF2F102FB11C31B047A
:1013000043EA1043B3FBF2FC02FB1C3380B240EA19
:101310000343B3FBF2F002FB103240EA0C4000231F
:101320007047022A05D98446B0FBF2F002FB10C2D6
:1013300070474AB105D100F0010249085FEA300068
:10134000704700220023704700F0B2BC0B0002007F
:10135000002100207047904271EB030CF6D3B3F5E7
:10136000803F2FD2F0B5B3FA83F7B1FA81F4A7F139
:101370000F0E3D1B5340CEF1200602FA0EF2F34150
:101380005340B5F10F0746D80F3C2C444140C4F1FF
:101390002006A040F1414140B1FBF3F603FB1611DA
:1013A000A2FB0645001BA94102D2761E80185941B6
:1013B00080EA010221FA0EF362FA0EF200215A408D
:1013C0003046F0BD30B4B1FBF3FC03FB1C11A2FBB3
:1013D0000C45001BA94103D2ACF1010C8018594106
:1013E00030BC02460B46604600217047B2F1807F58
:1013F00065D3F0B5B2FA82F7B1FA81F4C7F10F06FE
:101400003D1B22FA06F307F1110EF24120355A4036
:10141000B5F10F07B8D94140C4F12006A040F14111
:101420004140B1FBF3FC03FB1C11A2FB0C45001B6C
:10143000A94103D2BCF1010C801859410F2F12D3DE
:101440000F3FC90341EA5041B1FBF3F603FB16110C
:10145000A2FB0645D4EBC030A94102D2761E80180B
:10146000594146EACC3C07B34140C7F12006B84099
:10147000F1414140B1FBF3F603FB1611A2FB064517
:10148000001BA94102D2761E8018594180EA010250
:1014900021FA0EF3C7F1200462FA0EF20CFA07F0FB
:1014A0005A402CFA04F13043F0BD80EA010221FADF
:1014B0000EF3002162FA0EF260465A40F0BD8C46EF
:1014C000B1FBF2F102FB11C31B0243EA1063B3FB51
:1014D000F2FC02FB1C331B024CEA002043EA1063BF
:1014E000B3FBF2FC02FB1C331B024CEA002043EA74
:1014F0001063B3FBF2FC02FB1C331B024CEA00201E
:1015000043EA1063B3FBF2FC02FB1C324CEA0020FE
:1015100000237047B0B581EA030C0CF0004C40F298
:10152000FF7515EA11541DBF15EA1357AC42AF42BF
:1015300039E0E41923EA455343F48013C90241F02A
:10154000004141EA505EC7021100A7FB02020028D9
:101550004FF00000EEFB01204FF00001E3FB0721FC
:1015600018BF42F00102401800214941E3FB0E017F
:10157000A4F580640F0302D252004041494154F166
:1015800001046CDD470872F1004250F1000051EB9C
:101590000451A1F580115CBF41EA0C01B0BD4CEAD9
:1015A00005510020B0BD05EA1357AC4214BFAF424D
:1015B00041E050EA410E1CBF52EA430E02E0614690
:1015C0000020B0BD24423C441BD15FEA070EF6D098
:1015D000090302BF01460020AEF1140EB1FA81F7F3
:1015E000AEEB070401FA07FE0C37C7F1200100FA41
:1015F00007F7C8404EEA000E23EA455343F4801330
:10160000A2E733F00043B3FA83F704BFB2FA82FED5
:1016100077440B3FE41BB7F1200E2FBF02FA0EF305
:10162000BB40C7F1200E22FA0EFE38BF43EA0E037C
:10163000BA40641C82E750EA410E14BF52EA430EDE
:101640006FF000014FF4001717EB430F8ABF1946E4
:1016500017EB410FB5E74CEA05510020B0BDD4F1BE
:101660000104B4F120070FDAC4F12007520828BFA3
:1016700042F0010210FA07F501FA07F7E1BF2A4329
:10168000E0403843E1400FE0352C98DCC7F12004FE
:1016900052EA400220FA07F218BF42F0010231FA82
:1016A00007F0A1400A43002172F1004250F100000E
:1016B00051EB0C01B0BD8268521C8260426832B1AD
:1016C0000268531C036011704168491E41607047F5
:1016D00010B5144600F002F8226010BDC1F30A53A1
:1016E00043B14A0012F5001F28D2A3F2FE32A1EB4B
:1016F0000251704750EA410C20D001F0004C31EA11
:101700000C01B1FA81F204BFB0FA80F3D2180B3A9F
:10171000B2F120032CBF00FA03F1914041EA0C0121
:101720003EBFC2F1200C20FA0CF319439040524204
:1017300040F2FD33D21A01EB03517047002270478B
:101740004FF4001C1CEB410F94BF1CEB430F09E04E
:1017500041EA030C50EA4C0C52EA0C0C03D29942B9
:1017600008BF9042704714BF8B428242704700000E
:101770004FF4001C1CEB410F94BF1CEB430F09E01E
:1017800041EA030C50EA4C0C52EA0C0C03D28B4297
:1017900008BF8242704714BF9942904270470000D0
:1017A000124254D440F2FF7C1CEA11530FD063451F
:1017B00031D09B1863453CBF01EB0251704701F0EB
:1017C000004141EA0C510020AFF30080704750EA1D
:1017D000410320D001F0004C91EA0C011CD0B1FA79
:1017E00081F30B3B9A420DD9D21A994051EA0C0170
:1017F000C3F1200C20FA0CFC61449840531C40F2C9
:10180000FF7CD7E7914041EA0C01C2F1200C20FA9D
:101810000CF3194390407047B0FA80F31533202B36
:10182000E0D3202AEED3203A203B9A4209D9D21A9B
:1018300000FA03F141EA0C010020531C40F2FF7C46
:10184000B8E700FA02F141EA0C0100207047524269
:1018500040F2FF7C1CEA11530DD06345DBD0B2EBA4
:10186000030C3CBFA1EB025170470CF1010221EACD
:10187000035141F4801150EA410CCCD001F0004CEE
:10188000352A27DC30B481EA0C01B2F1200309DAF1
:10189000C2F12003044601FA03F5D0402843D140A9
:1018A0009C400CE0C3F12002450020FA03F418BF6D
:1018B00044F0010421FA03F091400C43002174F13B
:1018C000004550F1000051EB0C01244230BC7FF484
:1018D0007BAF70476146002076E70000C1F30A53F2
:1018E00040F2FE329B1A14DDD3F120034FEAE1727D
:1018F00008DDC90241EA505141F00040D84080184B
:101900005040704703F2E13010B1D24382F0004002
:101910007047002070470000C11768B14840401A66
:10192000B0FA80F29040D21CC907C2F5846241EA45
:10193000025202EBD02140057047000070B44FF016
:10194000004591EA030F40F1B5816B40841A71EBB9
:10195000030603D2001BB141121973414FF4001C5E
:101960001CEB410F34BF7CEB430442E00C0DA4EBB5
:101970001356352E4FDC45EAC323DB0A45EAC12165
:10198000C912B6F120050DDD63FA05F6EB4086EAD3
:101990000305124218BF45F00105C01851F10001BE
:1019A0000CD213E062FA06F5F2405540F3415A407A
:1019B000B340F3405A408018594107D349085FEAC1
:1019C00030005FEA350528BF45F0010501F58011BB
:1019D000420875F1004250F1000041EB04514E0005
:1019E00016F5001F70BC38BF70470020090D0905AF
:1019F00070471CEB410F10D252EA43060BD0BCEBF0
:101A0000410F05D80C0DAB43661E342EB6DD02E047
:101A1000AB438018594170BC704770BC70470000E0
:101A2000F0B540F2FF7581EA030C0CF0004C15EAAA
:101A300011541DBF15EA1357AC42AF42E5E0BC415B
:101A4000C1F31301C3F31303801A994143F48013C4
:101A500004D2641E4000494180185941C90241EA3C
:101A60005051B1FBF3F603FB1611A2FB0675D7EB41
:101A7000C020A94102D2761E80185941C90241EA0C
:101A80005051B1FBF3FE03FB1E11A2FB0E75D7EB09
:101A9000C020A94103D2AEF1010E8018594189023C
:101AA00041EA9051760546EA8E2EB1FBF3F603FB30
:101AB0001611A2FB0675D7EB8020A94102D2761E33
:101AC00080185941C90241EA50514EEA060EB1FB55
:101AD000F3F603FB1611A2FB0675D7EBC020A94154
:101AE00002D2761E80185941C90241EA5051B1FB19
:101AF000F3F703FB1711A2FB0735D3EBC020A94175
:101B000067F100070CBF004247F0010766F3D527D5
:101B10004FEA1E31B80814F5806412DDBD0775F177
:101B2000004250EB0E5051EB045111F5801F5CBF89
:101B300041EA0C01F0BD4CF07F6141F0E041002032
:101B4000F0BDBD076D0840EA0E5041F48011D4F19C
:101B50000104B4F120060ADAC4F120060200E040D4
:101B600001FA06F3E1401843B24015430EE0342C6D
:101B700013DCC6F1200445EA40056D0820FA06F2A0
:101B8000154321FA06F0A1400D43002175F10042F2
:101B900050F1000051EB0C01F0BD00205FEA0C0198
:101BA000F0BDCFB992185B41B3FA83F704BFB2FA24
:101BB00082F6BF190B3FB7F120062FBF02FA06F3DA
:101BC000BB40C7F1200622FA06F638BF3343BA40BD
:101BD0001CB1E419641E33E77F4231F00041B1FAD1
:101BE00081F404BFB0FA80F6A4190B3CB4F12006CE
:101BF0002FBF00FA06F1A140C4F1200620FA06F634
:101C000038BF3143A0403C1B1AE7AC421ABF05EA7B
:101C10001357AF4212E050EA41061CBF52EA430696
:101C2000BFE750EA4107304661461CBF41EA055113
:101C3000F0BD52EA430C08BFC143F0BD00204FF491
:101C4000001616EB410F98BF16EB430F08BF16EBBB
:101C5000410F24BFC14305E016EB430F0CBF6146A3
:101C60004CEA0551F0BD0000400D491840EA8120C2
:101C70000CD2490DA1F58061491C40F0004005DB04
:101C8000D1F11F0154BFC840C017704700207047F2
:101C9000014648B1B0FA80F18840C91CC1F58461A1
:101CA000090501EBD02140057047012000F0B8B8CC
:101CB00070470000841A71EB030604D26E40001BCB
:101CC000B141121973414FF4001C1CEB410F34BF9A
:101CD0007CEB430683E00C0DA4EB1356362E00F389
:101CE0007C80012E45EAC32341DC43EA525312BFF4
:101CF000D20292025B08240545EAC12141EA505113
:101D0000D2EBC020994125D407D1B0FA80F610FA61
:101D100006F162D00020203608E0B1FA81F6B14029
:101D2000C6F1200220FA02F21143B0404FEAF474E7
:101D3000B4EB465434F001064FEA74040AD8D6F5E1
:101D40000016760D04F00044F04061FA06F25040AF
:101D5000F1404840C00A40EA415021F0004128BF0C
:101D60005FEA500550F1000044EBD12135E0DB0A79
:101D700045EAC121C90AB6F120050EDD42EA024258
:101D8000120CC5F1200603FA06F6EB4042EA0605FE
:101D90006D42984161F100010DE062FA06F5F240F2
:101DA000554063FA06FC82EA0C02F3405A406D4249
:101DB000904161EB030111F4801F05D1641E62059F
:101DC00002D06D004041494121F48011430875F172
:101DD000004350F1000041EB045170BC70471CEB14
:101DE000410F15D223F0004352EA43060BD04FEACD
:101DF0004C0CBCEB410F04D80C0D661E342EB7DD25
:101E0000EBE7801A994150EA410608BF0021E4E758
:101E100008BF1CEB430F28BF6FF00001DDE7000097
:101E200080B5AFF30080024A11001820ABBEFBE77B
:101E300026000200DFF8CC0700F05ABD38B5044692
:101E40000D46012C08DB286830B16968087800F07D
:101E500005F82D1D641EF4E731BD00002DE9F8439F
:101E600004460FF6D401DFF8A057DFF8A067DFF8CB
:101E7000A077DFF8A087DFF8A09700F0B7F9641E1D
:101E8000312C00F25A81DFE814F032003B004400AC
:101E90004D00560060006B0074007D005801580131
:101EA000580158015801580186008F009800A10080
:101EB000AA00B300BE00C900D200D90058015801E1
:101EC0005801580158015801E200EB00F400FD00F0
:101ED00006010F01180121012B013201580158019F
:101EE00058015801580158013A0143014C0101229F
:101EF000042100F05CF900F029F90022042122E01D
:101F00000122082100F053F900F020F900220821F5
:101F100019E00122102100F04AF900F017F900221F
:101F2000102110E00122202100F041F900F00EF90B
:101F30000022202107E00122402100F038F900F0C2
:101F400005F9002240212846F4E001224FF4005117
:101F500000F032FB00F0FAF800224FF40051CCE020
:101F60000122012100F032FB00F0F0F800220121F3
:101F70005BE00122022100F029FB00F0E7F80022DB
:101F8000022152E00122042100F020FB00F0DEF8E3
:101F90000022042149E00122082100F017FB00F093
:101FA000D5F80022082140E00122102100F00EFBAC
:101FB00000F0CCF80022102137E00122202100F0AF
:101FC00005FB00F0C3F8002220212EE00122402171
:101FD00000F0FCFA00F0BAF80022402125E00122CE
:101FE000802100F0F3FA00F0B1F8002280211CE01B
:101FF00001224FF4807100F0E9FA00F0A7F8002206
:102000004FF4807111E001224FF4007100F0DEFA0C
:1020100000F09CF800224FF4007106E000F0E8FAAE
:1020200000F094F800224FF48061304682E000F026
:10203000D0FA00F08BF8002201215EE0012202219B
:1020400000F0BAFA00F082F80022022155E00122E5
:10205000042100F0B1FA00F079F8002204214CE0EC
:102060000122082100F0A8FA00F070F800220821EF
:1020700043E00122012100F0A4FA00F067F80022F9
:1020800001212BE00122022100F09BFA00F05EF812
:102090000022022122E00122102100F092FA00F039
:1020A00055F80022102119E00122202100F089FAC0
:1020B00000F04CF80022202110E00122402100F025
:1020C00080FA00F043F80022402107E0012280213D
:1020D00000F077FA00F03AF800228021384629E033
:1020E00000F081FA00F032F80022102105E000F043
:1020F00075FA00F02BF80022202140461AE0012258
:10210000012100F04FFA00F021F80022012110E037
:102110000122022100F046FA00F018F80022022104
:1021200007E00122042100F03DFA00F00FF8002240
:102130000421484600F0CBFD03E00FF20C6100F0F3
:1021400055F800F00DF8BDE8F14333E080B54FF4E9
:102150000041DFF8BC0400F0B4FD0028F7D001BD59
:1021600070B50FF2FC51DFF8B4540FF2146600F0B2
:102170003DF80122022100F01AF8012400F011F8C4
:1021800000B1002400F00DF80246314600F0D1FA0B
:102190002000F3D12846BDE870400022022100F063
:1021A00096BD0821284600F08CBD4FF4807128466A
:1021B00000F08DBD10B50FF2D851DFF8604400F08B
:1021C00015F80122012100F0F2F900F0DBF90022FC
:1021D000012100F0ECF90421204600F072FD0028F6
:1021E000F9D1BDE810400FF2C851C8E1032000F05A
:1021F000EDBDDFF82C0400F07BBB38B504460D467E
:10220000012C08DB286830B16968087800F004F810
:102210002D1D641EF4E731BD2DE9F047401E212835
:10222000DFF8E843DFF8E053DFF8EC63DFF8EC7346
:10223000DFF8F083DFF8DC93DFF8D4A300F29C81B1
:10224000DFE810F02200340048005A0068007700F0
:102250008A009D00B0009A019A019A019A019A01A0
:102260009A01C100D100E400F700060119012B0119
:102270003D014B0159019A019A019A019A019A0173
:102280009A0168017A018A01012200F08EF900F0BA
:1022900079F9002200F089F94FF40051204600F04E
:1022A00010FD0028F8D10FF21C5166E101224FF415
:1022B000805100F07CF900F065F900224FF4805164
:1022C00000F075F94FF48041204600F0FAFC002838
:1022D000F8D1E8E701224FF4004100F068F900F07E
:1022E00051F900224FF4004100F061F9022100F0A1
:1022F0004FF90028FAD1D6E700F06BF900F042F967
:102300000022012100F058F98021FFF74BFF00283F
:10231000FAD1C8E70122FFF748FF00F033F90022A5
:10232000FFF743FF4FF48061FFF73CFF0028F9D12E
:10233000B9E701224FF40071FFF739FF00F022F9ED
:1023400000224FF40071FFF732FF4FF40061FFF7F6
:1023500029FF0028F9D1A6E701224FF48051FFF7A9
:1023600026FF00F00FF900224FF48051FFF71FFF06
:102370004FF48041FFF716FF0028F9D193E70122BF
:102380004FF40051FFF713FF00F0FCF800224FF468
:102390000051FFF70CFF4FF40041FFF703FF002847
:1023A000F9D180E700F024F900F0ECF800224FF4B6
:1023B000806100F00BF94FF48051304600F081FC51
:1023C0000028F8D16FE7012200F0FEF800F0DAF8FB
:1023D000002200F0F9F84FF40051304600F071FC93
:1023E0000028F8D15FE701224FF4804100F0EEF8B9
:1023F00000F0C8F800224FF4804100F0E7F84FF4F5
:10240000807100F0C2F80028F9D14CE701224FF4A6
:10241000004100F0DBF800F0B5F800224FF4004175
:1024200000F0D4F84FF4007100F0AFF80028F9D1B3
:1024300039E7012200F0C3F800F0A4F8002200F010
:10244000BEF84FF4805100F0A0F80028F9D12AE737
:1024500001224FF4006100F0B4F800F093F800227C
:102460004FF4006100F0ADF84FF4005100F08DF82A
:102470000028F9D117E701224FF4804100F0A1F8BC
:1024800000F080F800224FF4804100F09AF8042117
:1024900000F07EF80028FAD105E701224FF4004150
:1024A00000F08FF800F06EF800224FF4004100F0C9
:1024B00088F8082100F06CF80028FAD1F3E600F063
:1024C00092F800F05FF80022102100F075F840212A
:1024D00000F05EF80028FAD1E5E600F07FF800F0A1
:1024E00051F80022202100F067F8802100F050F818
:1024F0000028FAD1D7E6012200F05CF800F042F89B
:10250000002200F057F88021484600F0DAFB00284E
:10251000F9D1C8E60122402100F044F800F032F879
:102520000022402100F03EF84FF48071484600F050
:10253000C8FB0028F8D1B6E6012200F031F800F01F
:1025400021F8002200F02CF84FF40061504600F012
:10255000B8FB0028F8D1A6E6012200F01CF800F034
:1025600011F8002200F017F84FF48051504600F0A7
:10257000A8FB0028F8D196E673A1BDE8F047032038
:1025800000F024BC642000F0E5BD384600F099BBA3
:10259000404600F096BB4FF48071504600F097BB68
:1025A0004FF40071484600F092BB4FF400612046A2
:1025B00000F08DBB4FF48071404600F088BB4FF4B3
:1025C0008061384600F083BB4FF40061304600F074
:1025D0007EBB01220121404600F079BB012220216F
:1025E000404600F074BB01221021404600F06FBB52
:1025F00001224FF48061304600F069BB0A4800F0C8
:1026000077B900005801002000180140001C01406B
:102610000008014000100140000C0140001401407E
:102620006401002000200140700100202DE9F047E6
:1026300006460F460FF2B8190FF2A41A0FF29C18B3
:10264000002E2ADD386840B378680222414600F047
:1026500033FEF8B941F2883000F07CFD022000F032
:10266000CBFEC5B22A46514600F063F895B1681C0E
:1026700001F034F904000DD02A462146022000F072
:10268000CCFE2246494600F054F800206055204612
:1026900001F0ADF93F1D761ED2E7BDE8F0870000DE
:1026A00070B5044600250E46002C11BF25460FF2DA
:1026B0005011032000F08AFB29787E2938D16878F0
:1026C000002818BF012803D0022818BF03282FD1E3
:1026D00095F806204FA100F02CF8ED1D072015F805
:1026E000011B06F8011B401EF9D10E224FA100F07C
:1026F00020F80D222146002000F0E3F8044622468F
:102700004FA100F016F828786E7800BF50A146EA75
:102710000026324600F00DF8A64202D152A1FFF782
:1027200065FDA8787E2803D1BDE8704053A126E757
:1027300070BD032000F04ABB6C6F673E20436F6E94
:1027400074726F6C0D0A00006C6F673E20657272C8
:102750006F72203A6E756D200D0A0D0A00000000A0
:102760006C6F673E20536869704D656E745F4D6F86
:10277000746F725F436F6E74726F6C0A0D0A0000A3
:102780006C6F673E204750494F3A25640D0A0000A0
:102790006C6F673E20536869704D656E745F4C6F57
:1027A000636B5F436F6E74726F6C0A0D0A000000FA
:1027B0006C6F673E207375636365737320212121FD
:1027C0000A0D0A006C6F673E20206F70656E2073E3
:1027D00075636573730A0D0A000000004F4E000018
:1027E0006C6F673E206C656E3A25640D0A00000030
:1027F0006C6F673E206275663A25730A0D0A000009
:102800006C6F673E206572726F7220646174610A3A
:102810000D0A00006C6F673E205061636B206C6591
:102820006E3A2564200A0D0A000000006C6F673EB6
:10283000206372636C656E3A25640D0A0000000027
:102840006C6F673E206372633D2564200A0D0A00A9
:102850006C6F673E206372635F636865636B3A25E4
:1028600064200A200D0A00006C6F673E204352432B
:1028700020737563636573730D0A00006C6F673EA8
:10288000204578706C61696E20737563636573733E
:102890000A0D0A0080B5002110B1FEF7CDFC0146FB
:1028A000084602BD0146002051B105E011F8013B88
:1028B0000A22303B02FB00300A78303A0A2AF5D36C
:1028C000704730B5FF23FF20DFF8384207E011F8EA
:1028D000015B684034F8105085EA03002B0A154666
:1028E0006A1EADB2002DC0B2F1D140EA032030BD66
:1028F0000146002000291CBF0A68002A0BD0DFF81F
:102900000802026812B9016004E0024690680028DB
:10291000FBD1916001207047F0B5DFF8EC110C6835
:10292000074691B00020012500214DF82010401CE1
:102930001028FADB387810B301F0ACF8002808BF93
:102940007F1CF7D01BE000204DF82600334601998C
:102950000FF2BC100A78394601F0B4F800E0A46820
:102960005CB1002EFBDD2168384601F0BFF800287D
:10297000F5D1626869463046904711B0F0BD012636
:10298000009739460EE020B1202804BF002201F84C
:10299000012B087830B14DF826100878202808BFA0
:1029A0000025761C08780028CDD0102ECBDA002D1B
:1029B000C9D0087800281CBF2028491CF9D1E2E7BB
:1029C00052490A6812B9086070470A46824204D028
:1029D00011690029F9D101611061704741607047A8
:1029E0000021C160704749490968002000E0096979
:1029F00021B1CA688B689A42F9D308687047434985
:102A00000A68002000E0126952B151680029FAD02A
:102A1000D168491CD160D16893689942F3D310689A
:102A20007047002918BF002A09D0531E134206D14F
:102A30000160436000218160C16001207047002077
:102A4000704710B5C46882684368A41AA34208D3CB
:102A5000C26804681340E154C168491CC160012088
:102A600010BD002010BD0146C8688968401A704733
:102A7000C1688160704703460020002900D170477B
:102A800070B592B1DD689C682C1B944201D222463D
:102A90005AB19E685C681D682640521EAD5D0D549B
:102AA000401C9E68761C9E60F2E770BDF0B5002366
:102AB000002918BF002A15D04468C568651B8468C2
:102AC00065196D1C954201D22A465AB1C668446800
:102AD0000568CF5C2640521EAF555B1CC5686D1C57
:102AE000C560F2E71846F0BD30B502469368D46879
:102AF0000020E41AA14204D250681568C9180140A8
:102B0000685C30BDB06500087C1200208012002097
:102B1000636D643A257320617267765B315D3A2597
:102B2000642020617267633A256420002DE9F84330
:102B3000024600200025684BDFF8A09101270E68AF
:102B4000AF403E40BE4240F0B6804C686CB3012CB2
:102B500020D0022C23D0032C32D0112C1CD0122CCC
:102B600020D0DFF87CE174451CBFDFF878E17445C4
:102B70001BD0DFF874E174451CBFDFF870E17445C9
:102B800013D0DFF86CE174451CBFDFF868E17445D1
:102B90000BD016E0C86814E0C868001D11E0C868D2
:102BA00008300EE0C8680C300BE0886808B90420D3
:102BB00007E0012819BF082057610820176100E0CD
:102BC0000020B6F5807F03D294464FEA850E05E0DB
:102BD000A5F1080402F1040C4FEA840E0F27DCF87B
:102BE000008007FA0EF428EA040400FA0EFE4EEA0A
:102BF0000404CCF800404C68E4005CD5D9F80040EF
:102C0000DFF8F4E044F00104C9F800404FEA950C05
:102C1000D9F8004004F0010400944FEA8508009CB4
:102C20005EF82C4008F00C0807FA08F724EA0707BA
:102C3000324CA24208BF002418D0314CA24208BF37
:102C4000012413D02F4CA24208BF02240ED02E4CD8
:102C5000A24208BF032409D02C4CA24208BF04247E
:102C600004D02B4CA2420CBF0524062404FA08F41D
:102C700027434EF82C70F7434C68E4031C684CBFA4
:102C800034433C401C604C68A4035C684CBF344334
:102C90003C405C604C68E4029C684CBF34433C4060
:102CA0009C604C68A40203D5DF683E43DE6002E00E
:102CB000DE683740DF606D1C0F2D7FF63FAFBDE84B
:102CC000F1838068084018BF0120C0B2704702B984
:102CD000090401617047000000040140181002401F
:102CE000000011100000121000002110000022103E
:102CF00000003110000032100800014000080140BF
:102D0000000C014000100140001401400018014077
:102D1000001C014018B5DFF8FC420121217085B08C
:102D2000012000F079F84FF4807204F1380104F1C9
:102D30002800FFF776FE68460FF2C0311422FEF736
:102D4000C5FA0021684600F0EEF904F59C70FFF723
:102D5000CFFD0FF2D021032000F038F806B010BDEF
:102D600010B50FF2D820DFF8B04200F0ABFE2046DD
:102D7000FFF726FE2046FFF733FE01212046FFF72E
:102D80002DFE00F0C5F80A2000F0E4F92046FFF718
:102D900027FEF6E710B5DFF87C4223780A461900D3
:102DA0000FD0062B05DABDE810400146184600F0AA
:102DB000D6BA114604EB830252F8103CBDE810402D
:102DC000184710BD81B22046E4E700000CB438B5C6
:102DD0000D46010018D08F494A78824214D34FF42F
:102DE000807000F07BFD04000ED004AB00F00FF803
:102DF0002046FEF721FAFFF7E5FF214694A000F0F8
:102E000061FE204600F0F3FD31BC5DF80CFB2A4664
:102E10004FF4807100F074BE38B57E4D044668688A
:102E2000844203D000F0DAFE6C600BE031BD38B5AF
:102E3000784D69788842044603D000F0CFFE6C706C
:102E400000E031BDBDE8314000F0E1BE2DE9F843BE
:102E500001260FF210286F4FF0B200F0CDFA0400F7
:102E600029D03878864226D1601C00F037FD05460F
:102E70000A2000F033FD8146EDB122462946F0B22A
:102E800000F0CBFA49462846FFF70AFC00202855F7
:102E90000A2189F8071022464946404600F012FEF2
:102EA00008224946F0B200F00BF8284600F09FFDDA
:102EB000484600F09CFD761C062ECDDBBDE8F18374
:102EC00070B5544E0C463178884215460CD1706866
:102ED00010B12946FFF777FF2A46214606F1280060
:102EE000BDE87040FFF7E2BD70BD000038B50400DA
:102EF0000DD0FEF7A1F9474D82B228782146FFF7A1
:102F0000DFFF28785BA1BDE838400222D8E731BD59
:102F100070B5404E06F12800FFF7A5FD85B29DB3C0
:102F2000691E06F12800FFF7DFFD0D2818BF0A28EB
:102F300021D1681C00F0D2FC04001CD02A46214696
:102F400006F12800FFF797FD85B200206055601953
:102F5000801E41780D2912BF0A2900214170017895
:102F60000D2912BF0A29002101702046FFF7D4FC69
:102F7000204600F03CFDB5F5807F05D106F1280024
:102F8000BDE87040FFF774BD70BD000070B50C4621
:102F900039A154F8040F00F0A9FD90B9D4F80450F9
:102FA00037A100F03BF808B9012003E035A100F09B
:102FB00035F808B9FFF730FFD4F8042032A1032018
:102FC00024E0256837A1134E00F028F838B900BF77
:102FD00036A10320FFF7FAFE0120307070BD00BF5C
:102FE00039A100F01BF818B96068BDE870407DE7B2
:102FF00037A100F013F860B9606820B1FFF752FC08
:10300000C0B2FFF714FF727834A10220BDE870400F
:10301000DCE670BD0000002044010020284600F0DE
:1030200065BD00006C6F673E20436F6E736F6C650B
:1030300020696E69742E0D0A00000000436F6E73E4
:103040006F6C65207461736B2073746172742E00F1
:1030500020434D445F53656E64446174613A257347
:103060000A000000636275663A25732C6C656E3A3F
:10307000256420000D0A00006563686F00000000F1
:103080006F6E00006F6666006C6F673E20436F6E68
:10309000736F6C6520736574206563686F3A257380
:1030A0002E0D0A006C6F676F757400006C6F673EC1
:1030B00020434D4420706970652077696C6C2072E4
:1030C000657365742E0D0A007669727475616C0003
:1030D0006C6F676C6576656C0000000077617272DA
:1030E000696E673E2053797374656D206C6F67203D
:1030F0006C6576656C3A25642E0D0A00206C00081C
:10310000612D0008000000000100000080000000A8
:1031100001460020842918BFC81C704780B500F004
:10312000B8FE002002BD3EB504460D46B4F90800C5
:10313000FFF7EEFF02A9019100902B46226921685A
:10314000606892B200F0C4FD012801D000203EBDAD
:1031500002983EBD80B500B9012000F072FE00204B
:1031600002BD012001F0D1B980B50022009208B95A
:10317000802002BD11F1010F08BF4FF0FF3200F0B7
:1031800063F859B16A46002101F05AFB01280AD1BF
:10319000009808B100F079F8002002BD002301F08A
:1031A000A5FA0128F8D0FF2002BD1CB50024009428
:1031B000EFF3058149B1694601F056FA01280DD1B6
:1031C000009848B100F061F806E00023002201F009
:1031D000B0F9012818BFFF24204616BDFF2016BDF8
:1031E00010B501290DD103220021012001F066F95B
:1031F000040004D000230022002101F09AF92046A7
:1032000010BD002010BD80B50022009208B98020BA
:1032100002BD11F1010F08BF4FF0FF3200F014F8AA
:1032200059B16A46002101F00BFB01280AD1009830
:1032300008B100F02AF8002002BD002301F056FA80
:103240000128F8D0FF2002BD01D001B10A46EFF3FA
:10325000058170471CB500240094EFF3058149B146
:10326000694601F001FA01280DD1009848B100F03B
:103270000CF806E00023002201F05BF9012818BFDA
:10328000FF24204616BDFF2016BDDFF828004FF0B2
:1032900080510160BFF34F8FBFF36F8F704780B5D0
:1032A00000F0DDFF012803D0BDE8014000F0C0BC04
:1032B00001BD000004ED00E004E010F8013B6BB13B
:1032C000491C521E52B10B7890F800C09C45F4D0B6
:1032D00002D24FF0FF307047012070470020704746
:1032E0002DE9F041DFF820750D46F96B0646904652
:1032F00029B907F17C00FFF7FBFA0121F96366B3F6
:10330000062E2ADA5FEA080027D0411E014224D1A6
:1033100000F0E4FA040020D0761EF6B207EB860730
:1033200007F168003D60FFF71CFFB862012107F15B
:103330005400FFF755FF78614FF0FF31FFF763FF4F
:10334000DFF8C8044246214600EB0610FFF769FB90
:103350002868C16841F02001C160BDE8F0812DE915
:10336000F04105460C460020290090462BD02F4600
:10337000062F28DA002C18BF5FEA080123D0DFF8F7
:10338000880400EB87064FF0FF31706AFFF7ECFE10
:103390006D1E032D56F8040C4246214602D801F05A
:1033A000DDFB01E001F0B9FB224639460FF2904007
:1033B00000F088FB30694FF0FF31FFF724FF706A9F
:1033C000FFF7F3FE4046BDE8F08170B514460200F9
:1033D00010D006280EDA69B122000BD0DFF828548D
:1033E00005EB80064FF4FA6356F8040C01F03BFB42
:1033F000204670BD002070BD80B5002102000AD0BB
:10340000062808DADFF8041401EB0012A2F110001C
:10341000FFF729FB014688B202BD70B505460C4690
:1034200000202900164610D0062D0EDA6CB13100AE
:103430000BD000F08AF8DFF8D40300EB0513324616
:103440002146A3F11000FFF716FB80B270BD10B546
:103450000446002021000FD0062C0DDA01F0B6FD45
:103460000146DFF8A40300EB8402D06B081A41F296
:103470008931884228BF002010BD020000D170476A
:1034800010B5062817DADFF8802302EB800454F821
:10349000040C426891420ED00268D36823F02003E6
:1034A000D360416001F0A4FA54F8040C0068C168CC
:1034B00041F02001C16010BDF8B504460D46062C50
:1034C000B8BF062D21DA00F089FBDFF84473DFF87E
:1034D00044633C747D7444B1384606EB04111022F9
:1034E000FDF7F4FE3846FFF7C3FA55B1DFF828437D
:1034F000204606EB05111022FDF7E8FE2046FFF7F7
:10350000B7FABDE8F14000F082BBF1BD38B50D4619
:10351000062DB8BF0628044616DA00F05FFBBC484B
:103520008574C47465B1B949BC4C01EB0512A2F1B4
:10353000100120461022FDF7C9FE2046FFF798FA39
:10354000BDE8314000F063BB31BD2DE9F84F0025E7
:10355000B34CAE4800EB05163046FFF784FA7168AD
:103560006F1C80B2491C884204D1F8B2FFF76FFF8C
:1035700064280AD23046FFF776FA70B1F8B2FFF746
:1035800066FF41F28831884207D33046FFF770FA70
:103590006A1C21460220FFF719FC6D1C042DD8DDA2
:1035A000DFF878929A4FDFF87CB20026B87C0028CA
:1035B0001CBFFC7C002C06D000014D465BF80000CF
:1035C000C9F80C0009E0022E23D1787C08B3000171
:1035D000914D5BF80000E8603C7CD5B12846FFF7D0
:1035E00042FA1FFA80F8B8F1000F12D0404600F0FE
:1035F00075F95FEA000A0CD0424651462846FFF7AB
:103600003AFA82B251462046FFF7A9FE504600F032
:10361000EEF9761C022E0DDC002EC7D0012ED2D181
:10362000387C0028CFD000013D465BF80000F860F0
:103630007C7CD2E7BDE8F18FF8B50546724800EB17
:10364000850656F8044CFCB1206801688A0602D54C
:10365000C1688A0602D401680A0715D5476801F0D7
:10366000B5FCF063F9B2694800EB0512A2F1100055
:10367000FFF7E7F90020009021680A680092496886
:10368000009100980120F2BD0020F2BD00215E4AA9
:1036900052F82130984202D0491C0529F8DB05294F
:1036A00006DA02EB81004069002818BFFFF7D2BD9F
:1036B000704700002DE9F84F06460F4664A0DFF87A
:1036C00068910FF2A01A0FF2981800F0FBF97968D0
:1036D00060A000F0F7F928E07EA100F0AAF810BB86
:1036E00000F0A4F800F0A8F80546E9B2E0B2FFF750
:1036F0000DFF2B46224609F16C0111E073A100F089
:1037000098F80028E8D100F091F800F095F8054607
:10371000E9B2E0B2FFF7D0FE2B46224609F148019C
:103720000320FFF753FB3F1D761E002E69DD3C682A
:10373000002C66D07D68032241462846FFF7BCFD79
:10374000C0B9504600F0BEF97868FFF7ABF800F05A
:1037500073F80546D7F8041044A000F0B3F92B46DF
:10376000224649460320FFF731FB2946E0B2FFF726
:1037700084FED8E740A100F05CF880B900F056F86C
:103780000446B868FFF786F80546B968AAB2E0B201
:10379000FFF7E5FD2B46224609F12401C0E700BFF3
:1037A00037A100F046F80028A8D100F03FF8834682
:1037B000C0B2FFF721FE05001CD000F08FF8040016
:1037C000B1D02A4621465FFA8BF0FFF726FE2B4642
:1037D0004FEA0B022CA10320FFF7F8FA29462046F6
:1037E000FFF7D8FA2FA10320FFF7F0FA204600F0E8
:1037F000FEF898E74FEA0B022EA10320FFF7E6FA46
:1038000091E7BDE8F18F0000080200209C10002025
:10381000481200208C1000205C1200206C12002046
:10382000146B000898100020CC6800082846FFF7A9
:1038300039B8204600F05AB90446B868FFF732B8E4
:103840006E756D3A2564206461743A25732000001A
:103850006F6B0A00617267763A25730A00000000F8
:10386000626472006578650A000000006172677624
:10387000206578652025730073656E640000000084
:1038800072656164000000006C6F673E2055415214
:1038900054256420726561642073697A653A2564F1
:1038A0000D0A00006C6F673E2020203C656E642E80
:1038B0000D0A00006C6F673E20554152542564206C
:1038C0006E6F20646174612E0D0A000072656D6177
:1038D000700000006D6F6E69746F72002DE9F8431F
:1038E000044600F000FB6A4FB8684FF0000900255D
:1038F00008BB07F1180307F1180113F0070F4FF485
:1039000040600A4605D0CA1DD208D200C2F5406008
:10391000081880180838C008C0003A607D60B86098
:1039200045600560831A5360106050683861F86024
:103930004FF0004078614FF050087869044233D16D
:1039400094B3083414F0070F1FBF04F1080004F00B
:103950000704041B14F0070F02D000F041F8FEE743
:1039600014B3F868A0421FD33E6839467068A0427D
:1039700023D2306800281CBF31460646F6D11CE031
:10398000301D02517460084600F05EF87168F868F6
:103990003A69401AF860904238BF3861786901434B
:1039A0007160356009F0070500F0A3FA15B100F069
:1039B00017F8FEE74846BDE8F283B8688642F3D0C0
:1039C0000A683068086002F108097268121B112A3F
:1039D000DCD3311911F00700D2D000F001F8FEE776
:1039E00088F31188BFF34F8FBFF36F8F70470028A4
:1039F00000D1704738B5A0F10804254D61686A69A7
:103A00005023114202D100F015F8FEE7206810B1F2
:103A100000F010F8FEE79143616000F064FAE96895
:103A200060684118E960204600F00EF8BDE83140BA
:103A300000F05FBA83F31188BFF34F8FBFF36F8F2E
:103A400070471348C068704730B511490A4600E016
:103A50001A4613688342FBD35368D418844203D1B7
:103A60004068C3185360104643681468C518A542DF
:103A700008D189688C4204D06168CB1843602468FF
:103A800000E00C460460824218BF106030BD0000A8
:103A90005803002010B50446202C11D0A4F12000BA
:103AA0005F280BD3204601F097FA38B9204601F081
:103AB0009DFA401E8041C043C00F10BD012010BDC3
:103AC000002010BD0EB4C0B5024603A8002101902D
:103AD000009101AB0121044878440C30FCF728FB2D
:103AE00006BC5DF810FB00BF0531000010F8012B8B
:103AF00011F8013B0AB19A42F8D0D01A7047000081
:103B000008B584B00023039300290EBF01930190F0
:103B1000491E0291009301A904AB0748784418306C
:103B2000FCF706FB019909B100220A70002858BF72
:103B3000039805B000BD00BF7FDBFFFF490810B54B
:103B40004900A0F10C034FF0807459609C600FF2A3
:103B50000D01196040F8202D203810BD49494A68F0
:103B6000502012F1010F80F31188BFF34F8FBFF384
:103B70006F8F00D0FEE7FEE71CB543490A7801923B
:103B8000FF230B700C788DF800409DF800003D4C31
:103B900000F050002070072005E09DF80020520042
:103BA000401E8DF800209DF800201306F5D4000279
:103BB00000F4E060A060019808703448016841F4A6
:103BC00070010160026842F07042026000F070F81B
:103BD0000020606001F047FA002016BD502080F3FD
:103BE0001188BFF34F8FBFF36F8F26494A68521C6D
:103BF000012A4A600AD126490A68130606D080F3D2
:103C00001188BFF34F8FBFF36F8FFEE770471D49D9
:103C1000486838B9502080F31188BFF34F8FBFF345
:103C20006F8FFEE7401E486008BF80F31188704721
:103C300080B5502080F31188BFF34F8FBFF36F8F93
:103C400000F0A8F918B112494FF080500860002226
:103C500082F3118801BD000010B5EFF305805021FB
:103C60001028084A05D30B4B185C1478A04200F0CA
:103C700015F89068084A136803F4E063984200F06E
:103C80000DF810BDE001002000E400E020ED00E0B0
:103C900004ED00E0F0E300E00CED00E006D281F37B
:103CA0001188BFF34F8FBFF36F8FFEE7704700009F
:103CB000054906480A684FF47A73B2FBF3F35B1EBA
:103CC00043600721016070470402002010E000E01B
:103CD0002DE9F8430646174684B088469946B80051
:103CE000FFF7FCFD05001AD05420FFF7F7FD040094
:103CF00012D00D990C982563002203920191009037
:103D000002944B463A464146304600F00DF82046B4
:103D100000F046F8012004E02846FFF768FE4FF067
:103D2000FF3005B0BDE8F0832DE9F0470A9E8146DB
:103D3000306B00EB8202101FC0084FEAC00A00225D
:103D40008C5CB01880F83440885C10B1521C102A8A
:103D5000F6D3089D002086F84300062D099C88BFF5
:103D6000062506F14407F5623D6078609846301DEF
:103D700001F097F906F1180001F093F93661C5F1E9
:103D80000705B56176620020B8603873424649463F
:103D90005046FFF7D3FE306004B12660BDE8F087DF
:103DA0002DE9F04100F064F8DFF81456DFF81486CE
:103DB000E86C401CE8641426A86A28BBAC62E86C76
:103DC000012827D1002706FB07F0404401F05CF9E9
:103DD0007F1C072FF7D305F1740001F055F905F1A9
:103DE0008807384601F050F9284601F04DF905F1F1
:103DF000140001F049F905F1380001F045F905F129
:103E00007400E8622F6305E0A86D18B900F037F878
:103E100028BFAC62A86E401CA8660122E06A696DEA
:103E20008240114369654643211D08EB060001F0FD
:103E30003BF9FFF7ECFEA86D08B100F0B2FABDE85F
:103E4000F08180B588B1DFF8E825116F21B100F06D
:103E500012F800F045F9FEE7116F491C11670021C7
:103E600000F0B2FA00F045F808B900F034F901BDED
:103E70000446FFF7B3BE502080F311887047E06A14
:103E8000A96ACA6A90427047211D142042439818BB
:103E900070473EB5DFF898450FF2A05104F19C0041
:103EA000019000250095002380220FF22930FFF7B2
:103EB0000FFF502101280ED181F3118800F010F975
:103EC0004FF0FF30E0660121A1652565BDE8374070
:103ED000FFF752BE37BD10F1010FFBD181F31188FE
:103EE00000F0FEF8FEE7DFF84805016F491C0167A6
:103EF000704770B5DFF83865306F0024002528B9A9
:103F0000502181F3118800F0EBF8FEE7FFF766FE21
:103F1000306F401E3067306F002836D1F06CD8B952
:103F200033E0F068C46800F031F800F0DDF9E06AD1
:103F3000716DDFF800350122824011437165142252
:103F40005043211D184401F0AFF8E06AB16ACA6A13
:103F5000904224BF0121316630680028E1D10CB1C4
:103F600000F06FF9F46D3CB100F014F808B10120D5
:103F70003066641EF8D1F565306E30B1DFF8B814E4
:103F80004FF08050012500F0AAF803E204F1180078
:103F900001F0B0B82DE9F843DFF89474386F0026CB
:103FA000002851D13C6D641C3C6511D1F96A086848
:103FB00028B1502181F3118800F092F8FEE7F86AE9
:103FC000396BF9623863786E401C786600F039F915
:103FD000F86EDFF8609484424FF0140825D31AE09D
:103FE000281D01F087F8A86A18B105F1180001F042
:103FF00081F8E86A796D012282401143796508FBF6
:1040000000F0291D484401F04FF8E86AB96ACA6A0D
:10401000904228BF0126F96A086890B1F86AC16821
:10402000CD6868688442DBD2F866B86AC16A08FB6A
:1040300001F059F80020F86D022A28BF012640B986
:1040400005E04FF0FF30EFE7F86D401CF86501F038
:104050007AF8386E00B10126A0E1DFF86423106F12
:1040600010B101211166704710661421506DB0FA2D
:1040700080F3C3F11F034B43DFF8B813C85838B9B6
:10408000502181F31188BFF34F8FBFF36F8FFEE78D
:10409000C81800F10803416849684160994204BFAB
:1040A000496841604068C1689162704710B50C462C
:1040B00020B9FFF7E0FE00F013F8FEE7DFF8002379
:1040C000936A03F1180100F0FCFF2046BDE81040A0
:1040D000FFE7012178E1DFF860134FF080500860BE
:1040E000BFF34F8FBFF36F8F704738B5C068C46898
:1040F00024B9FFF7C0FEFFF7F3FFFEE7FFF746FF27
:10410000DFF8BC52286F60B900F0EEF8E26A686D23
:10411000DFF820330121914008436865FFF7B4FEC2
:1041200002E004F11801284600F0BEFF00F004F898
:1041300000D206E0002032BDA86AC16AE06A81426E
:1041400070470120286632BD38B9502080F31188AD
:10415000BFF34F8FBFF36F8FFEE7DFF8D4124A6EC5
:104160000260096D4160704770B504460D465020ED
:1041700024B980F31188FFF7B3FFFEE725B980F378
:104180001188FFF7ADFFFEE7FFF728FDDFF8A0027B
:10419000016D2A6812F1010F0FD06368406E266826
:1041A000B04201D099420AD2C81A904207D2511A9D
:1041B000591829602046FFF7C7FF002400E00124BA
:1041C000FFF725FD204670BDDFF864120120086668
:1041D0007047000070B5DFF8EC41DFF854521BE087
:1041E000286F401C28676869461EB641FFF781FEAC
:1041F000F60F8EB9FFF7F2FC286AC668301D00F092
:1042000079FFE86C401EE864686B401E6863FFF746
:10421000FEFC304600F00BF8686B0028E0D1216806
:10422000012901D9FFF757FF00F076FFF4E710B539
:104230000446206BFFF7DBFB2046BDE81040FFF78C
:10424000D6BBDFF8EC11CA6A106810B94FF0FF3224
:1042500003E0C86AC268D0684268CA667047DFF87F
:10426000D011886D08B901207047086F08B9022085
:104270007047002070472DE9F041040032D0504DC6
:10428000FFF7FDFD2ED2A069002804D4A86AC16AF8
:10429000C1F10701A1611427E16ADFF89881606923
:1042A0007943414488421AD100F01EF801260028C3
:1042B00001BFE16A794358F80100002800F058F87E
:1042C000A86AC06AE0628640696D0E436E65474326
:1042D000211D08EB0700BDE8F04100F0E5BEA86A2B
:1042E000C16AE162BDE8F081201D00F003BF2DE945
:1042F000F04104460021002C37D0314DA86A5022ED
:10430000844204D082F31188FFF7EAFEFEE7A06C36
:1043100020B982F31188FFF7E3FEFEE7E26A636CDF
:10432000401E9A42A06420D0F8B9FFF7DDFF0126B5
:104330001427DFF80081002801BFE16A794358F8AB
:104340000100002800F014F8606CE062C0F1070082
:10435000A061E06A696D86400E4347436E65211D8A
:1043600008EB070000F0A0FE01210846BDE8F0813F
:1043700005D1686DE16A06FA01F188436865704706
:10438000DFF8AC10886A18B1886A826C521C8264AB
:10439000886A7047FFF73BFC284670BD3046BDE891
:1043A000F283A86AC16AE06A814207D2224A4FF0CA
:1043B00080511160BFF34F8FBFF36F8F70470000C4
:1043C000700F002010100020F8B5194D2F6D0C460D
:1043D000A96A0646081D00F08DFE30B9A86A696D0D
:1043E000C06A012282409143696516F1010F08D12C
:1043F0003CB1A86A011D05F13800BDE8F44000F0A9
:1044000053BEA86AF6194660BE42A86A05D2011DCD
:10441000286BBDE8F44000F054BE011DE86A00F0CE
:1044200050FEE86E864238BFEE66F1BD0000000027
:10443000700F00201010002004ED00E049444C45AE
:104440000000000038B504000D4602D100F040FA2B
:10445000FEE7FFF7C3FBE26B206C2168424388183C
:1044600060600021A1632068E26BA060521E206C96
:10447000216842438818E0604FF0FF3104F14400A6
:104480000170417075B92069A0B104F11000FFF707
:104490002CFE78B1DFF854154FF08050086000F022
:1044A00012FA07E004F1100000F0EEFD04F1240020
:1044B00000F0EAFDFFF7ABFB012032BDF8B50600C6
:1044C0000D46174602D100F003FAFEE7002D0EBF9D
:1044D000482005FB06F04830FFF700FA040007D03B
:1044E00000943B4604F148022946304600F002F8A9
:1044F0002046F2BD82B0029B01B91A461A60D86309
:1045000019641846012102B09CE710B5024600214B
:104510000120FFF7D3FF040009D0002060600021D4
:1045200021600022E2600023204600F002F82046CD
:1045300010BD2DE9F64782B004461E46502714B937
:1045400000F0BFF9FEE75FEA010A01D1206C70B903
:10455000022E02D1E06B01280CD1FFF780FE00286B
:1045600065D10398002862D000F0ABF9FEE700F0B7
:10457000A8F9FEE700F0A5F9FEE7039907F110009E
:10458000FFF794FD384600F0F3F9FFF7B2FC18B9D5
:10459000C8F8009000F097F9FFF720FBB86BF96BB3
:1045A00088424BD3022E49D0039800283CD01CB936
:1045B0006846FFF7C9FD0124FFF729FBFFF793FCCD
:1045C000FFF70CFB07F1440090F9001011F1010F07
:1045D00004BF0022027090F9011011F1010F04BF15
:1045E00000224270FFF713FB03A96846FFF7BCFDEA
:1045F00098BBFFF7F3FAB86BF96B884214BF00253C
:104600000125FFF704FB002DB7D1384600F0B0F9C3
:10461000FFF76FFCC0E718B1C8F8009000F053F93D
:10462000FFF7F5FA01201EE0FFF7F1FA1AE027463E
:104630000024DFF8B8834FF08059ADE73246514689
:10464000384600F04DF9796A0029E4D007F12400DA
:10465000FFF74BFD0028DFD1E2E7384600F088F98C
:10466000FFF747FC0020E8E0F8B504460D46502768
:1046700014B900F026F9FEE7206C10B100F021F922
:10468000FEE7206808B96068D0B9FFF7E5FAEFF3F4
:10469000118600F021F81BD294F94510401C11F14D
:1046A000010FA0630FD1606A80B104F12400FFF70D
:1046B0001CFD002818BF002D08D00120286005E04F
:1046C00000F0FFF8FEE7491C84F84510012000E0E7
:1046D000002086F31188F2BD87F31188BFF34F8F56
:1046E000BFF36F8FA06BE16B884270472DE9F647EF
:1046F00082B0064699460024502526B985F31188D4
:1047000000F0E1F8FEE75FEA010801D1306C48B93A
:10471000FFF7A5FD80B9039870B185F3118800F00B
:10472000D2F8FEE785F3118800F0CDF8FEE73046B9
:1047300000F01EF9FFF7DDFBFFF750FAB06BDFF872
:10474000AC524FF0805720B9039858BBFFF75FFA7F
:1047500072E00446D6F80CA04146304600F0F4F86A
:10476000B9F1000F0ED1641EB463306810B9FFF7C1
:1047700007FE7060306988B106F11000FFF7B5FCE4
:1047800048B90BE0706AC6F80CA038B106F12400F5
:10479000FFF7ABFC10B12F6000F095F8FFF737FA88
:1047A00001204AE01CB96846FFF7CEFC0124FFF760
:1047B0002EFAFFF798FBFFF711FA06F1440090F983
:1047C000001011F1010F04BF0022027090F90110D6
:1047D00011F1010F04BF00224270FFF718FA03A97C
:1047E0006846FFF7C1FC002830461CD100F0F2F803
:1047F00000289CD0306830B9FFF7F0F97068FFF7F7
:104800003AFDFFF704FA039906F12400FFF74EFC86
:10481000304600F0ADF8FFF76CFB00288CD12F601C
:1048200000F051F888E700F0A3F8FFF762FB30468C
:1048300000F0D0F80028F5D0002004B0BDE8F087E3
:104840002DE9F84304460F461546502624B986F351
:10485000118800F038F8FEE70FB9206C70B9FFF747
:10486000FBF9EFF3118886F3118800F02CF8A66BA2
:104870004EB9002088F31188BDE8F28386F31188D1
:1048800000F021F8FEE794F944903946204600F004
:104890005BF8761E19F1010FA6630CD1206970B187
:1048A00004F11000FFF721FC002818BF002D06D0EE
:1048B0000120286003E009F1010084F84400012090
:1048C000D8E787F31188BFF34F8FBFF36F8F70471F
:1048D000502080F31188BFF34F8FBFF36F8F704765
:1048E000F8B506461546B46B326C002742B93068FD
:1048F00030BB7068FFF7FBFC0021074671601FE0CA
:1049000065B9B068FCF7E2FCB068316C72680844C5
:104910009042B06014D33068B06011E0F068FCF7EA
:10492000D5FC306CF16840420144F160326891423C
:1049300002D271680844F060022D01D104B1641EF6
:10494000641CB4633846F2BD026C002A0B4600D1E9
:10495000704710B5C16844681144C160A14224BFCA
:104960000168C160C168BDE810401846FCF7AEBCE4
:10497000F8B50546FFF732F905F1440494F90160F2
:1049800070B2012815DB686A98B105F12400FFF7C1
:10499000ACFB08B1FFF718FC761EF1E72869A0B15F
:1049A00005F11000FFF7A1FB08B1FFF70DFC7F1E1A
:1049B00008E04FF0FF366670FFF729F9FFF70EF9B0
:1049C00094F9007078B20128E8DA2670BDE8F14069
:1049D000FFF71DB910B50446FFF700F9A06B441EA0
:1049E000A441FFF714F9E00F10BD000004ED00E052
:1049F00038B5040001D1012032BD00F021F808B91A
:104A000000F022F800F012F800F023F8FFE741610F
:104A100000F001F832BD2068C16841F40051C16066
:104A20000020686020216970A97070472420687098
:104A30002068C16821F40051C160204600F04FBADF
:104A400004F138056878704700212970204600F08D
:104A5000DCBB2068016921F4904101612068416953
:104A600021F02A0170472DE9F843054605F1380782
:104A70000C4678782028164698463DD1002C14BF65
:104A8000002E012039D03878012835D00121397025
:104A90000020786021227A7000F098FAAE84814676
:104AA000EE8403E0296814F8010B4860E88C30B309
:104AB000E88C411EE9844B46A868CDF80080B0F52B
:104AC000805F0DD100F025F870B920882968C0F307
:104AD000080048602869002814BF641CA41CE5E78E
:104AE00000F017F80028DDD0032006E020207870C1
:104AF00000213970002000E00220BDE8F283CDF8EB
:104B000000804B460022402100F005F80028EDD03F
:104B1000EAE700228021284649E110B500F1380378
:104B20005C78202C18D109B1140001D1012010BDEE
:104B30001C78012C10D001241C7001628284C28474
:104B40000021596021225A7019700068C26842F031
:104B50008002C260002010BD022010BD70B5044666
:104B600004F1380513466878202831D109B11800BE
:104B700001D1012070BD2878012829D0012028709A
:104B80002162A384E3840020686021226A700FF20E
:104B9000A110226B9062226B0FF2C110D062226BC7
:104BA0000FF2C11010630020266B70632068021D95
:104BB000206B00F021FC21686FF0400008600022AB
:104BC0002A702068416941F080014161002070BD78
:104BD000022070BD416921F040014161606B704766
:104BE00038B5044625682968EA686B6911F00F003A
:104BF00007D188065DD593065BD52046BDE83240D7
:104C000024E1D80702D412F4907F52D0C80705D50A
:104C1000D50503D5E06B40F00100E063480705D5FA
:104C2000DD0703D5E06B40F00200E063880705D59F
:104C3000DD0703D5E06B40F00400E063080705D50D
:104C4000DB0703D5E06B40F00800E063E06B002871
:104C50006CD0880604D5910644BF204600F0F6F8D3
:104C600020684069E16B0A0701D440061BD5204645
:104C700000F0D8F8206841694A060FD5FFF7AAFF6F
:104C800060B10FF2BD114163606B00F0EFFB0028D3
:104C90004CD0606B416BBDE8344008472046BDE80E
:104CA000324000F062BD204600F05FFD0020E0636E
:104CB00031BD08062AD5130628D594F839002128D5
:104CC00034D1A068B0F5805F206A0BD10188C1F3B0
:104CD0000801696020690028206A0CBF811C411C02
:104CE000216203E0411C216200786860E08C401E74
:104CF000E08480B2D0B92068C16821F08001C16031
:104D00002068C16841F04001C16031BD48060DD541
:104D100051060BD5E86820F04000E860202184F8B7
:104D200039102046BDE83240FEF7B0BC31BD00006E
:104D3000416A00680268930644BF0846FEF7A6BCB5
:104D40000020C8840868426922F080024261086835
:104D5000C16841F04001C16070470000406A00F046
:104D600005BD000038B5446A2068406904F1390582
:104D70002978212906D1010604D50022E2842046A3
:104D800000F047F8216848696978222906D1400671
:104D900004D50021E185204600F044F8E06B40F0A6
:104DA0001000E0632046BDE8324000F0DEBC2DE993
:104DB000F041069C05460E4690461F46286801684D
:104DC0003140B1420CBF01200020404517D114F101
:104DD000010FF3D024B100F0F9F8C01B8442EDD2EA
:104DE0002868C16821F4D07100F00CF805F1380092
:104DF00020214170817000210170032000E000201B
:104E0000BDE8F081C16028684169490849004161F5
:104E100070470168CA6822F0C002CA60202180F889
:104E2000391070470168CA6822F49072CA6001683C
:104E30004A69520852004A61202180F83A107047AE
:104E4000406A0021C185C18400F08FBC80B590F814
:104E50003A10222941D18168B1F5805F12D10169F0
:104E60000368826A0029596805D1C1F308011180DD
:104E7000826A911C04E001F0FF011180826A511CDA
:104E800081620FE001690029816A04D14A1C8262B3
:104E900003685A6805E04A1C826203685A6802F097
:104EA0007F020A70C18D491EC18589B299B9016816
:104EB000CA6822F02002CA600168CA6822F48072BF
:104EC000CA6001684A69520852004A61202180F88C
:104ED0003A1000F04CFC002002BD022002BD2DE97A
:104EE000F0470446642522681169E06821F44051C6
:104EF000014311611926D3683249A0680B4021692A
:104F0000034360690B430343D3605169A06921F4F3
:104F1000407101432C48516182420ED100F070FE75
:104F2000074600F06DFE804600F06AFE814600F004
:104F300067FE824600F064FE0DE000F059FE074671
:104F400000F056FE804600F053FE814600F050FE11
:104F5000824600F04DFE616889007743B7FBF1F3AC
:104F60006422B3FBF2F206FB08F3B3FBF1F706FB96
:104F700009F3B3FBF1FCAE46BCFBFEFE05FB1E775E
:104F80003F0132376423B7FBF3F303F0F00303EB85
:104F9000021306FB0AF74643B7FBF1F2B6FBF1F04A
:104FA0006421B0FBF1F105FB11252D0132356420A0
:104FB000B5FBF0F0216800F00F00C3188B60BDE86E
:104FC000F0870000F3E9FFFF003801400148406826
:104FD000704700BFEC01002010B50446FCF7A7F8AD
:104FE000014620460969BDE81040084710B504464F
:104FF000FCF79DF801462046C969BDE81040084706
:10500000EFF30980BFF36F8F1D4B1A6820E9F00F93
:10501000106008B54FF0500080F31188BFF34F8F38
:10502000BFF36F8FFFF719F84FF0000080F311887E
:10503000BDE8084019680868B0E8F00F80F30988F7
:10504000BFF36F8F70470E4B19680868B0E8F00F18
:1050500080F30988BFF36F8F4FF0000080F3118851
:105060004EF00D0E704707480068006880F308880E
:1050700062B661B6BFF34F8FBFF36F8F00DF0000E2
:10508000980F002008ED00E04FF0FF3200F108011A
:1050900082604160C16000F108020261002101608C
:1050A000704700210161704710B542684A609368FB
:1050B0008B6094686160916008610168491C0160BF
:1050C00010BD30B50A6812F1010F08BF036907D09F
:1050D00000F1080300E023465C682568AA42FAD282
:1050E0005A684A6091608B60596008610168491C88
:1050F000016030BD4368016982689A6083684268D4
:105100005A604A68824204BF83684B600022026191
:105110000868401E0860704710B5FDF764FC040085
:1051200004D1BDE81040124800F0B7BDFDF7B2FB56
:1051300000F018F80F48FEF7C5FCBDE810404FF42A
:105140007A7000F0B1BD10B5FDF759FC040008D02D
:10515000FDF7A0FB00F006F8BDE810400548FEF79B
:10516000B1BC10BD82B221460120FEF72EB900006D
:10517000BC010020E46A000880B57348016841F072
:1051800001010160026802F0010200920099426888
:1051900042F080524260406800F0805000900098D9
:1051A000032000F0A2FD002200216FF00B0000F0B0
:1051B000A9FD002200216FF00A0000F0A3FD0022EB
:1051C00000216FF0090000F09DFD002200216FF02A
:1051D000040000F097FD002200216FF0030000F0B2
:1051E00091FD00220F216FF0010000F08BFD0022E5
:1051F0000F214FF0FF3000F085FD5448016821F089
:10520000E06141F00071016001BDF0B5044685B078
:1052100020684F4A4F4D504E504F4B49904237D126
:10522000086840F4804008600222096801F4804167
:1052300004914FF4007104980091032301920393A9
:1052400069463846FDF772FC00214FF480620191F7
:105250000291009269463846FDF768FC1020404FE5
:10526000786080200021F86000F067F83E603846E2
:1052700000F07EF818B18A21284600F09BFF2763D2
:105280007C6200220521252000F03CFD252050E015
:10529000344A90424FD1486840F4003048600222BE
:1052A000486800F4003004900421049800910192B1
:1052B0000321039138466946FDF738FC0820002198
:1052C00000900191029138466946FDF72FFC264F68
:1052D00006F12800386000218020F860796000F035
:1052E0002CF8384600F044F818B1B821284600F0F0
:1052F00061FF67637C6206F13C001C4F38608020D0
:1053000010210022F8607960BA603A617A61BA616E
:10531000FA61384600F02CF818B1C821284600F090
:1053200049FF27637C6200220521262000F0EAFC69
:10533000262000F004FD05B0F0BDB9603961796147
:10534000B961F96170470000181002400400014083
:1053500000380140A06A00084400024000080140F3
:105360003C1100200044004080110020C4110020A6
:1053700070B508B9012070BD0368DFF88853AB42EF
:1053800000F128040BD2DFF88013CA181426B2FBF0
:10539000F6F29200DFF87453A26165610AE0DFF86B
:1053A0007013CA181425B2FBF5F29200DFF86413EB
:1053B000A2616161022280F821201D684168826833
:1053C0006FF30D150D43C168154302690D43416923
:1053D000154382690D43C16915430D431D600023C8
:1053E00023606360A360E3602361012280F82120D1
:1053F00080F82030002070BDF8B50446002594F8F0
:105400002000012801D10220F2BD94F82160012082
:10541000012E84F8200024D1022004F12C0684F807
:105420002100F560206807687F087F00076020463C
:1054300000F08AF92168306820B10A6842F00E0253
:105440000A6008E0086820F004000860206801682D
:1054500041F00A0101602068016841F0010101602A
:1054600002E084F8205002252846F2BDF8B590F8F5
:1054700021200024022A00F1340103D004204860D6
:1054800001245FE00268DFF89062136823F00E03E6
:1054900013604FF48077026815686D086D00156021
:1054A0004FF480320368B3424FF4805519D9DFF8C6
:1054B0005462B34208BF012210D0DFF86062B342E9
:1054C00008BF10220AD0DFF85862B34208BF3A463C
:1054D00004D0DFF85072BB4208BF2A46DFF84832DA
:1054E00027E0DFF848C263451CD0DFF844E273458B
:1054F0001AD0DFF840C2634518D0DFF83C72BB42D7
:105500000EBF2A46DFF83452AB4210D0DFF83072BB
:10551000BB4208BF4FF4801209D0B34207D14FF00D
:10552000807204E0012202E0102200E03A46DFF837
:1055300014321A60012280F8212080F82040096886
:1055400001B188472046F2BD2DE9F84F00F128024D
:1055500004275169704E0B680468DFF8D0B12568E4
:105560009169DFF8C4C1DFF8BCE1DFF8B481DFF88E
:10557000AC91DFF890A18DF800109DF800108F40DD
:105580003B424AD0690748D52368990603D423686B
:1055900023F0040323604FF480230168B1424FF4E9
:1055A00080444FF4806511D9514508BF04230AD0C7
:1055B000494508BF402306D0414508BF2B4602D0CD
:1055C000714508BF2346CCF8003020E0594517D07C
:1055D000574FB94216D0574FB94215D0564DA94230
:1055E0000EBF2346554CA1420FD0554DA94208BFCE
:1055F0004FF4800309D0B14207D14FF0806304E03B
:10560000042302E0402300E02B464E490B60516822
:10561000002975D0BDE8F44F08479DF80010022717
:105620008F403B424FD0A9074DD52368990606D439
:10563000236823F00A032360012180F821104FF42E
:1056400000330168B1424FF400544FF4007511D992
:10565000514508BF02230AD0494508BF202306D080
:10566000414508BF2B4602D0714508BF2346CCF800
:10567000003020E0594517D02D4FB94216D02D4F9C
:10568000B94215D02C4DA9420EBF23462B4CA14246
:105690000FD02B4DA94208BF4FF4001309D0B142DF
:1056A00007D14FF0007304E0022302E0202300E062
:1056B0002B4624490B60002380F820301168F9B193
:1056C000BDE8F44F08479DF8001008268E4033428D
:1056D00016D0290714D5236823F00E032360012474
:1056E000916953698C405C600121116180F821103F
:1056F000002180F82010916811B1BDE8F44F0847EF
:10570000BDE8F18F08040240F8FFFDBF0000024031
:10571000F8FBFDBF00040240800002401C04024070
:1057200030040240440402400404024008000240E5
:105730001C00024030000240440002405800024079
:105740006C0002400400024070B5046CC66B012579
:10575000A5407560046863604068102802D1A260AB
:10576000E16070BDA160E26070BD70477047704736
:105770002DE9F8430646DFF89C543078C10748D538
:10578000686800F00C00042807D0686800F00C007E
:1057900008280BD16868C10308D52868810338D56B
:1057A0007068002840F0BE80012067E17068B0F5A5
:1057B000803F04D1286840F48030286014E008B9A4
:1057C00028680AE0B0F5A02F286806D140F48020B0
:1057D0002860296841F4803105E020F48030286099
:1057E000296821F480212960706868B1FFF7EEFB19
:1057F00004462868810300F19580FFF7E7FB001B52
:105800006528F6D3032039E1FFF7E0FB044628685A
:10581000810340F18780FFF7D9FB001B6528F6D391
:10582000F0E7FFF7D3FB001B022840F2AA80E9E76C
:10583000306970B101213960FFF7C8FB0446286860
:10584000810700F1DC80FFF7C1FB001B0228F6D9BD
:10585000D8E73860FFF7BAFB04462968880765D5A2
:10586000FFF7B4FB001B0228F7D9CBE70860FFF76E
:10587000ADFB0446686A810777D5FFF7A7FB001BDD
:105880000228F7D9BEE708B9286A09E00528286A7E
:1058900006D140F004002862286A40F0010005E0CB
:1058A000400840002862286A20F00400286241F283
:1058B0008938F06868B1FFF789FB8146286A81075B
:1058C00000F1AA80FFF782FBA0EB09004045F5D369
:1058D00098E7FFF77BFB8146286A810740F19C80AF
:1058E000FFF774FBA0EB09004045F5D38AE7FFF70B
:1058F0006DFB001B022840F2A28083E7FFF766FBE6
:10590000001B022840F2B5807CE700F0B9F804469D
:105910002868810140F1B180FFF758FB001B022885
:10592000F6D96FE73078DFF8F87281071BD5686821
:1059300010F00C0F09D0686800F00C0008287FF404
:1059400077AF6868C1033FF573AF2868810703D557
:10595000306901287FF428AF2968706921F0F801C7
:1059600041EAC0012960317808071DD5B069DFF828
:10597000B41200283FF47AAF01220A60FFF726FB39
:105980000446686A81077FF54CAFDFF88C02026835
:10599000D2084FF47A71B2FBF1F1009100BF009888
:1059A000411E00280091F9D13078410739D5E869C6
:1059B0000024C10009D4E86940F08050E861012466
:1059C000E86900F0805000900098DFF85C82D8F819
:1059D0000000C1051BD4D8F8000040F48070C8F85E
:1059E0000000FFF7F3FA8146D8F80000C1050ED495
:1059F000FFF7ECFAA0EB09006528F5D302E7286869
:105A0000716920F0F80040EAC1002860ABE7F06857
:105A100001287FF438AF3FE71CB1E86920F08050DF
:105A2000E861F06948B3696801F00C0108293FF4A6
:105A3000BBAE02287FF469AF00F022F80446286864
:105A400081013FF554AF306AB0F5803F05D16968F8
:105A5000B06821F40031014369606A68306A716A94
:105A600022F4741202430A436A60012000F009F82C
:105A70000446286881017FF541AF0020BDE8F2832C
:105A800000203866FFF7A2BA2DE9F843674F0546B4
:105A90003868894600F00700484502D200F079F8DE
:105AA0006BD128785B4C810705D56268A86822F025
:105AB000F002024362602978C80756D56868012859
:105AC00002D121688A0303E00228216802D18A01F9
:105AD00002D452E08A0750D56168890840EA810003
