:020000040800F2
:10000000F013002079230008AD120008AF12000899
:10001000B3120008B7120008BB120008000000006D
:10002000000000000000000000000000BF120008F7
:10003000C112000800000000C3120008C512000829
:10004000932300089323000893230008C543000866
:1000500093230008932300089323000893230008A8
:100060009323000893230008932300089323000898
:100070009323000893230008932300089323000888
:100080009323000893230008932300089323000878
:100090009323000893230008932300089323000868
:1000A0009323000893230008932300089323000858
:1000B000932300085F15000893230008932300088A
:1000C0009323000893230008932300089323000838
:1000D000932300080B2200082B220008932300081A
:1000E0009323000893230008932300089323000818
:1000F0009323000893230008932300089323000808
:1001000093230008932300089323000893230008F7
:1001100093230008932300089323000893230008E7
:1001200093230008932300089323000893230008D7
:10013000DFF80CD004F0CCFD00480047970300081E
:10014000F013002001468A68C868801A7047C268A8
:1001500083881A4003689954C268521CC260704771
:10016000826883881A4003689A5C0A708268521C0D
:1001700082607047034609B90E20704712B1501EC5
:10018000104008B10920F8E71960501E988000203F
:100190009860D86000BFF0E770B504460D46204671
:1001A000FFF7D0FFA188884205D829462046FFF7EF
:1001B000CEFF002070BD0420FCE770B504460D465C
:1001C0002046FFF7BFFF28B129462046FFF7C8FFAA
:1001D000002070BD0520FCE70146C868886000204B
:1001E00070472DE9F04707460E4614460025A846FD
:1001F000A946AA4600BF17B90E20BDE8F08700BF88
:1002000000BF0CB90E20F8E700BF25603846FFF7A5
:1002100099FF0546D4F800800DB90520EDE716B921
:1002200025600020E9E7A84501D2C24600E0AA46C1
:1002300000BF484609F1010981193846FFF790FFD0
:10024000D145F6D3C4F800A00020D6E72DE9F04749
:1002500006460F4614460025A846A946AA4600BFF2
:1002600016B90E20BDE8F08700BF00BF0CB90E2004
:10027000F8E700BF3046FFF765FFB188081A451C54
:10028000D4F8008025600DB90420EBE717B925608C
:100290000020E7E7A84501D2C24600E0AA4600BF19
:1002A000484609F10109395C3046FFF750FFD14556
:1002B000F6D3C4F800A00020D4E700B50346022B13
:1002C00004D12148FFF788FF02460CE0012B04D13E
:1002D0001E48FFF781FF024605E0032B03D11A48B1
:1002E000FFF77AFF024600BF0AB1104600BD00BF0B
:1002F0000020FBE770B504460D460CB90E2070BD1A
:10030000022D04D121461048FFF757FFF7E7012DD2
:1003100004D121460D48FFF750FFF0E70E20EEE72D
:1003200070B506460C46022C05D131460648FFF74B
:1003300033FF054606E0012C04D131460348FFF7A0
:100340002BFF0546284670BD280300201803002017
:1003500010B5642001F077FE05225449012001F018
:10036000DAFF10BD10B503F00EFF514800780628E3
:1003700008DC01214F4802F08EF902214D4802F0BD
:100380008AF907E001214B4802F083F9022149482C
:1003900002F07FF910BD484800F0CFFC01F016FED6
:1003A0004FF4A06001F0FAFF4FF4E13001F088FE55
:1003B0004FF4E13001F0DCFE01F0DAFC41F61F41C0
:1003C0004AF6C87001F072F84FF480513B4802F0D1
:1003D00062F903F0ACFF20B14FF48061062001F018
:1003E000DFFD0DE001F0EEFD01F07AF901F054F9C6
:1003F00001F07FFB01F0C7F9FFF7B4FFFFF7A8FF9B
:10040000F0E72DE9F04106460C460025241D761E36
:100410002BA1206804F0BBF950B9012505E02B4859
:10042000016828468847681CC5B2392DF7DB3AE0D9
:1004300027A1206804F0ABF950B9002505E0234856
:10044000416828468847681CC5B2392DF7DB2AE089
:1004500022A1206804F09BF940B9606800F0C3F85D
:10046000C7B21A480168384688471CE019A12068BD
:1004700004F08DF940B9606800F0B5F8C7B21348D0
:100480004168384688470EE015A1206804F07FF9DE
:1004900048B94FF48061094802F0FBF84FF400615D
:1004A000064802F0F8F8BDE8F081000010000020D6
:1004B000BA0F002000140140040000200010014089
:1004C000414C4C5F4F50454E00000000740000202E
:1004D000414C4C5F434C4F534500000052554E0079
:1004E0006D6F746F725F7475726E5F6F6666000019
:1004F000F0B504460D46164614B10DB106B10BB960
:100500000020F0BD00210FE0002206E0501C9842C0
:1005100001D16018F5E7501C02B26018805CAF5C36
:10052000B842F3D0481C01B2F01A8842ECDA00203D
:10053000E7E770B5044600251CB1204604F020F919
:100540000546284670BD30B502460B460020EBB18B
:1005500018461446012105E001EB810569000A25D2
:10056000B4FBF5F40A2CF7D20BE0B2FBF1F5303511
:1005700000F8015BB2FBF1F501FB15220A25B1FB86
:10058000F5F10029F1D100250570184630BD70B590
:1005900003460C4600202CB320461D4601220121B3
:1005A00002E00901521C2D09102DFAD202F00106B9
:1005B00016B1302600F8016B0FE0B3FBF1F2092A07
:1005C00002D902F1370601E002F1300600F8016BB2
:1005D000B3FBF1F601FB163309090029EDD1002622
:1005E0000670204670BD70B50446002574B106E063
:1005F0002078303805EB850100EB4105641C04F0E0
:1006000041F800682178405C2028F1D0284670BD70
:1006100070B504460D46002694B108E020783038C5
:1006200006EB860100EB4106641C681EC5B204F0AF
:1006300029F800682178405C202801D1002DEDDCEC
:10064000304670BD70B504460025002C37D02078A8
:100650002D2811D1641C06E02078303805EB850187
:1006600000EB4105641C04F00DF800682178405C43
:100670002028F1D06D4222E020782B2810D1641C74
:1006800006E02078303805EB850100EB4105641C5D
:1006900003F0F8FF00682178405C2028F1D00EE0DC
:1006A00006E02078303805EB850100EB4105641C3D
:1006B00003F0E8FF00682178405C2028F1D028464C
:1006C00070BD70B5044600250CB9002070BD2078BF
:1006D000302806D16078782802D06078582800D178
:1006E000A41C22E003F0CEFF00682178405C2028A3
:1006F00003D12078A0F1300614E02078412806DBF1
:100700002078462803DC2078A0F137060AE020781C
:10071000612806DB2078662803DC2078A0F15706E4
:1007200000E005E006EB0515641C20780028D9D10F
:1007300000BF2846CAE72DE9F04104460D460026D1
:1007400014B90020BDE8F0812078302806D1607807
:10075000782802D06078582800D1A41C24E003F047
:1007600091FF00682178405C202803D12078A0F117
:10077000300714E02078412806DB2078462803DC87
:100780002078A0F137070AE02078612806DB20787E
:10079000662803DC2078A0F1570700E008E007EBAB
:1007A0000616641C681EC5B2207808B1002DD6DC80
:1007B00000BF3046C6E72DE9FC5F044600210D4628
:1007C0000E4600BF4FF0010B002C41D02046FFF732
:1007D0000AFF824600E0641C207810B120782E28A1
:1007E000F9D120782E2828D1641C4FF0000905E0AB
:1007F0000BEB8B004FEA400B09F1010903F042FFBC
:10080000006814F80910405C2028F1D02046FFF75A
:10081000EAFE019004F0E8F807468846584604F0DE
:10082000E3F802460B46CDE900013846414604F0A4
:100830006CF8074688463D464646504604F0D4F8D4
:100840002A463346CDE9000103F0B8FF05460E46BF
:1008500028463146BDE8FC9F2DE9FE4380460D4603
:1008600016460027002469464046FFF76CFE0746FF
:10087000E7B1DDB16846FFF75CFEC4B2B44207DB06
:10088000A01BC4B20DEB0401284603F08EFF0CE060
:10089000301BC4B230222146284603F053FF00200B
:1008A00028556946284603F05FFF2F463846BDE8C5
:1008B000FE832DE9FE4380460D46164600270024A0
:1008C00069464046FFF73FFE0746E7B1DDB168469F
:1008D000FFF72FFEC4B2B44207DBA01BC4B20DEB7E
:1008E0000401284603F061FF0CE0301BC4B2202253
:1008F0002146284603F026FF002028556946284651
:1009000003F032FF2F463846BDE8FE8370B505463A
:100910000C46002664B1002D02DB2B20207002E083
:100920002D2020706D42611C2846FFF70CFE2646E4
:10093000304670BD2DE9FE4380460D461646002721
:10094000002469464046FFF7E1FF0746E7B1DDB105
:100950006846FFF7EEFDC4B2B44207DBA01BC4B289
:100960000DEB0401284603F020FF0CE0301BC4B25D
:1009700020222146284603F0E5FE0020285569463E
:10098000284603F0F1FE2F463846BDE8FE8308B541
:100990000146088800906B460A465878107018780F
:1009A0005070088808BD08B50146086800906B467D
:1009B0000A46D878107098785070587890701878E7
:1009C000D070086808BD1CB50246D2E90001CDE927
:1009D00000016C461346E0791870A0795870607970
:1009E00098702079D870E0781871A0785871607884
:1009F00098712078D871D2E900011CBD10B502466B
:100A00000B4600205AB112F8010B002104E01478C3
:100A10006040521C4C1CA1B25C1E8C42F7DC10BD25
:100A200010B502460020002362B112F8010B00BF8E
:100A300005E014780444E0B2521C5C1CA3B24C1EC6
:100A40009C42F6DC10BD034649B1002A07DDDA807E
:100A500099600020188058809880012070470020FD
:100A6000FCE72DE9F041044688461746002600259C
:100A70003D46E088A188401A86B2B54224DC002DAC
:100A800022DDE0886188401A86B2AE4200DD2E4643
:100A90006288A16888183246414603F041FEA81BCF
:100AA00085B2002D07DD08EB06012A46A06803F099
:100AB00037FE658002E0608830446080A08838445A
:100AC000A0800120BDE8F0810020FBE72DE9F04186
:100AD000044688461746002600253D46A688B542AE
:100AE00024DC002D22DDE0882188401A86B2AE4247
:100AF00000DD2E462288A06881183246404603F069
:100B00000FFEA81B85B2002D07DD08EB06002A4664
:100B1000A16803F005FE258002E020883044208093
:100B2000A088C01BA0800120BDE8F0810020FBE769
:100B300070B50346184600240BE011F8016B86EAF5
:100B40002025F84E36F8155085EA0025A8B2651C18
:100B5000ACB29442F1DB70BD30B503460C4612B91D
:100B60004FF6FF7500E015882846002110E00512B9
:100B700045EA0025A8B25D5C6840C0F303156840F3
:100B800080EA0035A8B205062D0D80EA4500491C13
:100B9000A142ECD330BD70B50346184600240DE0E9
:100BA00011F8015B4540EDB2DF4E56F825506FF06D
:100BB0007F4606EA102685EA0600641C9442EFD3BD
:100BC00070BD014600BF0A0902EB8202500001F02D
:100BD0000F020244D0B27047014600200A2291FB66
:100BE000F2F21207100E0A2291FBF2F302FB13122B
:100BF0000243D0B27047F0B502460B4600240021F4
:100C00000020012519460EE04E1E975D965D3611B7
:100C100006EB4606A7EB4606F4B204FB0500642685
:100C200075434E1EF1B20029EEDCF0BD70B50446EE
:100C30000D460026114600230CE0E65C302000EB58
:100C4000161001F8010B06F00F00303001F8010B0F
:100C5000581C83B2AB42F0DB00200870104670BD18
:100C600070B503460C4600210025611E10E064208B
:100C7000B3FBF0F600FB16350A2095FBF0F000EB15
:100C8000400005EB400050546420B3FBF0F3491ED4
:100C90000029ECDA104670BD70B505462C4609E017
:100CA00003F0F0FC00682178405C00F03E0000B9E1
:100CB00003E0641C20780028F2D100BF00202070DF
:100CC000284670BD70B505462C4609E003F0DAFCF5
:100CD00000682178405C00F0BA0000B903E0641CB1
:100CE00020780028F2D100BF00202070284670BD77
:100CF00070B505462C4609E003F0C4FC0068217875
:100D0000405C00F0980000B903E0641C20780028E3
:100D1000F2D100BF00202070284670BD0A4601466F
:100D200004E00B78934200D103E0491C0B78002BC0
:100D3000F7D100BF00230B7070470146002000224E
:100D400081B10B6873B1794B1B6813B9774B19608C
:100D500007E0764B1A6800E092689368002BFBD19D
:100D6000916001207047F0B591B00646002500243F
:100D70006E48076800BF03E000204DF825006D1C99
:100D8000102DF9DB00E0761C307840B103F07AFCDE
:100D900000683178405C00F0BA000028F3D00125EB
:100DA0000096344620E000E0641C207840B103F057
:100DB00069FC00682178405C00F0BA000028F3D19B
:100DC00002E000202070641C207840B103F05AFC3F
:100DD00000682178405C00F0BA000028F1D020784B
:100DE00010B14DF825406D1C207808B1102DDADBCC
:100DF00000204DF825000CE0002D09DD3046396853
:100E000003F0C5FC20B9694628467A68904702E09D
:100E1000BF68002FF0D100BF11B0F0BD2DE9F04147
:100E200005460E464FF0FF37002409E055F8240030
:100E3000314603F0ACFC08B9274605E0601C84B2DB
:100E400055F824000028F1D100BF3846BDE8F081F4
:100E500008B50021009102E00099491C0091009919
:100E60008142F9D308BD324A126812B9304A106083
:100E70000DE02F4A116800E00969814202D00A6939
:100E8000002AF9D1814202D0002202610861704734
:100E9000017170470021C16070470020244A116829
:100EA00006E0CA688B689A4201D3086802E00969C3
:100EB0000029F6D100BF70471D49086805E0017997
:100EC00011B1C168491CC16000690028F7D17047A1
:100ED000034659B152B1501E104038B91960501E26
:100EE000586000209860D860012070470020FCE71F
:100EF0004368C2681A4003689954C268521CC260B1
:100F0000704701460020D1E901321A400B68985C15
:100F10008A68521C8A60704701468A68C868801ACD
:100F200070470000A8560008A858000818000020C4
:100F30001C000020C16881607047F0B503460D4673
:100F4000144600270026ADB1A4B11846FFF7E4FF10
:100F50000746BC4200D93C460AE0D3E901100840EC
:100F60001968085CA8559868401C9860641E761C37
:100F7000002CF2D13046F0BDF0B503460D461446C4
:100F800000270026BDB1B4B11846FFF7C5FF596868
:100F9000081A471CBC4200D93C460AE0A95D5A68C1
:100FA000D86810401A681154D868401CD860641E74
:100FB000761C002CF2D13046F0BD30B503460C460D
:100FC00000251846FFF7A8FFA04205D998682044DD
:100FD0005968084019680D5C284630BD2DE9F0437A
:100FE00003460C4615464FF000080026B146002780
:100FF00035B31846FFF790FF5968081A461C20467B
:10100000FFF78AFF0746B54200D93546BD4200D9F1
:101010003D46A94612E0D4E901100840216811F8C4
:101020000080A068401CA0605968D8680840196812
:1010300001F80080D868401CD8606D1E002DEAD1F0
:101040004846BDE8F0832DE9F05F04468846154622
:101050004FF0000900260027B246B3465DB328468C
:1010600003F08EFB83462046FFF756FF824600BF03
:101070001DE0A0684044304461680840216811F8D0
:10108000009000270FE0E819407810B93046BDE81D
:10109000F09FA068404430443844616808402168AB
:1010A00011F800907F1CE85D4845ECD0761CAAEB57
:1010B0000B00B042DDD24FF0FF30E8E72DE9F04100
:1010C00004460E461546002700239846D5B1204613
:1010D000FFF722FF804600BFA068304418446168D3
:1010E000084021680F5CE85CB84203D04FF0FF3045
:1010F000BDE8F0815B1C434502D2E85C0028EBD1DF
:101100000020F5E74FF0FF30F2E72DE9F04103460C
:101110000D46164600270024A0461846FFF7FCFEA1
:10112000804600BF986828442044596808401968E0
:101130000F5CB74202D12046BDE8F081641C4445F3
:10114000F0D34FF0FF30F7E7F0B503460D461646F3
:1011500000222946002000BF1FE09C5CE71704EB3B
:1011600017773811092802DD00F1370401E000F19A
:10117000300401F8014B9C5CE71704EB17773F1133
:10118000A4EB0717F8B2092802DD00F1370401E0EB
:1011900000F1300401F8014B521CB242DDD30024AF
:1011A0000C70F0BD2DE9F04704460D4617464FF090
:1011B00000080026B146B24600BF51E003F062FAD3
:1011C00000682178405C202804D12078303800F075
:1011D000FF0916E02078412807DB2078462804DC48
:1011E0002078373800F0FF090BE02078612807DB12
:1011F0002078662804DC2078573800F0FF0900E0EA
:1012000030E0641C85F80090761C03F03BFA00681F
:101210002178405C202804D12078303800F0FF0A83
:1012200016E02078412807DB2078462804DC207867
:10123000373800F0FF0A0BE02078612807DB2078C0
:10124000662804DC2078573800F0FF0A00E009E047
:10125000641C0AEB091028706D1C761C08F101084B
:10126000B845ABD300BF3046BDE8F08770B5024645
:1012700010465618731E002406E005781E78067086
:101280001D70401C5B1E641CB4EB510FF5D370BD88
:1012900008B5054800909DF80000122801D10120F2
:1012A00008BD0020FCE7000078563412704700BFEC
:1012B000FEE700BFFEE700BFFEE700BFFEE77047A6
:1012C00070477047704700000CB5002001900090F7
:1012D0006C48006840F480306A49086000BF694883
:1012E000006800F4003000900198401C01900098C4
:1012F00018B90198B0F5A06FF1D16248006800F408
:10130000003010B10120009001E000200090009812
:10131000012843D15C48006840F010005A49086039
:101320000846006820F0030008600846006840F0A6
:1013300002000860534840685249486008464068C7
:1013400048600846406840F480604860084640684D
:1013500020F47C1048600846406840F4F81048606B
:101360000846006840F08070086000BF454800688B
:1013700000F000700028F9D04248406820F00300D7
:10138000404948600846406840F00200486000BF9D
:101390003C48406800F00C000828F9D10CBD10B59D
:1013A000FFF792FF10BD10B53648006840F001000D
:1013B000344908600846406834490840314948606B
:1013C00008460068324908402E490860084600680F
:1013D00020F4802008600846406820F4FE00486041
:1013E0004FF41F008860FFF7DAFF4FF000602949D3
:1013F000086010BD10B5002100200022214B5B6861
:1014000003F00C0121B1042906D0082928D107E0F6
:10141000214B224C236027E0214B204C236023E00A
:10142000184B5B6803F47010164B5B6803F4803252
:10143000022303EB904022B91A4B4343174C23601D
:101440000DE0104B5B6803F4003323B1124B4343B0
:10145000124C236003E0124B4343104C236003E023
:101460000D4B0E4C236000BF00BF064B5B68C3F3FF
:1014700003130D4CE15C094B1B68CB40074C236008
:1014800010BD000000100240002002400000FFF8E4
:10149000FFFFF6FE08ED00E000127A0020000020B9
:1014A0000024F40000093D00240000207FB505461B
:1014B0000C460121022001F008FBADF80850ADF800
:1014C00004400020ADF80A00ADF8060001A93D482F
:1014D00001F02CFE012211463A4802F09EF91D202F
:1014E0008DF8000000208DF8010003208DF8020027
:1014F00001208DF80300684600F055FF01213148B6
:1015000002F070F97FBD10B5002425E02E4800EBF5
:101510000410007B00B91DE02B4800EB041040686C
:10152000401C294901EB04114860274800EB0410D6
:101530004068254901EB04110968884209D100205F
:10154000214901EB041148601F4901EB041188682F
:10155000804700BF601CC4B2052CD7DB10BD10B59E
:101560000121184802F007FC78B10121154802F06A
:1015700013FC16480068401C14490860FFF7C3FFBD
:1015800008221349FF2000F095F910BD10B5012382
:101590000D4C04EB001423730C4B1B680B440A4CDA
:1015A00004EB00142360084B03EB00139A6010BD9A
:1015B0000021054A02EB00121173034A02EB0012EC
:1015C0001160704700040040380300203400002000
:1015D000380000202DE9F04104468846002500BF70
:1015E00001E0681CC5B2112DFBDD0E22611C4FF617
:1015F000FF70FFF79DFA064620787E284AD1607C6E
:101600007E2847D16078032820D005DC58B1012816
:1016100012D002283DD114E0042826D0842830D0EE
:10162000852836D131E0204600F0ECF808226B49DD
:10163000802000F03FF92CE004F10D0000F006F9E5
:1016400027E004F10D0000F005F922E0002509E093
:10165000642000F0F8FC05226149022000F05BFEE6
:10166000681CC5B2022DF3DD13E0002706E0062258
:101670005C49022000F04FFE781CC7B2032FF6DD54
:1016800007E0A01C00F0FCF803E0A01C00F0FEF84E
:1016900000BF00BFBDE8F08170B500260025002422
:1016A0005148FEF74FFD05460C2D18D300F08AFC7B
:1016B000642000F0C8FC4C48FEF744FD054600BF1E
:1016C00006E04A4908190221FEF714FE601CC4B264
:1016D000AC42F6D30025F1B24448FFF77BFF70BD62
:1016E0007FB5002500240020009001900290039017
:1016F0003F48FEF727FD0546102D43D300F062FC5E
:10170000642000F0A0FC3A48FEF71CFD054600BF2F
:1017100006E0364908190121FEF7ECFD601CC4B251
:10172000AC42F6D30025002412E03048005D30388A
:10173000C0B20DF80400002606E006222D49012063
:1017400000F0E9FD701CC6B2032EF6DD601CC4B2C9
:10175000102CEADB00240EE0012000EB44001DF811
:1017600000001DF8141001EB810100EB410022493B
:101770000855601CC4B2072CEEDD08221E49052066
:1017800000F098F87FBD10B5012000F085FA1B49E4
:1017900008700846007800B30846007801281AD17E
:1017A00021201749087011E000F00CFC1448007863
:1017B00000F073FBC82000F046FC1148007800F0F0
:1017C00080FB0F480078401C0D4908700C480078D9
:1017D0003628E9DD00E000BF00BF10BD4E0000204C
:1017E000560000205C000020280300208803002011
:1017F0001803002048000020400000206200002064
:1018000063000020FEB50546A8780006E97840EAA6
:101810000140297940EA0120697940EA01060296EF
:1018200002A802F033FF044620782179CDE90010A8
:10183000277A0837FBB2227B277C7F1CF9B2A78A64
:1018400007F26C77B8B202F016FDFEBD01783E4A91
:101850001173704701783C4A1173704730B50146E7
:10186000002200200A79012006E00B1D1C5C431EAB
:10187000364DEC54431CD8B2531C9842F5DB30BDB6
:101880004179012901D1324A117070470121304A52
:10189000117070470146002000BF04E00A5C2D4B28
:1018A0001A54421CD0B20A798242F7DC0122284B3A
:1018B0009A7070472DE9F04186B007468846164673
:1018C00000F080FB0024142101A802F042FF7E20DA
:1018D0008DF804008DF8057001208DF806000220B7
:1018E0008DF8070003208DF8080004208DF809000A
:1018F0008DF80A6000BF06E018F80410E01D01AA88
:101900001154601CC4B2B442F6DB0E220DF1050185
:101910004FF6FF70FFF70CF90546E8B28DF813009B
:1019200028128DF814007E208DF81500002401E0A7
:10193000601CC4B2112CFBDD112201A9022000F0B1
:10194000EAFC06B0BDE8F0817400002064000020CD
:10195000840000208807002010B500F033FBC04849
:10196000407B08280FD2DFE800F0048F8F0F8F2311
:101970004870BB48007B18B10320B949487302E0A6
:101980000020B849C8707FE0B54A107B11688847CD
:10199000B34881683720884748B10120B2490870B0
:1019A000AF4A107B516888470520AD4948736BE00A
:1019B000AB4881684E208847F0B9AB4800780128D1
:1019C0001AD1642000F063FB4FF48051A74800F067
:1019D00060FE4FF40061A54800F05BFE4FF48061AB
:1019E000A24800F058FE00F0EDFA4FF47A7000F0D3
:1019F0004EFB06209A49487346E04FF47A7000F097
:101A000046FB974881684E208847E8B100F0DAFA33
:101A10004FF48061954800F03CFE4FF4006193481C
:101A200000F039FE4FF47A7000F031FB00F0CAFA92
:101A30004FF480518D4800F02EFE00208A49087036
:101A400087490873072048731EE08948007840B131
:101A5000002087490870824948738549487008709A
:101A600011E083484078401C81494870052000F00F
:101A7000EAFA7F4840780A2805DB00207849487355
:101A80007B490870487000BF00BF10BD10B5744896
:101A9000407B20B107281DD0092828D10EE07048CE
:101AA000007B38B16E4A107B1168884709206C4969
:101AB000487302E000206B49C87018E040F6B83067
:101AC00000F0C1FA664A107B5168884707206449D4
:101AD00048730CE067480021016081808171604893
:101AE000007B18B100205E490873487300BF00BF37
:101AF00010BD08B5002000905A48C07830B10128C8
:101B00003ED002283FD0072839D13FE000F0EAF864
:101B100020B907205349C870887008E000F0E2F847
:101B2000FF2804D107204F49C8700420887000F0B6
:101B30001AFA212808DA00F016FA002804DD072036
:101B40004849C87048701AE000F00DFA212804DBFB
:101B500007204449C870087011E000F004FAFF281B
:101B60000DD13F48007B212803DB04203D4908704C
:101B700002E004203B49487007203A49C8706DE0F4
:101B8000FFF784FF6AE0FFF7E7FE67E000203549D2
:101B9000C8700846407804280CD10020009001222B
:101BA00069468120FFF786FE00202E4948702C49A7
:101BB00008730AE02B484078072806D101200090DE
:101BC00002202849C8700020487026480078042860
:101BD0000CD100200090012269468220FFF76AFEA6
:101BE0000020204948701E4908730FE01D48007806
:101BF00007280BD101200090012269468220FFF7BF
:101C000059FE01201749C8700020087015488078D7
:101C100004280FD100200090012269468320FFF79D
:101C200049FE00200F498870124800210160818020
:101C3000817112E00B48807807280ED101200090B6
:101C4000012269468320FFF735FE00200549887090
:101C50000848002101608180817100BF00BF08BD7C
:101C600074000020700000206B0000200010014074
:101C7000840000206400002008B50121202000F02D
:101C800017FF0420ADF8000010208DF8030069460E
:101C9000114800F051FC08BD10B5044614B10120F4
:101CA0000E4908700D48007888B104210A4800F0F8
:101CB000D6FC60B90A2000F0C6F900200749087078
:101CC0000421054800F0CBFC18B9012010BD00200C
:101CD000FCE70020FAE70000001401406C0000203F
:101CE000002070471CB51DA103C9CDE900011D49A5
:101CF000684602F04CFD30B9FFF7F2FF08B900204A
:101D00001CBDFF20FCE70120FAE710B516488078DB
:101D100010B3164802F034FDC4B222461349052020
:101D2000FFF7C8FD052000F08EF90F48007828B9AC
:101D30000D484078401C0C49487004E000200A49D6
:101D400088704870087008484078642804DB0020D8
:101D5000054988700870487010BD00005343414E1B
:101D6000204F4E00640000208400002088070020DF
:101D700038B50024012140F2FD1000F099FE012148
:101D8000814800F0AAFC4FF44060ADF8000010203C
:101D90008DF8030003208DF8020069467B4800F0AF
:101DA000CBFB4FF48061794800F075FC4FF4006183
:101DB000764800F070FC4FF48050ADF800004820E9
:101DC0008DF803006946714800F0B6FB0320ADF8BA
:101DD000000010208DF8030069466D4800F0ACFB50
:101DE00003208DF802008002ADF8000010208DF86D
:101DF00003006946654800F09FFB03208DF8020050
:101E00004FF48050ADF8000010208DF803006946B3
:101E10005E4800F091FB03208DF802001020ADF821
:101E2000000028208DF803006946594800F084FB23
:101E300003208DF802000420ADF8000048208DF842
:101E400003006946524800F077FB03208DF802003A
:101E500000BF1FE04F4800EBC4008088ADF80000D1
:101E60004C4800EBC40080798DF8030003208DF806
:101E70000200484951F83400694600F05DFB454ACC
:101E800002EBC4029188434A52F8340000F003FC8C
:101E9000601CC4B24E2CDDDB38BD10B50446012CED
:101EA00001DB382C01DD012010BD621E394B03EB34
:101EB000C2029188621E53F8320000F0EAFB002053
:101EC000F2E710B50446012C01DB382C01DD0120BE
:101ED00010BD621E2F4B03EBC2029188621E53F8A5
:101EE000320000F0D8FB0020F2E710B50446621E75
:101EF000284B03EBC2029188621E53F8320000F0B7
:101F0000AEFB10BD10B504462348816837208847D2
:101F1000FF2801D1012010BD1F4881682046884755
:101F200058B1052000F08FF81B488168204688478B
:101F3000B8B101201949087013E01848007880B141
:101F4000154881682046884758B9052000F07BF87D
:101F5000114881682046884718B900200F49087049
:101F6000D9E70120D7E710B50B48007B48B10A4AF2
:101F7000107B1168884710B90748007B10BDFF200F
:101F8000FCE70020FAE700000002300000100140EA
:101F9000001401408800002074000020F802002096
:101FA00070B505460C4645F2555002F065F82846D6
:101FB00002F065F8204602F065F802F066F802F0DB
:101FC00069F870BD10B502F060F810BD10B56FF083
:101FD000040000F032FA364800683649B0FBF1F0F0
:101FE000354908700846007800EB4001C1EBC0108D
:101FF0004FF6FF7101EAC0003049088010BD01466C
:102000002D4A12784A434FF0E0235A6100229A6128
:102010001A46126942F001021A6100BF4FF0E02235
:10202000106900F001021AB100F48032002AF5D0E4
:102030004FF0E022126922F001024FF0E0231A6112
:1020400000229A61704701461C4A12884A434FF0A9
:10205000E0235A6100229A611A46126942F0010295
:102060001A6100BF4FF0E022106900F001021AB1BE
:1020700000F48032002AF5D04FF0E022126922F0FD
:1020800001024FF0E0231A6100229A61704700219B
:1020900007E042F6E06100BF0A1EA1F1010399B218
:1020A000FAD1021EA0F1010398B2F2D170470000EC
:1020B0002000002000127A00FA020020FC0200201A
:1020C00010B586B00446012144F2040000F0F0FC93
:1020D0004FF40070ADF8140003208DF8160018209E
:1020E0008DF8170005A99D4800F026FA4FF480608E
:1020F000ADF8140004208DF8170005A9974800F0EA
:102100001BFA25208DF8000003208DF801008DF8C2
:10211000020001208DF80300684600F044F90194A4
:102120000020ADF80800ADF80A00ADF80C00ADF8DD
:1021300010000C20ADF80E0001A9894800F061FDE7
:10214000012240F22551864800F0F3FD0121844828
:1021500000F0E3FD4FF4806282498348FEF70AF8FD
:102160004FF4806281498248FEF704F806B010BD42
:1021700010B586B004460121042000F099FC01212D
:10218000480400F0A2FC0420ADF8140003208DF8F0
:10219000160018208DF8170005A9704800F0CCF93A
:1021A0000820ADF8140004208DF8170005A96B482D
:1021B00000F0C2F926208DF8000003208DF8010000
:1021C0008DF8020001208DF80300684600F0EBF85E
:1021D00001940020ADF80800ADF80A00ADF80C003D
:1021E000ADF810000C20ADF80E0001A9614800F018
:1021F00008FD012240F225515E4800F09AFD0121C0
:102200005C4800F08AFD06B010BD10B540F22551C3
:10221000534800F073FE38B1514800F0EFFDC4B2EE
:1022200002212046FEF77CF810BD10B540F2255182
:10223000504800F063FE38B14E4800F0DFFDC4B2F4
:1022400001212046FEF76CF810BD0FB410B5B4B0F4
:10225000C82102A802F07DFA002437A80190C82105
:1022600002A8019B369A02F095FD0EE02046621C02
:10227000D4B202AA115C3F4800F0BCFD00BF40216F
:102280003C4800F025FE0028F9D0C82C02DA02A84C
:102290000028EBD10020019034B010BC5DF814FB95
:1022A00070B504460D46E1B22D4800F0A3FD00BF15
:1022B00040212B4800F00CFE0028F9D0204670BDCC
:1022C0000FB410B5B4B0C82102A802F042FA00243D
:1022D00037A80190C82102A8019B369A02F05AFD46
:1022E0000EE02046621CD4B202AA115C1C4800F029
:1022F00081FD00BF40211A4800F0EAFD0028F9D016
:10230000C82C02DA02A80028EBD10020019034B0DA
:1023100010BC5DF814FB2DE9F04104460D4616464D
:102320000027B846012C02D1DFF8488003E0022CD8
:1023300001D1DFF82C800CE038467F1C295C404638
:1023400000F058FD00BF4021404600F0C1FD0028CC
:10235000F9D0B742F0DDBDE8F0810000000801408F
:1023600000380140BA07002028030020BA0B0020E3
:1023700018030020004400400648804706480047F4
:10238000FEE7FEE7FEE7FEE7FEE7FEE7FEE7FEE725
:10239000FEE7FEE7A71300083101000831490143B9
:1023A000314A1160704770B5002100230F22C478B4
:1023B00004B32D4C246804F4E064C4F5E064210AFD
:1023C000C1F10403CA40447804FA03F1847814404C
:1023D00021430901254C0678A155047804F01F0516
:1023E0000124AC4005786D11AD0005F1E025C5F87C
:1023F000004109E0047804F01F050124AC401C4DA5
:102400000678761145F8264070BD1A4A0A40024304
:10241000154B1B1F1A60704739B1134A121D126801
:102420000243114B1B1D1A6006E00F4A121D126871
:1024300082430D4B1B1D1A607047042808D14FF0D2
:10244000E021096941F004014FF0E022116107E049
:102450004FF0E021096921F004014FF0E022116101
:10246000704700000000FA050CED00E000E400E019
:1024700080E100E080FFFF1F10B50446CC48844295
:1024800008D10121042000F02DFB0021042000F0E0
:1024900029FB46E0C748844208D10121082000F00A
:1024A00021FB0021082000F01DFB3AE0C2488442D5
:1024B00008D10121102000F015FB0021102000F0B0
:1024C00011FB2EE0BD48844208D10121202000F0FC
:1024D00009FB0021202000F005FB22E0B8488442DF
:1024E00008D10121402000F0FDFA0021402000F039
:1024F000F9FA16E0B348844208D10121802000F0A7
:10250000F1FA0021802000F0EDFA0AE0AE488442A2
:1025100007D10121801500F0E5FA0021A01500F097
:10252000E1FA10BD10B50121084600F0DBFA0021E8
:10253000012000F0D7FA10BD2DE9F0410246002538
:102540000026002000230024002791F803C00CF08F
:102550000F0591F803C00CF0100CBCF1000F03D074
:1025600091F802C04CEA050591F800C0BCF1000FDB
:1025700031D0146800202BE04FF0010C0CFA00F36E
:10258000B1F800C00CEA03069E4220D183004FF050
:102590000F0C0CFA03F7BC4305FA03FC4CEA0404E5
:1025A00091F803C0BCF1280F06D14FF0010C0CFAD2
:1025B00000FCC2F814C00AE091F803C0BCF1480F57
:1025C00005D14FF0010C0CFA00FCC2F810C0401C01
:1025D0000828D1D31460B1F800C0BCF1FF0F34DD7E
:1025E000546800202EE000F1080C4FF0010808FAB2
:1025F0000CF3B1F800C00CEA03069E4221D183001F
:102600004FF00F0C0CFA03F7BC4305FA03FC4CEA3D
:10261000040491F803C0BCF1280F05D100F1080CA7
:1026200008FA0CF8C2F8148091F803C0BCF1480F06
:1026300007D100F1080C4FF0010808FA0CF8C2F8B5
:102640001080401C0828CED35460BDE8F0814FF6BE
:10265000FF710180022181700421C1707047024620
:10266000002093680B400BB1012000E00020704770
:102670000146886880B2704702460020D3680B404C
:102680000BB1012000E0002070470146C86880B20D
:10269000704701617047416170470AB1016100E014
:1026A00041617047C16070474FF480320A438261D4
:1026B0008161826182698269704702460020434BD2
:1026C00018684FF68073184040EA021008433F4BE9
:1026D000186070473E49C8617047F0B50A4600234C
:1026E00000240021002500F00046B6F1004F02D181
:1026F000364EF16901E0354E7168C0F3034583B28F
:1027000000F44016B6F5401F08D121F070612F4E3D
:10271000766826F070662D4F7E6012E000F4801619
:10272000B6F5801F06D1032606FA05F4A14341F051
:10273000706106E0460D360103FA06F6B14341F03A
:10274000706122B1460D360103FA06F6314300F0FE
:102750000046B6F1004F02D11C4EF16101E01B4E64
:102760007160F0BD30B500228B071C0F0F2303FAF8
:1027700004F2164B08338C1053F824309343134C57
:1027800008348D1044F8253023468C1053F824303B
:102790008C07240F00FA04F423430C4C08348D10EA
:1027A00044F8253030BD0A49DC310860704700002C
:1027B00000080140000C01400010014000140140DD
:1027C00000180140001C01400020014000000140B1
:1027D00000002042DF48006840F00100DD49086049
:1027E00008464068DC490840DA4948600846006805
:1027F000DA490840D74908600846006820F480207C
:1028000008600846406820F4FE0048604FF41F004E
:1028100088607047CF49096821F48031CD4A116042
:102820001146096821F480211160B0F5803F03D082
:10283000B0F5802F0ED106E0C649096841F4803119
:10284000C44A116007E0C349096841F4A021C14AA4
:10285000116000E000BF00BF704710B501460022C4
:10286000002300204A11012A02D1BA4C236806E055
:10287000022A02D1B74C236A01E0B64C636A01F028
:102880001F02012494401C400CB1012000E00020F4
:1028900010BD38B5002000900024002500BF312075
:1028A000FFF7DBFF05460098401C00900098B0F54C
:1028B000A06F01D0002DF2D03120FFF7CEFF08B17C
:1028C000012400E00024204638BD01460020A14A32
:1028D000106820F0F80040EAC10010607047A0497D
:1028E00008607047024600209A4B586820F47C101C
:1028F00042EA01031843974B5860704798490866AD
:10290000704701460020934A506820F003000843B6
:10291000506070478F48406800F00C0070470146D7
:1029200000208C4A506820F0F00008435060704747
:1029300001460020874A506820F4E0600843506058
:10294000704701460020834A506820F4605040EAF6
:10295000C1005060704729B17E4A527A02437D4BD4
:102960005A7204E07B4A527A82437A4B5A72704719
:102970007B49D8310860704701460020754A50688D
:1029800020F440400843506070470021714A2032D3
:102990001170704A82F82010012802D004280AD150
:1029A00004E001216B4A2032117005E00521694ADB
:1029B0002032117000E000BF00BF70476949086015
:1029C00070476449096A0143624A11627047654968
:1029D00044390860704730B50021002200240023EC
:1029E0005C4D6D6805F00C0121B1042905D0082962
:1029F00023D105E05C4D056022E05C4D05601FE0E1
:102A0000544D6D6805F47012524D6D6805F48034B4
:102A1000022505EB92421CB9554D554305600BE06C
:102A20004C4D6D6805F400351DB14F4D55430560A3
:102A300002E04E4D5543056002E04B4D056000BF7E
:102A400000BF444D6D6805F0F0010909494D6B5C0C
:102A50000568DD4045603F4D6D6805F4E061090A99
:102A6000444D6B5C4568DD4085603A4D6D6805F40A
:102A70006051C90A3F4D6B5C4568DD40C560354D0E
:102A80006D6805F44041890B3B4D6B5CC568B5FB37
:102A9000F3F5056130BD29B12E4A526902432D4B31
:102AA0005A6104E02B4A526982432A4B5A617047AB
:102AB00029B1284A92690243264B9A6104E0254ACB
:102AC00092698243234B9A61704729B1214AD269A6
:102AD0000243204BDA6104E01E4AD26982431D4B57
:102AE000DA61704729B11B4AD2680243194BDA6098
:102AF00004E0184AD2688243164BDA60704729B165
:102B0000144A12690243134B1A6104E0114A126914
:102B10008243104B1A617047124940390860704770
:102B20000F49C86470470B49C87170470948406A2B
:102B300040F0807007494862704701460020054A0E
:102B400092680A400AB1012000E000207047014964
:102B500088727047001002400000FFF8FFFFF6FE89
:102B6000000042428004424200127A000024F40035
:102B700000093D00FE0200200E03002010B50446AF
:102B8000FB48844209D101218803FFF7ABFF0021F4
:102B90004FF48040FFF7A6FF32E0F648844209D1A7
:102BA00001214804FFF7ABFF00214FF40030FFF78D
:102BB000A6FF25E0F048844209D101218804FFF7EF
:102BC0009EFF00214FF48020FFF799FF18E0EB48AB
:102BD000844209D10121C804FFF791FF00214FF47D
:102BE0000020FFF78CFF0BE0E548844208D101216B
:102BF0000805FFF784FF00214FF48010FFF77FFFE7
:102C000010BD2DE9F04786B005460E460024A246C9
:102C100000BFA1460027B08900B100BF2F462C8A13
:102C20004CF6FF700440F08804432C82AC894EF6C9
:102C3000F3100440B0883189084371890843044384
:102C4000AC81AC8A4FF6FF400440B0890443AC82AB
:102C500001A8FFF7C0FEC648874202D1DDF810A0E8
:102C600001E0DDF80CA0A88900F4004040B10AEBB7
:102C7000CA0000EB0A1031684900B0FBF1F807E028
:102C80000AEBCA0000EB0A1031688900B0FBF1F8CA
:102C90006420B8FBF0F004012009642101FB1089D5
:102CA000A88900F4004040B1322000EBC900B0FB1D
:102CB000F1F000F00700044308E0322000EB0910B7
:102CC0006421B0FBF1F000F00F0004432C8106B04A
:102CD000BDE8F0874FF41651016000218180C1806A
:102CE00001810C21418100218181704710B502468C
:102CF0000020108A4FF2FF0318400B884C882343B2
:102D00008C882343CC8823431843108210BD0021B4
:102D1000018041808180C180704721B1828942F465
:102D20000052828104E082894DF6FF731A4082814D
:102D30007047F0B50346002400260025002040F629
:102D40006A17B94200D100BF1846C1F3421401F01E
:102D50001F06012707FA06F5012C01D10C3004E00B
:102D6000022C01D1103000E014301AB107682F4353
:102D7000076002E00768AF430760F0BD1AB1838ABD
:102D80000B43838202E0838A8B4383827047028AEB
:102D90004FF6F0731A400282028A0A430282704799
:102DA00082894FF2FF731A40828182890A438281AD
:102DB000704721B1828942F00202828104E0828957
:102DC0004FF6FD731A4082817047028A4FF6DF7317
:102DD0001A400282028A0A430282704721B1028AA3
:102DE00042F48042028204E0028A4BF6FF731A40EA
:102DF00002827047C1F308028280704701468888CA
:102E0000C0F308007047818941F00101818170475A
:102E1000028BD2B20283028B42EA01220283704704
:102E2000028B02F47F420283028B0A4302837047C3
:102E300021B1828A42F02002828204E0828A4FF627
:102E4000DF731A408282704721B1828A42F01002F9
:102E5000828204E0828A4FF6EF731A4082827047C2
:102E600021B1828A42F00802828204E0828A4FF60F
:102E7000F7731A408282704721B1828942F400427E
:102E8000828103E08289C2F30E028281704721B100
:102E9000828A42F40062828204E0828A4FF2FF73E7
:102EA0001A4082827047828A4FF6FB731A408282F0
:102EB000828A0A438282704721B1828A42F00202EA
:102EC000828204E0828A4FF6FD731A408282704744
:102ED00002460020B1F5007F00D100BF13880B40EF
:102EE0000BB1012000E00020704701F40072B2F540
:102EF000007F00D100BFCA430280704770B5024610
:102F0000002400230025002040F66A16B14200D1BB
:102F100000BFC1F3421501F01F03012606FA03F3B7
:102F2000012D02D19689334006E0022D02D1168A86
:102F3000334001E0968A33400C12012606FA04F46D
:102F40001688344013B10CB1012000E0002070BDA0
:102F500010B50022002340F66A14A14200D100BF40
:102F60000A1201249440A3B2DC43048010BD000087
:102F7000003801400044004000480040004C004040
:102F80000050004010B50446FE48844208D101219B
:102F9000C014FFF7A7FD0021E014FFF7A3FDC4E074
:102FA000B4F1804F08D101210846FFF7A8FD0021A8
:102FB0000120FFF7A4FDB8E0F348844208D10121C5
:102FC0000220FFF79CFD00210220FFF798FDACE0F6
:102FD000EE48844208D101210420FFF790FD002132
:102FE0000420FFF78CFDA0E0E948844208D10121CC
:102FF0000820FFF784FD00210820FFF780FD94E002
:10300000E448844208D101211020FFF778FD002117
:103010001020FFF774FD88E0DF48844208D10121C9
:103020002020FFF76CFD00212020FFF768FD7CE0E9
:10303000DA48844208D101214014FFF753FD0021F2
:103040006014FFF74FFD70E0D548844209D101219B
:10305000C804FFF747FD00214FF40020FFF742FDB1
:1030600063E0D048844209D101210805FFF73AFD09
:1030700000214FF48010FFF735FD56E0CA48844226
:1030800009D101214805FFF72DFD00214FF4001063
:10309000FFF728FD49E0C548844208D101214020BE
:1030A000FFF72DFD00214020FFF729FD3DE0C0483E
:1030B000844208D101218020FFF721FD00218020DA
:1030C000FFF71DFD31E0BB48844208D10121801586
:1030D000FFF715FD0021A015FFF711FD25E0B6480B
:1030E000844209D101210804FFF7FCFC00214FF4C0
:1030F0008030FFF7F7FC18E0B048844209D1012185
:103100004804FFF7EFFC00214FF40030FFF7EAFC22
:103110000BE0AB48844208D101218804FFF7E2FCB0
:1031200000214FF48020FFF7DDFC10BD0022028853
:10313000944B98420ED0994B98420BD0B0F1804FEF
:1031400008D0914B984205D0904B984202D0904BBA
:10315000984204D14FF68F731A404B881A438D4B17
:10316000984207D08C4B984204D04FF6FF431A4048
:10317000CB881A4302808B8883850B880385814B1B
:1031800098420BD0854B984208D08B4B984205D083
:103190008A4B984202D08A4B984201D10B7A03861F
:1031A00001238382704770B5002400220023058C20
:1031B0004FF6FE7635400584028C8388048B4FF6EB
:1031C0008F752C40B51E2C400D882C43751E2A404F
:1031D0000D892A434D882A436A4DA8420BD06F4D72
:1031E000A84208D0744DA84205D0744DA84202D020
:1031F000734DA84213D14FF6F7752A404D892A43E3
:103200004FF6FB752A408D882A434FF6FF652B4009
:103210004FF6FF552B408D892B43CD892B4383805F
:103220000483CD888586028470BD70B50024002299
:103230000023058C4FF6EF7635400584028C838899
:10324000048B48F6FF752C404FF6FF452C400D8847
:103250004FF6FF7606EA05252C434FF6DF752A4028
:103260000D8906EA05152A434D8806EA05152A4305
:10327000444DA84202D0494DA8421DD14FF67F755A
:103280002A404D894FF6FF7606EA05152A434FF688
:10329000BF752A408D8806EA05152A434FF6FF358B
:1032A0002B404FF2FF752B408D8906EA85052B4395
:1032B000CD8906EA85052B4383800483CD88058765
:1032C000028470BD70B5002400220023058C4FF6E7
:1032D000FF6635400584028C8388848B4FF68F759A
:1032E0002C404FF6FC752C400D882C434FF6FF55B3
:1032F0002A400D894FF6FF7606EA05252A434D88B8
:1033000006EA05252A431F4DA84202D0234DA842B4
:103310001DD14FF2FF752A404D894FF6FF7606EA20
:1033200005252A434FF6FF352A408D8806EA0525F4
:103330002A434EF6FF752B404DF6FF752B408D89C5
:1033400006EA05152B43CD8906EA05152B43838034
:103350008483CD888587028470BD70B500220023E8
:103360000024058C4EF6FF7635400584038C848856
:10337000828B48F6FF752A404FF6FF452A400D889C
:1033800020E00000002C0140000400400008004044
:10339000000C0040001000400014004000340140C8
:1033A000004C014000500140005401400018004012
:1033B000001C00400020004000400140004401404B
:1033C000004801404FF6FF7606EA05252A434DF6F0
:1033D000FF752B400D8906EA05352B434D8806EA1B
:1033E00005352B43FA4DA84202D0FA4DA84208D128
:1033F0004BF6FF752C408D894FF6FF7606EA851552
:103400002C4384808283CD88A0F84050038470BD13
:10341000828B4FF2FF331A408283828B4FF6FF7309
:1034200003EA01231A4382837047F0B50C46154620
:10343000002200210026078C4EF6FF7C07EA0C07CD
:103440000784828B018C4FF6FF7707EA043640F63B
:10345000FF473A404FF6FF7707EA05273A434FF612
:10346000FF7707EA03373A43D94FB8420ED0D94F16
:10347000B8420BD0B0F1804F08D0D74FB84205D03A
:10348000D64FB84202D0D64FB84206D14DF6FF779C
:10349000394046F48057394305E047F6FF57394035
:1034A00044F48057394382830184F0BD828B4FF608
:1034B000F3731A408283828B0A4382837047F0B58C
:1034C0000C461546002200210026078C4FF6FF6CA3
:1034D00007EA0C070784828B018C4FF6FF7707EA17
:1034E00004264FF60C773A404FF6FF7707EA0317AA
:1034F0002F433A43B64FB8420ED0B64FB8420BD026
:10350000B0F1804F08D0B44FB84205D0B34FB842A5
:1035100002D0B34FB84206D14FF6FF57394046F4B8
:103520008077394305E04FF2FF57394044F4807704
:10353000394382830184F0BD028B4FF2FF331A407E
:103540000283028B4FF6FF7303EA01231A430283BF
:103550007047F0B50C461546002200210026078C66
:103560004FF6EF7C07EA0C070784028B018C4FF6BD
:10357000FF7707EA041640F6FF473A404FF6FF7719
:1035800007EA03373A434FF6FF7707EA05273A433E
:103590008F4FB8420ED08F4FB8420BD0B0F1804F52
:1035A00008D08D4FB84205D08C4FB84202D08C4F16
:1035B000B84206D14FF6DF77394046F0100739435D
:1035C00005E04FF65F77394044F010073943028336
:1035D0000184F0BD028B4FF6F3731A400283028B15
:1035E0000A4302837047F0B50C46154600220021BD
:1035F000068C4FF6FE773E400684028B018C4FF618
:103600000C7632407E1C06EA03162E433243704E7F
:10361000B0420ED06F4EB0420BD0B0F1804F08D008
:103620006D4EB04205D06D4EB04202D06C4EB042ED
:1036300006D14FF6FD76314044F00106314305E0F6
:103640004FF6F576314044F00106314302830184A0
:10365000F0BD70B505460C465D4885420ED05D480C
:1036600085420BD0B5F1804F08D05B48854205D02C
:103670005A48854202D05A48854200D100E000BF36
:10368000208850B92389A28861882846FFF7ABFFBC
:10369000E1882846FFF79EFF25E0208804280AD10C
:1036A0002389A28861882846FFF753FFE1882846CE
:1036B000FFF742FF17E0208808280AD12389A28853
:1036C00061882846FFF7FBFEE1882846FFF7EEFEFB
:1036D00009E02389A28861882846FFF7A6FEE188D1
:1036E0002846FFF795FE70BD2DE9F04105460C46D2
:1036F00000260127608808B9022600E00026A0887D
:10370000012801D1022700E001272088A0B92389E0
:10371000A28861882846FFF766FFE1882846FFF700
:1037200059FF23893A4631462846FFF712FFE188C0
:103730002846FFF701FF13E02389A2886188284605
:10374000FFF707FFE1882846FFF7F6FE23893A4690
:1037500031462846FFF747FFE1882846FFF73AFF42
:10376000BDE8F0810A884B881A438B881A43CB88BE
:103770001A430B891A434B891A438B891A43A0F8C1
:10378000442070474FF6FF71818000210180C18085
:103790004180017270470021018041808180C18099
:1037A000018141818181C181704700210180418077
:1037B000012181800021C1800181704700210180A9
:1037C00041808180C18001814181818170470000F9
:1037D000002C01400034014000040040000800407B
:1037E000000C004021B1028842F00102028004E096
:1037F00002884FF6FE731A400280704731B1B0F86C
:10380000442042F40042A0F8442005E0B0F84420EF
:10381000C2F30E02A0F8442070471AB183890B430B
:10382000838102E083898B43838170478182704763
:1038300041EA0203A0F8483070471AB183890B436C
:10384000838102E083898B438381704701894FF62E
:10385000F8721140018170470A46002101894FF634
:103860008F73194011430181704730B504460D46EE
:1038700029462046FFF7F0FF208940F0070020810D
:1038800030BD2DE9F04104460D4616461F46602D19
:1038900006D13B46012231462046FFF75AFE05E09D
:1038A0003B46012231462046FFF79DFE2946204631
:1038B000FFF7D2FF208940F007002081BDE8F081AA
:1038C00030B50C4600210189C9B24FF6FF7505EAF3
:1038D0000325154325432943018130BD2DE9F041DE
:1038E00005460E4617469846002443463A4631465A
:1038F0002846FFF7E5FF2C894FF6F870044044F0A6
:1039000007044FF68F70044044F070042C81BDE82A
:10391000F081F0B504460D4616461F463B4632463A
:1039200029462046FFF7CCFF208940F480402081C3
:10393000F0BD0185828270470A46002101884FF65A
:103940008F731940114301807047F0B50C4615463E
:103950001E460021002200230189028B038C4FF6B2
:10396000F877394021434FF6FC473A4040F20117BF
:103970003A434FF6DD773B404FF6FF7707EA0617ED
:103980002F433B43018102830384F0BD0A4600219B
:10399000018B4FF68F7319401143018370470A461C
:1039A0000021018B48F6FF7319404FF6FF7303EABD
:1039B00002231943018370470A460021818B4FF689
:1039C0008F7319401143818370470A460021818B10
:1039D00048F6FF7319404FF6FF7303EA02231943B9
:1039E0008183704721B1028842F08002028004E0A6
:1039F00002884FF67F731A400280704721B1828897
:103A000042F00402828004E082884FF6FB731A4081
:103A10008280704721B1828842F00802828004E0EF
:103A200082884FF6F7731A408280704721B18288EE
:103A300042F00102828004E082884FF6FE731A4051
:103A4000828070470A460021018B4FF6F7731940B8
:103A50001143018370470A460021018B4FF2FF7327
:103A600019404FF6FF7303EA02231943018370479D
:103A70000A460021818B4FF6F77319401143818369
:103A800070470A460021818B4FF2FF7319404FF6B1
:103A9000FF7303EA02231943818370470A4600211A
:103AA000018B4FF6FB7319401143018370470A469F
:103AB0000021018B4FF6FF3319404FF6FF7303EAE5
:103AC00002231943018370470A460021818B4FF678
:103AD000FB7319401143818370470A460021818B93
:103AE0004FF6FF3319404FF6FF7303EA02231943E1
:103AF000818370470A460021018B4FF67F7319407E
:103B00001143018370470A460021018BC1F30E0166
:103B10004FF6FF7303EA02231943018370470A46F5
:103B20000021818B4FF67F731940114381837047C9
:103B30000A460021818BC1F30E014FF6FF7303EAA1
:103B400002231943818370470A460021018C4FF6F6
:103B5000FD7319401143018470470A460021018C0E
:103B60004FF6F77319401143018470470A4600214C
:103B7000018C4FF6DF7319404FF6FF7303EA02130F
:103B80001943018470470A460021018C4FF67F7368
:103B900019404FF6FF7303EA02131943018470477B
:103BA0000A460021018C4FF6FF5319404FF6FF7370
:103BB00003EA02231943018470470A460021018C5D
:103BC0004FF2FF7319404FF6FF7303EA02231943C4
:103BD000018470470A460021018C4DF6FF7319409D
:103BE0004FF6FF7303EA023319430184704730B57F
:103BF000002301248C40A3B2048C9C430484048CD5
:103C000002FA01F5ADB22C43048430BD30B5002377
:103C100004248C40A3B2048C9C430484048C02FAD8
:103C200001F5ADB22C43048430BD70B503460020CD
:103C300000241846183001258D40ACB21D8CA543D8
:103C40001D8409B1082909D100EB6100056825F040
:103C5000700505600568154305600EE00D1FC5F38E
:103C60004E052844056825F4E045056005684FF6D3
:103C7000FF7606EA02263543056070BD21B1028851
:103C800042F00202028004E002884FF6FD731A40FF
:103C90000280704721B1028842F00402028004E0F1
:103CA00002884FF6FB731A400280704721B1828868
:103CB00042F08002828004E082884FF67F731A40CF
:103CC0008280704702884FF6F7731A40028002889C
:103CD0000A430280704782884FF68F731A408280B1
:103CE00082880A438280704702894FF6F8731A402F
:103CF000028102890A430281704702894FF67F736D
:103D00001A40028102890A43028170478184704708
:103D1000818570478186704701877047818770472A
:103D2000A0F84010704702884FF6FF431A40028007
:103D300002880A43028070470146888E7047014618
:103D4000088F70470146888F70470146B1F84000E0
:103D500070470146888C70470146088D70470246BF
:103D60000020138A0B400BB1012000E000207047B7
:103D7000CA430282704730B5024600200023002467
:103D8000158A05EA0103958905EA010413B10CB10E
:103D9000012000E0002030BDCA43028270470000CD
:103DA00010B50120FEF7B8FE0020FEF7B5FE10BDED
:103DB0002A49086070472949091F08607047274948
:103DC00084310860704701460020254A10884FF66C
:103DD0007F4210400843224A10807047014600206D
:103DE0001F4A10884FF68072104008431C4A10800A
:103DF000704708B500220092194A2C3A0092009AA6
:103E000002440092009A116008BD08B501460020E6
:103E1000009013482C3800900098084400900098B7
:103E2000008808BD0D489C300068C0B270470C483F
:103E30000830008840F001000949083108807047C7
:103E40000648A0300068C0B27047054808300088B6
:103E500040F00200024908310880704704860D4294
:103E60002C6C004029B1504A128802434E4B1A80F4
:103E700004E04D4A128882434B4B1A8070474A48EF
:103E8000001D008840F010004749091D0880704758
:103E90004548001D00884FF6EF7108404249091D52
:103EA00008807047002140481C300188001F0088AE
:103EB00041EA0040704700B50246FFF7E0FF100CF2
:103EC000394918310880091D0A80FFF7E1FF00BD5C
:103ED00000B50246FFF7D3FFC2F303403249083171
:103EE0000880091D0A80FFF7D3FF00BD00B5024618
:103EF000FFF7C5FF100C2C4920310880091D0A80EE
:103F0000FFF7C6FF00BD00202749103109880907C7
:103F1000080B2549143109880843704700BF22481F
:103F2000001D008800F020000028F8D070471E48CF
:103F3000001D00884FF6F77108401B49091D0880D5
:103F400000BF1948001D008800F008000028F8D0C4
:103F5000704701460020144A121D12880A400AB117
:103F6000012000E0002070470F49091D09888143A6
:103F70000D4A121D11807047014600200A4A121D89
:103F800012880A40D0B2084A12880A4012B108B119
:103F9000012000E0002070470349091D0988814382
:103FA000014A121D118070470028004010B5012100
:103FB0000807FEF7A4FD00214FF08050FEF79FFD9B
:103FC00010BD2A49086270472849086170470146B8
:103FD0000020274A106820F0E00008431060704776
:103FE0002249A0310860704710B502460020204BDE
:103FF000186820F00300104318601E4B1B6843F044
:1040000004031C4C2360012901D130BF00E020BF14
:10401000184B1B6823F00403164C236010BD144892
:10402000006840F00400124908600846006840F04B
:10403000020008600F48006840F004000D49086065
:1040400000BF00BF30BF704701460020084A5268D9
:104050000A400AB1012000E00020704704490968C5
:1040600041EA8001024A11607047000000000E42E0
:104070000070004010ED00E00E49086070470D49E7
:10408000486070470B49886070474AF6AA20094982
:10409000086070474CF6CC400649086070470146FE
:1040A0000020044AD2680A400AB1012000E0002042
:1040B000704700000030004008B503208DF8000074
:1040C00000208DF801008DF8020001208DF803001A
:1040D0006846FEF768F908BDF0B503460C4615467C
:1040E000642093FBF0F0C6B2642093FBF0F700FB72
:1040F0001730C1B2132E02DD01F16400C1B20846CF
:10410000CF1701EB977701EBA707BAB2072092FB15
:10411000F0F700FB172082B25719601EDFF850C479
:104120001CF80000384482B2CF1701EB9777BF101C
:10413000A1EB87071FB9032C01DA501E82B20720BA
:1041400092FBF0F700FB1720C0B2F0BD0146CA1782
:1041500001EB92729210A1EB820292B9642091FB62
:10416000F0F200FB121050B94FF4C87091FBF0F25E
:1041700000FB121008B9012070470020FCE7012065
:10418000FAE70020F8E770B5002600240025FFF7C5
:1041900089FE0646F748B6FBF0F4F7480088A042CF
:1041A0003CD0F5490C8040F2B27510E02846FFF78C
:1041B000CDFF40B1B4F5B77F02D3A4F5B77404E0E6
:1041C000681C85B206E0A4F26D14681C85B2B4F5D3
:1041D000B67FEBD800BFE9488580002516E0E749A7
:1041E0008888FFF7B3FF30B1012D04D11D2C01D316
:1041F0001D3C09E00CE0E248405DA04203D8E048E5
:10420000405D241A00E003E0681C85B21C2CE6D255
:1042100000BF681CD9498871601CC871D548B6FBBD
:10422000F0F100FB11644FF46160B4FBF0F0D3498E
:1042300008704FF46160B4FBF0F100FB11403C21C9
:10424000B0FBF1F0CD4948704FF46160B4FBF0F180
:1042500000FB11403C21B0FBF1F201FB1200C74909
:1042600088700B46DA7999799888FFF735FFC3494A
:104270000872002070BD2DE9F05F06460F4690469B
:104280009946DDE90AAB002440F2B270864203DBB6
:1042900040F63300864202DD0120BDE8F09F40F287
:1042A000B2750AE02846FFF751FF10B1B548044443
:1042B00001E0B5480444681C85B2B542F2DB781EC3
:1042C000C7B2002510E0AE48405D40F2A32148434C
:1042D00004EBC0143046FFF739FF18B1012D01D1AE
:1042E000A4480444681C85B2BD42ECDBA8F101007F
:1042F00040F2A321484304EBC014C9EB4910C0EBC2
:10430000092004EB0014CAEB0A1004EB80045C449F
:1043100001214FF0C050FEF7D8FB0120FFF751FEFE
:104320002046FFF7C8FDFFF7F9FD0020B5E71CB5F3
:1043300001214FF0C050FEF7C8FB0120FFF741FEFE
:104340000420FFF762FD45F2500188422CD0FFF7B0
:1043500027FD4FF44070FEF734FB0120FEF737FBDA
:10436000FFF7DCFDFFF7E3FD01210846FFF77AFDCB
:10437000FFF7D4FDFFF783FD8448FFF7A9FDFFF7A2
:10438000CDFD37202A2111230E22CDE90010012175
:1043900040F2DF70FFF76FFFFFF77AFD45F2500143
:1043A0000420FFF726FD07E0FFF7C1FD01210846C5
:1043B000FFF758FDFFF7B2FDFFF77EFEFFF7E3FEC4
:1043C00000201CBD0EB50120FFF7D6FD08B1FFF798
:1043D000DAFE0220FFF7D0FDA0B10220FFF7DCFDDE
:1043E000FFF7D1FE6548807864494978634A1278BE
:1043F000CDE9002102906148C3798279818864A067
:1044000000F0B8FC0520FFF7C7FDFFF787FD0EBDE4
:104410002DE9F05F06460F4690469946DDE90AAB66
:10442000002440F2B270864203DB40F6330086423D
:1044300002DD0120BDE8F09F40F2B2750AE0284697
:10444000FFF784FE10B14F48044401E04E48044495
:10445000681C85B2B542F2DB781EC7B2002510E0B9
:104460004748405D40F2A321484304EBC014304666
:10447000FFF76CFE18B1012D01D13E480444681CC1
:1044800085B2BD42ECDBA8F1010040F2A321484314
:1044900004EBC014C9EB4910C0EB092004EB001475
:1044A000CAEB0A1004EB80045C4401214FF0C050B9
:1044B000FEF70BFB0120FFF784FD2046FFF716FDFA
:1044C000FFF72CFD0020B5E710B503460C460BB1F5
:1044D0000C2B07DD2046FFF739FE354949780844A3
:1044E000C0B210BD022B03D0581E3149085CF8E75A
:1044F0002046FFF72BFE2E4949780844C0B2F0E76A
:104500002DE9F04F06460C469346BBF1000F01D053
:1045100006F5616606F5E1461648B6FBF0F100FBCC
:10452000116A4FF461609AFBF0F020704FF4616003
:104530009AFBF0F100FB11AA3C209AFBF0F06070AE
:104540003C209AFBF0F100FB11A0A0700948B6FBDB
:10455000F0F540F2B2772FE03846FFF7F7FD00F2B2
:104560006D194D4502DBA5EB090523E026E00000AF
:10457000B45C00088051010012030020BA0F002033
:10458000C05C00080085E2018033E10148E80100D9
:10459000416C61726D2054696D653A25642D256406
:1045A0002D25642025643A25643A25640A0000001C
:1045B000A85C0008781C87B2002DCDDC00BFA78066
:1045C0004FF001080EE039464046FFF77DFF814677
:1045D0004D4502DBA5EB090500E006E008F101000E
:1045E00000F0FF08B8F10C0FEDDB00BF84F8068087
:1045F000681CE071BDE8F08F2DE9F0410446884663
:104600000026A08840F2B271884202DA0020BDE89C
:10461000F08140F2B27507E02846FFF797FD00F2FF
:104620006D100644681C85B2A088A842F4DC012500
:1046300006E0A188E8B2FFF747FF0644681C85B290
:10464000A079A842F5DCE079401E064420784FF4BA
:10465000616148436178C1EB011100EB8100A178F1
:10466000014440F2A320704301EBC017B9F1000FE1
:1046700004D0B8F1000F01D0A7F56167A7F5E140BC
:10468000C5E7000000487047505D0008014610B5BE
:1046900009683C22B1FBF2F302FB1313B1FBF2F108
:1046A0001D480360B1FBF2F302FB1313B1FBF2F1FF
:1046B00018224360B1FBF2F302FB1313B1FBF2F1DA
:1046C00083600A1D0723B2FBF3F403FB142282610B
:1046D0008A0040F2B55102F66C32B2FBF1F344337A
:1046E0004361B2FBF1F301FB13218908C1613B294E
:1046F00003D3027D920700D0491C0022074C1346C9
:104700000261E25C8A4203D8891A5B1C0361F8E704
:10471000491CC16010BD0000C40F0020545D00089A
:1047200040EA01039B0703D009E008C9121F08C033
:10473000042AFAD203E011F8013B00F8013B521EB3
:10474000F9D27047D2B201E000F8012B491EFBD22A
:1047500070470022F6E710B513460A46044619468C
:10476000FFF7F0FF204610BD421E12F8013F002B5C
:10477000FBD111F8013B02F8013B002BF9D1704746
:10478000421C10F8011B0029FBD1801A704710B59C
:10479000002200E0521C835C8C5CA34201D1002B00
:1047A000F8D1D8B2E1B2401A10BD034611F8012B7E
:1047B00000F8012B002AF9D1184670472DE9FE4F69
:1047C000804681EA0300C00F0C46009021F00041B2
:1047D00023F00045B8EB0200A94105D2404621462E
:1047E00090461C460B46024623F00040104347D03B
:1047F000270DC7F30A00C3F30A510290401A019033
:1048000040286BDAC3F3130040F4801B00989246F3
:1048100020B10023D2EB030A63EB0B0B019859463E
:10482000C0F14002504600F033F906460D465046AE
:104830005946019A00F03BF910EB08006141002451
:1048400087EA115284EAE7731A4340D0009A62B3B0
:10485000019A012A4FEA075215DC001B61EB0201A5
:104860004FF0004202EA0752CDE90042001C41F538
:10487000801132462B4600F03BF903B0BDE8F08FC3
:1048800040462146F9E7001B61EB0201001C41F59F
:10489000801300185B412018A2F5001747EB0301B5
:1048A00040EAD570B6196D4111E06D084FEA360641
:1048B00045EAC0754FEA0752001B61EB0201001C7C
:1048C00041F5801149084FEA300000195141324644
:1048D0002B4603B0BDE8F04F00F0FBB80098012272
:1048E00040000023D0EB020263EBE0730098214606
:1048F0004FEAE074B8EB000061EB0401E9E783F0F4
:1049000000435BE781F0004158E72DE9F04D81EA73
:10491000030404F0004B21F0004514464FF0000A58
:1049200023F0004150EA050220D054EA01021DD0D4
:10493000C5F30A570246C5F31303C1F31300C1F3CD
:104940000A5640F4801543F48013A7EB0608101BA9
:10495000D64608F2FD3873EB050002D308F10108D2
:1049600001E092185B41B8F1000F03DA0020014624
:10497000BDE8F08D00204FF48011064684460EE01D
:10498000171B73EB050705D3121B63EB05030643E7
:104990004CEA010C49084FEA300092185B4150EA9A
:1049A0000107EDD152EA030012D082EA040083EA43
:1049B0000501084305D0101BAB4106D2012200239C
:1049C00006E000224FF0004302E06FF001025310B6
:1049D0001AEB06004CEB085110EB0A0041EB0B01FF
:1049E000BDE8F04D00F075B80EB540F233410291CC
:1049F0000021CDE900110A460B4600F079F803B01A
:104A000000BD30B50B46014600202022012409E0FC
:104A100021FA02F59D4205D303FA02F5491B04FA77
:104A200002F52844151EA2F10102F1DC30BD2DE98A
:104A3000F05F0546002092469B4688460646814622
:104A400040241BE0284641464746224600F052F9E2
:104A500053465A46C01A914110D311461846224671
:104A600000F016F82D1A67EB01084F462246012088
:104A7000002100F00DF817EB00094E41201EA4F1B3
:104A80000104DFDC484631462A464346BDE8F09F34
:104A9000202A04DB203A00FA02F1002070479140FE
:104AA000C2F1200320FA03F3194390407047202AF3
:104AB00006DBCB17203A41FA02F043EAE07306E046
:104AC00041FA02F3D040C2F1200291400843194656
:104AD000704710B5141E73F1000408DA401C41F150
:104AE000000192185B411A4301D120F0010010BD72
:104AF0002DE9F04D92469B4611B1B1FA81F202E0E8
:104B0000B0FA80F220329046FFF7C2FF04460F460B
:104B100040EA0A0041EA0B0153465A46084313D0C3
:104B2000114653EA010019D0C8F14002504600F086
:104B3000E1F805460E46504659464246FFF7A8FFA3
:104B4000084305D0012004E020463946BDE8F08D39
:104B50000020054346EAE0762C4337430A98630574
:104B6000E40AA0EB08000022FD0A44EA47540A3098
:104B700002D500200146E9E7010510196941DDE988
:104B8000084500196941BDE8F04DA2E72DE9FE4F47
:104B900081EA030404F0004421F0004100944FF046
:104BA000000B23F0004350EA01045ED052EA0304F4
:104BB0005BD0C3F30A54C1F30A552C44A4F2F33476
:104BC0000194A0FB0254C1F3130141F48011C3F31B
:104BD000130343F4801301FB024400FB034E840AD9
:104BE000970A44EA815447EA8357A4FB0768029571
:104BF0008D0A05FB07854FEA932C04FB0C5427050F
:104C0000029D4FEA065847EA1637B5EB08056EEBEA
:104C1000070C870E920E47EA811742EA8312A7FB20
:104C20000201B6EB0B0164EB00042B0D43EA0C33DD
:104C30005E1844EB1C50DA465146E7FB0201C5F30F
:104C400013044FEA0B3343EA14534FEA0432019C36
:104C500043EA0603A4F10C040294009CCDE900B4DD
:104C6000FFF746FF03B0BDE8F08F00200146F9E7EB
:104C7000C1F30A52C1F3130140F2FF3341F4801132
:104C80009A4202DA00200146704740F233439A42CA
:104C9000A2F2334202DC524200F02CB8FFF7F8BE19
:104CA00030B5041E71F1000404DB4FF000444042B3
:104CB00064EB0101141E73F1000405DB1C464FF088
:104CC0000043524263EB0403994208BF904230BD57
:104CD000064C074D06E0E06840F0010394E8070049
:104CE00098471034AC42F6D3FBF726FA685D00080B
:104CF000885D0008202A04DB203A21FA02F0002116
:104D0000704721FA02F3D040C2F1200291400843DB
:104D10001946704770B58D1810F8014B14F0030256
:104D200001D110F8012B231106D110F8013B03E04B
:104D300010F8016B01F8016B521EF9D1ABB110F8FC
:104D4000012B04F00C048A1A0C2C03D0A2EB841261
:104D50009B1C08E010F8014BA2EB0422F8E712F8C4
:104D6000014B01F8014B5B1EF9D5A942D4D30020B9
:104D700070BD00000FB4054B10B503A9044A02989A
:104D800000F0F0F810BC5DF814FB0000A122000850
:104D9000140300207CB5044600201D461646002959
:104DA0000BD0491ECDE90041044B6A4629463046E6
:104DB00000F0D8F8009A002111707CBD93560008CD
:104DC00002E008C8121F08C1002AFAD170477047D4
:104DD000002001E001C1121F002AFBD17047000032
:104DE0002DE9FF5F82B00021DDE90430020DDDF81E
:104DF00040B0034318D044F61050A2F2FF324243B1
:104E00001514119801281FD0A5EB0B00401C5FEA78
:104E1000000A4FF000064E4FDFF83891B04650467A
:104E200015D5CAF1000413E0119801244AA3012802
:104E300001D16FEA0B010298119AC0E90031C0E973
:104E4000024206B0BDE8F09FCBF10000DFE7044668
:104E50000021404A491842EB0450CDE9001012E00D
:104E6000E00707D032463B4640464946FFF78EFEF4
:104E70008046894632463B4610461946FFF786FE75
:104E800006460F466410002CEAD1DDE90401DDE995
:104E90000023BAF1000F06DAFFF778FE42464B46D0
:104EA000FFF774FE05E0FFF730FD42464B46FFF783
:104EB0002CFD04460E460022284BFFF7F1FE03D8D6
:104EC0004FF0FF30014607E00022254B20463146D7
:104ED000FFF774FCFFF7CCFE102409E0002C0ADB7E
:104EE0000A220023FFF7A3FD039B30321A55641EEC
:104EF00050EA0102F2D1641C039AC4F11103144474
:104F0000119A012A03D0012208430DD10AE0084377
:104F100004D000204FF0110B119072E7A3EB0B05AA
:104F20006D1E0DE05B4504DD4FF0000205F101054B
:104F300004E003DA4FF00002A5F10105002AECD0ED
:104F400002981199C0E90231C0E9004579E70000F3
:104F5000000014400000F03F300000000000F0436B
:104F60000000E03F2DE9FF4F95B09B46894606467D
:104F700000250FE2252877D100242746F84A012191
:104F8000059400E0044316F8013F203B01FA03F0CA
:104F90001042F7D130782A2811D06FF02F033078E3
:104FA000A0F13002092A16D8059A44F0020402EB57
:104FB000820203EB42021044761C0590EFE759F899
:104FC000042B0592002A03DA504244F40054059061
:104FD00044F00204761C30782E2816D116F8010F02
:104FE00044F004042A280DD06FF02F023078A0F18D
:104FF0003003092B09D807EB870302EB4303C718DB
:10500000761CF3E759F8047B761C30786C280FD0B7
:1050100006DC4C2817D068280DD06A2814D104E08B
:10502000742810D07A280FD10DE044F400140AE05F
:1050300044F4801401E044F440147278824202D1B6
:1050400004F58014761C761C307866280BD013DCAF
:10505000582877D009DC002875D04528F6D0462896
:10506000F4D047281AD19DE118E0632835D0642890
:1050700079D0652812D195E1702873D008DC6728B3
:10508000F1D069286FD06E280DD06F2806D1B5E019
:1050900073282CD0752875D0782874D05A46179963
:1050A00090476D1C75E1C4F30250022809D0032813
:1050B0000DD0D9F8001004280DD00D6009F10409B5
:1050C00067E1D9F80010EA17C1E90052F6E7D9F80C
:1050D00000100D80F2E70D70F0E719F8041B8DF851
:1050E000001000208DF80100EA46012003E059F885
:1050F00004AB4FF0FF3061074FF0000102D40DE028
:1051000008F101018846B9420FDA8045F8DB1AF848
:1051100008100029F4D108E008F101018846814215
:10512000FADB1AF808100029F6D105985B46A0EBC7
:10513000080721463846179A00F094FA284400EBF5
:10514000080507E04DE029E10DE01AF8010B5A4689
:1051500017999047B8F10108F7D25B4621463846C7
:10516000179A13E142E00A220092C4F302524FF070
:10517000000A022A08D059F804CB032A4FEAEC713E
:105180000AD00DE029E02AE009F1070121F0070229
:10519000F2E802C1914609E00FFA8CFC4FEAEC718B
:1051A000042A03D14FFA8CFC4FEAEC71002907DA8C
:1051B0000A460021DCF1000C61EB02012D2202E025
:1051C000220504D52B228DF80420012203E0E207FA
:1051D00001D02022F7E7904659E00A2102E0102290
:1051E0000DE010214FF0000A00910BE010224FF06B
:1051F000000A44F004040827009203E008224FF05C
:10520000000A0092C4F30252022A05D059F804CBD6
:105210000021032A08D009E009F1070121F0070263
:10522000F2E802C1914605E01FFA8CFC042A01D184
:105230000CF0FF0C4FF00008220728D5702806D08C
:10524000009B83F0100353EA0A0305D00EE04022CE
:105250008DF80420012208E05CEA010206D0302229
:105260008DF804208DF8050002229046009B83F003
:10527000080353EA0A030AD15CEA010201D162077A
:1052800005D530228DF804204FF001087F1E5828E4
:1052900004D034A003900EA802900DE036A0F9E7E8
:1052A00053466046009AFFF7C2FB84460398825C2F
:1052B0000298401E029002705CEA0100F0D1029850
:1052C00006A9081A00F1200A600702D524F48034E8
:1052D00000E00127574502DDA7EB0A0000E00020AF
:1052E00000EB0A01009005984144401A0590E00344
:1052F00006D45B462146179A059800F0B3F9054499
:10530000002706E001A85A46C05D179990476D1C1A
:105310007F1C4745F6DBE0030CD55B462146179A18
:10532000059800F09FF9054404E030205A4617998B
:1053300090476D1C0099481E00900029F5DC08E09C
:10534000029802995A460078491C02911799904791
:105350006D1CBAF10001AAF1010AF1DC65E100005F
:10536000092801003031323334353637383961623B
:1053700063646566000000003031323334353637FF
:1053800038394142434445460000000000F058F9D6
:105390000544761C307800287FF4ECAD19B028461F
:1053A000BDE8F08F620700D4062709F1070222F05A
:1053B000070CFCE80223E14603F000485FEA080C12
:1053C00002D00FF2702C0DE05FEA045C02D50FF200
:1053D000682C07E05FEAC47C02D00FF2602C01E089
:1053E000AFF2700C4FF0FF3823F00043CDF850C0FF
:1053F00065280CD006DC452809D046281DD0472852
:105400003DD13DE0662818D067287ED138E00021E4
:10541000112F01DB112000E0781CCDE9000106A965
:105420000EA8FFF7DDFCDDE90F010E9A03910021C4
:10543000009207F1010A04914DE04FF000400097FF
:10544000CDE9011006A90EA8FFF7CAFCDDE90F029D
:1054500003920E9B11990022DDF80CA00093049298
:1054600011B9791C00EB010AB7EB0A0004D4C0F1B2
:10547000FF3007F1010A0490AAEB0700019044E015
:10548000012F00DA01270021112F01DD112000E09A
:105490003846CDE9000106A90EA8FFF7A1FCDDE919
:1054A0000F010E9A0391002104910092BA46210740
:1054B0000CD40399514500DA8A46BAF1010F05DD93
:1054C000009AAAF10101515C302908D0B84202DAF1
:1054D00010F1040F06DA0121CDE9011015E0AAF15F
:1054E0000101E9E7002805DC049901440491AAEBD5
:1054F000000102E0411C514500DD8A460499401A32
:10550000401C01904FF000400290200704D4019805
:10551000504501DBCDF8048000208DF84F00029843
:105520000DF14F07B0F1004F25D02B200E900298BF
:105530004FF0020800280CDA404202902D200E9015
:1055400007E00A210298FFF75CFA3031029007F871
:10555000011DB8F10001A8F10108F2DC0298002851
:10556000EFD1791E0E980870307800F0200040F0DE
:10557000450007F8020D12A8C01B00F10708149897
:10558000007800B1012000EB0A01019801EBE07105
:1055900005984144401A401E0590E00306D45B463E
:1055A0002146179A059800F05DF805441498007894
:1055B00018B15A46179990476D1CE00324D55B46F5
:1055C0002146179A059800F04DF805441CE0049810
:1055D000002807DBDDE90301884203DD0098405C19
:1055E000179901E0179930205A469047049805F121
:1055F0000105401C04900198401E019004D12E200A
:105600005A46179990476D1CBAF10001AAF1010A98
:10561000DDDC05E017F8010B5A46179990476D1C21
:10562000B8F10001A8F10108F4DC5B462146179AA5
:105630000598ABE62D0000002B00000020000000C4
:105640002DE9F041044600251E461746880404D47F
:1056500005E039462020B0476D1C641EF9D5284668
:10566000BDE8F0812DE9F041044600251E46904634
:10567000C80301D5302700E02027880404D505E0C1
:1056800041463846B0476D1C641EF9D52846BDE832
:10569000F0814A68002A06D00A68531C0B6010701B
:1056A0004868401E48607047000021104220633067
:1056B0008440A550C660E770088129914AA16BB16A
:1056C0008CC1ADD1CEE1EFF1311210027332522212
:1056D000B5529442F772D662399318837BB35AA3BA
:1056E000BDD39CC3FFF3DEE36224433420040114E2
:1056F000E664C774A44485546AA54BB5288509950A
:10570000EEE5CFF5ACC58DD55336722611163006B1
:10571000D776F6669556B4465BB77AA71997388759
:10572000DFF7FEE79DD7BCC7C448E5588668A77871
:105730004008611802282338CCC9EDD98EE9AFF9A9
:10574000488969990AA92BB9F55AD44AB77A966A51
:10575000711A500A333A122AFDDBDCCBBFFB9EEBF9
:10576000799B588B3BBB1AABA66C877CE44CC55C21
:10577000222C033C600C411CAEED8FFDECCDCDDD49
:105780002AAD0BBD688D499D977EB66ED55EF44EF1
:10579000133E322E511E700E9FFFBEEFDDDFFCCF99
:1057A0001BBF3AAF599F788F8891A981CAB1EBA1ED
:1057B0000CD12DC14EF16FE18010A100C230E32069
:1057C0000450254046706760B9839893FBA3DAB311
:1057D0003DC31CD37FE35EF3B1029012F322D232B9
:1057E0003542145277625672EAB5CBA5A8958985E1
:1057F0006EF54FE52CD50DC5E234C324A014810409
:105800006674476424540544DBA7FAB79987B897B0
:105810005FE77EF71DC73CD7D326F2369106B01658
:1058200057667676154634564CD96DC90EF92FE970
:10583000C899E9898AB9ABA94458654806782768A8
:10584000C018E1088238A3287DCB5CDB3FEB1EFB50
:10585000F98BD89BBBAB9ABB754A545A376A167AF8
:10586000F10AD01AB32A923A2EFD0FED6CDD4DCD20
:10587000AABD8BADE89DC98D267C076C645C454C48
:10588000A23C832CE01CC10C1FEF3EFF5DCF7CDFF0
:105890009BAFBABFD98FF89F176E367E554E745E98
:1058A000932EB23ED10EF01E000000009630077716
:1058B0002C610EEEBA51099919C46D078FF46A7004
:1058C00035A563E9A395649E3288DB0EA4B8DC7924
:1058D0001EE9D5E088D9D2972B4CB609BD7CB17EA4
:1058E000072DB8E7911DBF906410B71DF220B06A74
:1058F0004871B9F3DE41BE847DD4DA1AEBE4DD6D84
:1059000051B5D4F4C785D38356986C13C0A86B6483
:105910007AF962FDECC9658A4F5C0114D96C0663A3
:10592000633D0FFAF50D088DC8206E3B5E10694C83
:10593000E44160D5727167A2D1E4033C47D4044BC3
:10594000FD850DD26BB50AA5FAA8B5356C98B242A3
:10595000D6C9BBDB40F9BCACE36CD832755CDF4523
:10596000CF0DD6DC593DD1ABAC30D9263A00DE5153
:105970008051D7C81661D0BFB5F4B42123C4B35643
:105980009995BACF0FA5BDB89EB802280888055FC3
:10599000B2D90CC624E90BB1877C6F2F114C685823
:1059A000AB1D61C13D2D66B69041DC760671DB0111
:1059B000BC20D2982A10D5EF8985B1711FB5B606E3
:1059C000A5E4BF9F33D4B8E8A2C9077834F9000F23
:1059D0008EA8099618980EE1BB0D6A7F2D3D6D08C3
:1059E000976C6491015C63E6F4516B6B62616C1CB3
:1059F000D83065854E0062F2ED95066C7BA5011BE3
:105A0000C1F4088257C40FF5C6D9B06550E9B71282
:105A1000EAB8BE8B7C88B9FCDF1DDD62492DDA1542
:105A2000F37CD38C654CD4FB5861B24DCE51B53A62
:105A30007400BCA3E230BBD441A5DF4AD795D83D62
:105A40006DC4D1A4FBF4D6D36AE96943FCD96E34A2
:105A5000468867ADD0B860DA732D0444E51D033382
:105A60005F4C0AAAC97C0DDD3C710550AA41022792
:105A700010100BBE86200CC925B56857B3856F2062
:105A800009D466B99FE461CE0EF9DE5E98C9D929C2
:105A90002298D0B0B4A8D7C7173DB359810DB42E02
:105AA0003B5CBDB7AD6CBAC02083B8EDB6B3BF9A4E
:105AB0000CE2B6039AD2B1743947D5EAAF77D29DDA
:105AC0001526DB048316DC73120B63E3843B6494BA
:105AD0003E6A6D0DA85A6A7A0BCF0EE49DFF0993BA
